{"contracts/LoanPool.sol":{"LoanPool":{"abi":[{"inputs":[{"components":[{"internalType":"address","name":"borrower","type":"address"},{"internalType":"address","name":"escrowAdmin","type":"address"},{"internalType":"address","name":"fundingToken","type":"address"},{"internalType":"address","name":"protocolWallet","type":"address"},{"internalType":"address","name":"reserveFundAddress","type":"address"}],"internalType":"struct LoanPool.Addresses","name":"_addresses","type":"tuple"},{"components":[{"internalType":"uint256","name":"amountNeeded","type":"uint256"},{"internalType":"uint256","name":"borrowerRate","type":"uint256"},{"internalType":"uint256","name":"platformRate","type":"uint256"},{"internalType":"uint256","name":"loanTermMonths","type":"uint256"},{"internalType":"uint256","name":"fundingDeadline","type":"uint256"},{"internalType":"uint256","name":"setupFee","type":"uint256"}],"internalType":"struct LoanPool.LoanParameters","name":"_loanParams","type":"tuple"},{"components":[{"internalType":"bool","name":"kycRequired","type":"bool"},{"internalType":"address","name":"registry","type":"address"},{"internalType":"bytes32","name":"compliance","type":"bytes32"}],"internalType":"struct LoanPool.ComplianceInfo","name":"_complianceInfo","type":"tuple"},{"components":[{"internalType":"string","name":"poolMetadataURI","type":"string"},{"internalType":"string","name":"loanMetadataURI","type":"string"}],"internalType":"struct LoanPool.MetadataURIs","name":"_metadataURIs","type":"tuple"}],"stateMutability":"nonpayable","type":"constructor"},{"anonymous":false,"inputs":[{"indexed":true,"internalType":"address","name":"investor","type":"address"},{"indexed":false,"internalType":"uint256","name":"amount","type":"uint256"}],"name":"Claimed","type":"event"},{"anonymous":false,"inputs":[{"indexed":false,"internalType":"uint256","name":"amount","type":"uint256"},{"indexed":false,"internalType":"uint256","name":"penalty","type":"uint256"}],"name":"EarlyRepaid","type":"event"},{"anonymous":false,"inputs":[{"indexed":true,"internalType":"address","name":"investor","type":"address"},{"indexed":false,"internalType":"uint256","name":"amount","type":"uint256"}],"name":"Funded","type":"event"},{"anonymous":false,"inputs":[],"name":"FundingClosed","type":"event"},{"anonymous":false,"inputs":[],"name":"FundingFailed","type":"event"},{"anonymous":false,"inputs":[],"name":"FundingStoppedByAdmin","type":"event"},{"anonymous":false,"inputs":[{"indexed":true,"internalType":"address","name":"oldAddress","type":"address"},{"indexed":true,"internalType":"address","name":"newAddress","type":"address"}],"name":"InvestorAddressChanged","type":"event"},{"anonymous":false,"inputs":[],"name":"LoanActivated","type":"event"},{"anonymous":false,"inputs":[],"name":"LoanClosed","type":"event"},{"anonymous":false,"inputs":[],"name":"LoanDefaulted","type":"event"},{"anonymous":false,"inputs":[],"name":"PaymentMissed","type":"event"},{"anonymous":false,"inputs":[{"indexed":true,"internalType":"address","name":"investor","type":"address"},{"indexed":false,"internalType":"uint256","name":"amount","type":"uint256"}],"name":"Refunded","type":"event"},{"anonymous":false,"inputs":[{"indexed":false,"internalType":"uint256","name":"amount","type":"uint256"}],"name":"RepaymentMade","type":"event"},{"inputs":[],"name":"activateLoan","outputs":[],"stateMutability":"nonpayable","type":"function"},{"inputs":[],"name":"amountNeeded","outputs":[{"internalType":"uint256","name":"","type":"uint256"}],"stateMutability":"view","type":"function"},{"inputs":[],"name":"borrower","outputs":[{"internalType":"address","name":"","type":"address"}],"stateMutability":"view","type":"function"},{"inputs":[],"name":"borrowerRate","outputs":[{"internalType":"uint256","name":"","type":"uint256"}],"stateMutability":"view","type":"function"},{"inputs":[],"name":"calculateDefaultPenalty","outputs":[{"internalType":"uint256","name":"","type":"uint256"}],"stateMutability":"view","type":"function"},{"inputs":[],"name":"calculateEarlyRepaymentPenalty","outputs":[{"internalType":"uint256","name":"","type":"uint256"}],"stateMutability":"view","type":"function"},{"inputs":[{"internalType":"address","name":"_investor","type":"address"}],"name":"calculateInvestorOwed","outputs":[{"internalType":"uint256","name":"","type":"uint256"}],"stateMutability":"view","type":"function"},{"inputs":[{"internalType":"address","name":"_oldAddress","type":"address"},{"internalType":"address","name":"_newAddress","type":"address"}],"name":"changeInvestorAddress","outputs":[],"stateMutability":"nonpayable","type":"function"},{"inputs":[],"name":"claim","outputs":[],"stateMutability":"nonpayable","type":"function"},{"inputs":[],"name":"closeFunding","outputs":[],"stateMutability":"nonpayable","type":"function"},{"inputs":[],"name":"compliance","outputs":[{"internalType":"bytes32","name":"","type":"bytes32"}],"stateMutability":"view","type":"function"},{"inputs":[],"name":"earlyRepay","outputs":[],"stateMutability":"nonpayable","type":"function"},{"inputs":[],"name":"escrowAdmin","outputs":[{"internalType":"address","name":"","type":"address"}],"stateMutability":"view","type":"function"},{"inputs":[{"internalType":"uint256","name":"_amount","type":"uint256"}],"name":"fund","outputs":[],"stateMutability":"nonpayable","type":"function"},{"inputs":[],"name":"fundingDeadline","outputs":[{"internalType":"uint256","name":"","type":"uint256"}],"stateMutability":"view","type":"function"},{"inputs":[],"name":"fundingToken","outputs":[{"internalType":"contract IERC20","name":"","type":"address"}],"stateMutability":"view","type":"function"},{"inputs":[],"name":"getEarlyRepaymentAmount","outputs":[{"internalType":"uint256","name":"","type":"uint256"}],"stateMutability":"view","type":"function"},{"inputs":[],"name":"getInvestors","outputs":[{"internalType":"address[]","name":"","type":"address[]"}],"stateMutability":"view","type":"function"},{"inputs":[],"name":"getNextPaymentAmount","outputs":[{"internalType":"uint256","name":"","type":"uint256"}],"stateMutability":"view","type":"function"},{"inputs":[],"name":"getNextPaymentDate","outputs":[{"internalType":"uint256","name":"","type":"uint256"}],"stateMutability":"view","type":"function"},{"inputs":[],"name":"getOutstandingPrincipal","outputs":[{"internalType":"uint256","name":"","type":"uint256"}],"stateMutability":"view","type":"function"},{"inputs":[],"name":"getTotalDebt","outputs":[{"internalType":"uint256","name":"","type":"uint256"}],"stateMutability":"view","type":"function"},{"inputs":[{"internalType":"uint256","name":"","type":"uint256"}],"name":"investorList","outputs":[{"internalType":"address","name":"","type":"address"}],"stateMutability":"view","type":"function"},{"inputs":[],"name":"investorRate","outputs":[{"internalType":"uint256","name":"","type":"uint256"}],"stateMutability":"view","type":"function"},{"inputs":[{"internalType":"address","name":"","type":"address"}],"name":"investors","outputs":[{"internalType":"uint256","name":"amountFunded","type":"uint256"},{"internalType":"uint256","name":"amountWithdrawn","type":"uint256"},{"internalType":"bool","name":"refunded","type":"bool"}],"stateMutability":"view","type":"function"},{"inputs":[],"name":"kycRequired","outputs":[{"internalType":"bool","name":"","type":"bool"}],"stateMutability":"view","type":"function"},{"inputs":[],"name":"loanFundedDate","outputs":[{"internalType":"uint256","name":"","type":"uint256"}],"stateMutability":"view","type":"function"},{"inputs":[],"name":"loanMetadataURI","outputs":[{"internalType":"string","name":"","type":"string"}],"stateMutability":"view","type":"function"},{"inputs":[],"name":"loanStartDate","outputs":[{"internalType":"uint256","name":"","type":"uint256"}],"stateMutability":"view","type":"function"},{"inputs":[],"name":"loanTermMonths","outputs":[{"internalType":"uint256","name":"","type":"uint256"}],"stateMutability":"view","type":"function"},{"inputs":[],"name":"platformRate","outputs":[{"internalType":"uint256","name":"","type":"uint256"}],"stateMutability":"view","type":"function"},{"inputs":[],"name":"poolMetadataURI","outputs":[{"internalType":"string","name":"","type":"string"}],"stateMutability":"view","type":"function"},{"inputs":[],"name":"protocolWallet","outputs":[{"internalType":"address","name":"","type":"address"}],"stateMutability":"view","type":"function"},{"inputs":[],"name":"refund","outputs":[],"stateMutability":"nonpayable","type":"function"},{"inputs":[],"name":"registry","outputs":[{"internalType":"address","name":"","type":"address"}],"stateMutability":"view","type":"function"},{"inputs":[],"name":"repay","outputs":[],"stateMutability":"nonpayable","type":"function"},{"inputs":[],"name":"reserveFundAddress","outputs":[{"internalType":"address","name":"","type":"address"}],"stateMutability":"view","type":"function"},{"inputs":[],"name":"setupFee","outputs":[{"internalType":"uint256","name":"","type":"uint256"}],"stateMutability":"view","type":"function"},{"inputs":[],"name":"status","outputs":[{"internalType":"enum LoanPool.LoanStatus","name":"","type":"uint8"}],"stateMutability":"view","type":"function"},{"inputs":[],"name":"stopFunding","outputs":[],"stateMutability":"nonpayable","type":"function"},{"inputs":[],"name":"totalFunded","outputs":[{"internalType":"uint256","name":"","type":"uint256"}],"stateMutability":"view","type":"function"},{"inputs":[],"name":"totalPaymentsMade","outputs":[{"internalType":"uint256","name":"","type":"uint256"}],"stateMutability":"view","type":"function"},{"inputs":[],"name":"totalRepaid","outputs":[{"internalType":"uint256","name":"","type":"uint256"}],"stateMutability":"view","type":"function"},{"stateMutability":"payable","type":"receive"}],"evm":{"bytecode":{"linkReferences":{},"object":"60806040523480156200001157600080fd5b5060405162003760380380620037608339810160408190526200003491620005f2565b600160005583516001600160a01b03166200006c5760405162461bcd60e51b815260040162000063906200076c565b60405180910390fd5b60208401516001600160a01b0316620000995760405162461bcd60e51b81526004016200006390620007a3565b60408401516001600160a01b0316620000c65760405162461bcd60e51b8152600401620000639062000821565b60608401516001600160a01b0316620000f35760405162461bcd60e51b815260040162000063906200089e565b60808401516001600160a01b0316620001205760405162461bcd60e51b81526004016200006390620006f3565b8251620001415760405162461bcd60e51b81526004016200006390620007da565b6000836060015111620001685760405162461bcd60e51b815260040162000063906200072a565b428360800151116200018e5760405162461bcd60e51b8152600401620000639062000858565b8260400151836020015111620001b85760405162461bcd60e51b81526004016200006390620008d5565b8351600180546001600160a01b03199081166001600160a01b03938416179091556020808701516002805484169185169190911790556040808801516003805485169186169190911790556060880151601080548516918616919091179055608088015160118054909416941693909317909155845160045584810151600781905591850151600881905562000258929162000305811b6200215b17901c565b6009556060830151600a556080830151600b5560a0830151600f5581516011805460ff60a01b1916600160a01b92151592909202919091179055602080830151601280546001600160a01b0319166001600160a01b03909216919091179055604083015160135581518051620002d39260149201906200031a565b506020808201518051620002ec9260159201906200031a565b50506003805460ff60a01b1916905550620009c8915050565b600062000313828462000951565b9392505050565b828054620003289062000975565b90600052602060002090601f0160209004810192826200034c576000855562000397565b82601f106200036757805160ff191683800117855562000397565b8280016001018555821562000397579182015b82811115620003975782518255916020019190600101906200037a565b50620003a5929150620003a9565b5090565b5b80821115620003a55760008155600101620003aa565b80516001600160a01b0381168114620003d857600080fd5b919050565b600082601f830112620003ee578081fd5b81516001600160401b038111156200040a576200040a620009b2565b602062000420601f8301601f1916820162000925565b828152858284870101111562000434578384fd5b835b838110156200045357858101830151828201840152820162000436565b838111156200046457848385840101525b5095945050505050565b60006060828403121562000480578081fd5b604051606081016001600160401b0381118282101715620004a557620004a5620009b2565b806040525080915082518015158114620004be57600080fd5b8152620004ce60208401620003c0565b6020820152604083015160408201525092915050565b600060c08284031215620004f6578081fd5b60405160c081016001600160401b03811182821017156200051b576200051b620009b2565b8060405250809150825181526020830151602082015260408301516040820152606083015160608201526080830151608082015260a083015160a08201525092915050565b60006040828403121562000572578081fd5b604080519081016001600160401b038082118383101715620005985762000598620009b2565b816040528293508451915080821115620005b157600080fd5b620005bf86838701620003dd565b83526020850151915080821115620005d657600080fd5b50620005e585828601620003dd565b6020830152505092915050565b6000806000808486036101e08112156200060a578485fd5b60a081121562000618578485fd5b5060405160a081016001600160401b0380821183831017156200063f576200063f620009b2565b816040526200064e88620003c0565b83526200065e60208901620003c0565b60208401526200067160408901620003c0565b60408401526200068460608901620003c0565b60608401526200069760808901620003c0565b6080840152829650620006ae8960a08a01620004e4565b9550620006c0896101608a016200046e565b94506101c0880151925080831115620006d7578384fd5b5050620006e78782880162000560565b91505092959194509250565b6020808252601c908201527f496e76616c696420726573657276652066756e64206164647265737300000000604082015260600190565b60208082526022908201527f4c6f616e207465726d206d757374206265206174206c656173742031206d6f6e6040820152610e8d60f31b606082015260800190565b60208082526018908201527f496e76616c696420626f72726f77657220616464726573730000000000000000604082015260600190565b6020808252601c908201527f496e76616c696420657363726f772061646d696e206164647265737300000000604082015260600190565b60208082526027908201527f416d6f756e74206e6565646564206d7573742062652067726561746572207468604082015266616e207a65726f60c81b606082015260800190565b6020808252601d908201527f496e76616c69642066756e64696e6720746f6b656e2061646472657373000000604082015260600190565b60208082526026908201527f46756e64696e6720646561646c696e65206d75737420626520696e207468652060408201526566757475726560d01b606082015260800190565b6020808252601f908201527f496e76616c69642070726f746f636f6c2077616c6c6574206164647265737300604082015260600190565b60208082526030908201527f426f72726f7765722072617465206d757374206265206772656174657220746860408201526f616e20706c6174666f726d207261746560801b606082015260800190565b6040518181016001600160401b0381118282101715620009495762000949620009b2565b604052919050565b6000828210156200097057634e487b7160e01b81526011600452602481fd5b500390565b6002810460018216806200098a57607f821691505b60208210811415620009ac57634e487b7160e01b600052602260045260246000fd5b50919050565b634e487b7160e01b600052604160045260246000fd5b612d8880620009d86000396000f3fe6080604052600436106102605760003560e01c80636f7bc9be11610144578063ad044f49116100b6578063c9e511091161007a578063c9e5110914610628578063ca1d209d1461063d578063d59c27331461065d578063de36e39c14610672578063e0b027f714610687578063e2a398a71461069c57610286565b8063ad044f49146105a5578063b2a9bb60146105ba578063b2f5a54c146105cf578063b5e5ac19146105f1578063b96990911461060657610286565b80637b103999116101085780637b1039991461051c5780637df1f1b9146105315780638761fb7c14610546578063a32d07651461055b578063a40b56b91461057b578063a72dad051461059057610286565b80636f7bc9be1461048c578063709c8a0a146104bb57806378065f27146104dd57806378830fb1146104f2578063796b23bb1461050757610286565b806339b6767a116101dd5780634b58d0bb116101a15780634b58d0bb1461040e5780634e71d92d1461042357806358647ab814610438578063590e1ae31461044d5780635a1a691a146104625780636290865d1461047757610286565b806339b6767a1461039a578063402d8883146103af57806341f3dd47146103c45780634419da33146103d95780634477c5da146103f957610286565b8063200d2ed211610224578063200d2ed2146103225780632f5f0cfb1461034457806331a3a5061461035957806334ce998a1461037057806336e0cac61461038557610286565b806306d6e63f1461028b57806309c12ccb146102b657806312f9b48e146102d8578063183b0668146102f85780631ba11f441461030d57610286565b366102865760405162461bcd60e51b815260040161027d9061272d565b60405180910390fd5b600080fd5b34801561029757600080fd5b506102a06106b1565b6040516102ad91906124d6565b60405180910390f35b3480156102c257600080fd5b506102cb6106c0565b6040516102ad919061257f565b3480156102e457600080fd5b506102a06102f33660046124be565b610763565b34801561030457600080fd5b506102cb61078d565b34801561031957600080fd5b506102cb610793565b34801561032e57600080fd5b50610337610799565b6040516102ad919061259f565b34801561035057600080fd5b506102cb6107a9565b34801561036557600080fd5b5061036e6107af565b005b34801561037c57600080fd5b506102cb610870565b34801561039157600080fd5b506102cb6108c7565b3480156103a657600080fd5b506102cb6108cd565b3480156103bb57600080fd5b5061036e6108d3565b3480156103d057600080fd5b506102cb610b2d565b3480156103e557600080fd5b5061036e6103f436600461246c565b610b33565b34801561040557600080fd5b5061036e610d5a565b34801561041a57600080fd5b506102a0610e7a565b34801561042f57600080fd5b5061036e610e89565b34801561044457600080fd5b506102cb61108e565b34801561045957600080fd5b5061036e611094565b34801561046e57600080fd5b506102cb611235565b34801561048357600080fd5b506102cb611287565b34801561049857600080fd5b506104ac6104a7366004612452565b61128d565b6040516102ad93929190612c60565b3480156104c757600080fd5b506104d06112b1565b6040516102ad91906125c7565b3480156104e957600080fd5b506102a061133f565b3480156104fe57600080fd5b506104d061134e565b34801561051357600080fd5b506102cb61135b565b34801561052857600080fd5b506102a0611361565b34801561053d57600080fd5b506102a0611370565b34801561055257600080fd5b506102a061137f565b34801561056757600080fd5b506102cb610576366004612452565b61138e565b34801561058757600080fd5b506102cb611463565b34801561059c57600080fd5b506102cb611469565b3480156105b157600080fd5b506102cb61146f565b3480156105c657600080fd5b5061036e611475565b3480156105db57600080fd5b506105e461189e565b6040516102ad9190612527565b3480156105fd57600080fd5b506102cb611900565b34801561061257600080fd5b5061061b61194f565b6040516102ad9190612574565b34801561063457600080fd5b5061036e61195f565b34801561064957600080fd5b5061036e6106583660046124be565b611b77565b34801561066957600080fd5b506102cb611fe2565b34801561067e57600080fd5b506102cb611fe8565b34801561069357600080fd5b506102cb61200c565b3480156106a857600080fd5b506102cb61202f565b6010546001600160a01b031681565b600060038054600160a01b900460ff1660068111156106ef57634e487b7160e01b600052602160045260246000fd5b1415801561072957506004600354600160a01b900460ff16600681111561072657634e487b7160e01b600052602160045260246000fd5b14155b1561073657506000610760565b600061075c61075362278d00600e5461216e90919063ffffffff16565b600c549061217a565b9150505b90565b6017818154811061077357600080fd5b6000918252602090912001546001600160a01b0316905081565b600c5481565b60045481565b600354600160a01b900460ff1681565b60075481565b6002546001600160a01b031633146107d95760405162461bcd60e51b815260040161027d90612b6e565b600080600354600160a01b900460ff16600681111561080857634e487b7160e01b600052602160045260246000fd5b146108255760405162461bcd60e51b815260040161027d90612ada565b61082d612186565b6003805460ff60a01b1916600160a01b17905542600d556040517ff3e84c4c82e83c0bdc90064809179d950d758f72209c55f7c851258b6b64d9ab90600090a150565b6000806108a7600c6108a16127106108a1600a5461089b60075460045461216e90919063ffffffff16565b9061216e565b906123fe565b905060006108c08260045461217a90919063ffffffff16565b9250505090565b60085481565b600a5481565b6001546001600160a01b031633146108fd5760405162461bcd60e51b815260040161027d906129f1565b61090561240a565b61090d612186565b60038054600160a01b900460ff16600681111561093a57634e487b7160e01b600052602160045260246000fd5b148061097157506004600354600160a01b900460ff16600681111561096f57634e487b7160e01b600052602160045260246000fd5b145b61098d5760405162461bcd60e51b815260040161027d9061261a565b6000610997611fe8565b6003546040516323b872dd60e01b81529192506001600160a01b0316906323b872dd906109cc903390309086906004016124ea565b602060405180830381600087803b1580156109e657600080fd5b505af11580156109fa573d6000803e3d6000fd5b505050506040513d601f19601f82011682018060405250810190610a1e919061249e565b610a3a5760405162461bcd60e51b815260040161027d906127ce565b600654610a47908261217a565b600655600e54610a5890600161217a565b600e556004600354600160a01b900460ff166006811115610a8957634e487b7160e01b600052602160045260246000fd5b1415610aa3576003805460ff60a01b1916600360a01b1790555b7f4002dba848920f438092e08090cfb5fc47144c22704268b402c9553a1b5adfe681604051610ad2919061257f565b60405180910390a1600a54600e5410610b22576003805460ff60a01b1916600360a11b1790556040517f409fced1b85ae32a29fb1e18894d8361a5f2653dc27adf7102d86175c2901d7c90600090a15b50610b2b612434565b565b60095481565b6002546001600160a01b03163314610b5d5760405162461bcd60e51b815260040161027d90612b6e565b806001600160a01b0316826001600160a01b03161415610b8f5760405162461bcd60e51b815260040161027d906129ba565b6001600160a01b038216600090815260166020526040902054610bc45760405162461bcd60e51b815260040161027d90612688565b6001600160a01b03811660009081526016602052604090205415610bfa5760405162461bcd60e51b815260040161027d9061292a565b6001600160a01b03808316600081815260166020526040808220938516825281208354815560018085018054918301919091556002808601805491909301805460ff909216151560ff19928316179055938352938290559281905582549091169091555b601754811015610d1557826001600160a01b031660178281548110610c9357634e487b7160e01b600052603260045260246000fd5b6000918252602090912001546001600160a01b03161415610d03578160178281548110610cd057634e487b7160e01b600052603260045260246000fd5b9060005260206000200160006101000a8154816001600160a01b0302191690836001600160a01b03160217905550610d15565b80610d0d81612d21565b915050610c5e565b50806001600160a01b0316826001600160a01b03167f1eb85c8fa2e7e0941bb56cc0d62e217d75aab70796408ddbdbc642a904b82f6260405160405180910390a35050565b6002546001600160a01b03163314610d845760405162461bcd60e51b815260040161027d90612b6e565b610d8c61240a565b6000600354600160a01b900460ff166006811115610dba57634e487b7160e01b600052602160045260246000fd5b1480610df157506001600354600160a01b900460ff166006811115610def57634e487b7160e01b600052602160045260246000fd5b145b610e0d5760405162461bcd60e51b815260040161027d90612877565b6003805460ff60a01b1916600160a11b1790556040517f362f189f5bf8fcf98b5a131743fc21dc5f5b13a3115367c7a6616b1e79711f7190600090a16040517f550a04e033ab49137d0f1000c4ab8717e7f011102ce92d50952c0272222a94a690600090a1610b2b612434565b6011546001600160a01b031681565b610e9161240a565b610e99612186565b60038054600160a01b900460ff166006811115610ec657634e487b7160e01b600052602160045260246000fd5b1480610efd57506006600354600160a01b900460ff166006811115610efb57634e487b7160e01b600052602160045260246000fd5b145b610f195760405162461bcd60e51b815260040161027d906127fd565b3360009081526016602052604090208054610f465760405162461bcd60e51b815260040161027d9061276e565b6000610f513361138e565b90506000610f6c83600101548361215b90919063ffffffff16565b905060008111610f8e5760405162461bcd60e51b815260040161027d9061265e565b6001830154610f9d908261217a565b600184015560035460405163a9059cbb60e01b81526001600160a01b039091169063a9059cbb90610fd4903390859060040161250e565b602060405180830381600087803b158015610fee57600080fd5b505af1158015611002573d6000803e3d6000fd5b505050506040513d601f19601f82011682018060405250810190611026919061249e565b6110425760405162461bcd60e51b815260040161027d906127ce565b336001600160a01b03167fd8138f8a3f377c5259ca548e70e4c2de94f129f5a11036a15b69513cba2b426a8260405161107b919061257f565b60405180910390a2505050610b2b612434565b600d5481565b61109c61240a565b6110a4612186565b6002600354600160a01b900460ff1660068111156110d257634e487b7160e01b600052602160045260246000fd5b146110ef5760405162461bcd60e51b815260040161027d90612bb6565b336000908152601660205260409020805461111c5760405162461bcd60e51b815260040161027d9061276e565b600281015460ff16156111415760405162461bcd60e51b815260040161027d90612900565b60028101805460ff19166001179055600354815460405163a9059cbb60e01b81526001600160a01b039092169163a9059cbb916111839133919060040161250e565b602060405180830381600087803b15801561119d57600080fd5b505af11580156111b1573d6000803e3d6000fd5b505050506040513d601f19601f820116820180604052508101906111d5919061249e565b6111f15760405162461bcd60e51b815260040161027d906127ce565b805460405133917fd7dee2702d63ad89917b6a4da9981c90c4d24f8c2bdfd64c604ecae57d8d065191611224919061257f565b60405180910390a250610b2b612434565b600080611240610870565b600e54600a549192509060009061125b906108a1858561216e565b905082600654106112725760009350505050610760565b600061127e848361215b565b94505050505090565b60135481565b60166020526000908152604090208054600182015460029092015490919060ff1683565b601580546112be90612ce6565b80601f01602080910402602001604051908101604052809291908181526020018280546112ea90612ce6565b80156113375780601f1061130c57610100808354040283529160200191611337565b820191906000526020600020905b81548152906001019060200180831161131a57829003601f168201915b505050505081565b6003546001600160a01b031681565b601480546112be90612ce6565b600b5481565b6012546001600160a01b031681565b6001546001600160a01b031681565b6002546001600160a01b031681565b600060038054600160a01b900460ff1660068111156113bd57634e487b7160e01b600052602160045260246000fd5b10156113cb5750600061145e565b6001600160a01b038216600090815260166020526040902080546113f357600091505061145e565b6005548154600091611411916108a190670de0b6b3a764000061216e565b600654909150600061142f670de0b6b3a76400006108a1848661216e565b600185015490915080821161144c5760009550505050505061145e565b611456828261215b565b955050505050505b919050565b600f5481565b60065481565b60055481565b6001546001600160a01b0316331461149f5760405162461bcd60e51b815260040161027d906129f1565b600180600354600160a01b900460ff1660068111156114ce57634e487b7160e01b600052602160045260246000fd5b146114eb5760405162461bcd60e51b815260040161027d90612ada565b6114f361240a565b6114fb612186565b6001600354600160a01b900460ff16600681111561152957634e487b7160e01b600052602160045260246000fd5b146115465760405162461bcd60e51b815260040161027d90612a6c565b60006115656127106108a16101f460045461216e90919063ffffffff16565b905060006115866127106108a161012c60045461216e90919063ffffffff16565b600f549091501561163657600354601054600f5460405163a9059cbb60e01b81526001600160a01b039384169363a9059cbb936115c89391169160040161250e565b602060405180830381600087803b1580156115e257600080fd5b505af11580156115f6573d6000803e3d6000fd5b505050506040513d601f19601f8201168201806040525081019061161a919061249e565b6116365760405162461bcd60e51b815260040161027d90612797565b60035460115460405163a9059cbb60e01b81526001600160a01b039283169263a9059cbb9261166c92911690869060040161250e565b602060405180830381600087803b15801561168657600080fd5b505af115801561169a573d6000803e3d6000fd5b505050506040513d601f19601f820116820180604052508101906116be919061249e565b6116da5760405162461bcd60e51b815260040161027d90612aa3565b60035460105460405163a9059cbb60e01b81526001600160a01b039283169263a9059cbb9261171092911690859060040161250e565b602060405180830381600087803b15801561172a57600080fd5b505af115801561173e573d6000803e3d6000fd5b505050506040513d601f19601f82011682018060405250810190611762919061249e565b61177e5760405162461bcd60e51b815260040161027d906126f6565b60006117a58261179f600f5461179f8760055461215b90919063ffffffff16565b9061215b565b60035460015460405163a9059cbb60e01b81529293506001600160a01b039182169263a9059cbb926117dd921690859060040161250e565b602060405180830381600087803b1580156117f757600080fd5b505af115801561180b573d6000803e3d6000fd5b505050506040513d601f19601f8201168201806040525081019061182f919061249e565b61184b5760405162461bcd60e51b815260040161027d90612c1b565b6003805460ff60a01b1916600360a01b17905542600c556000600e8190556040517f1ae23a15f6e2626a4b617b9cfe88907fbcbe4f72a8d825ead5ad1822933694239190a150505061189b612434565b50565b606060178054806020026020016040519081016040528092919081815260200182805480156118f657602002820191906000526020600020905b81546001600160a01b031681526001909101906020018083116118d8575b5050505050905090565b600080611919600260075461216e90919063ffffffff16565b905060006108c0600c6108a16127106108a1611942600e54600a5461215b90919063ffffffff16565b60045461089b908961216e565b601154600160a01b900460ff1681565b6001546001600160a01b031633146119895760405162461bcd60e51b815260040161027d906129f1565b61199161240a565b611999612186565b60038054600160a01b900460ff1660068111156119c657634e487b7160e01b600052602160045260246000fd5b14806119fd57506004600354600160a01b900460ff1660068111156119fb57634e487b7160e01b600052602160045260246000fd5b145b611a195760405162461bcd60e51b815260040161027d9061261a565b6000611a23611235565b90506000611a2f61202f565b90506000611a3d838361217a565b6003546040516323b872dd60e01b81529192506001600160a01b0316906323b872dd90611a72903390309086906004016124ea565b602060405180830381600087803b158015611a8c57600080fd5b505af1158015611aa0573d6000803e3d6000fd5b505050506040513d601f19601f82011682018060405250810190611ac4919061249e565b611ae05760405162461bcd60e51b815260040161027d906127ce565b600654611aed908461217a565b600655600a54600e556040517f417ad23224c92388db4cfee6aa1061ae26dd3432b872a528f271124213cb603f90611b289085908590612c52565b60405180910390a16003805460ff60a01b1916600360a11b1790556040517f409fced1b85ae32a29fb1e18894d8361a5f2653dc27adf7102d86175c2901d7c90600090a1505050610b2b612434565b611b7f61240a565b600080600354600160a01b900460ff166006811115611bae57634e487b7160e01b600052602160045260246000fd5b14611bcb5760405162461bcd60e51b815260040161027d90612ada565b611bd3612186565b600b54421115611bf55760405162461bcd60e51b815260040161027d90612b37565b6001546001600160a01b0316331415611c205760405162461bcd60e51b815260040161027d90612834565b60008211611c405760405162461bcd60e51b815260040161027d906128b8565b601154600160a01b900460ff1615611d20576012546001600160a01b0316611c7a5760405162461bcd60e51b815260040161027d906126bf565b601254601354604051633633914760e11b81526000926001600160a01b031691636c67228e91611caf91903390600401612588565b60206040518083038186803b158015611cc757600080fd5b505afa158015611cdb573d6000803e3d6000fd5b505050506040513d601f19601f82011682018060405250810190611cff919061249e565b905080611d1e5760405162461bcd60e51b815260040161027d9061296c565b505b6000611d3960055460045461215b90919063ffffffff16565b905060008111611d5b5760405162461bcd60e51b815260040161027d90612a35565b8281811115611d675750805b6003546040516323b872dd60e01b81526001600160a01b03909116906323b872dd90611d9b903390309086906004016124ea565b602060405180830381600087803b158015611db557600080fd5b505af1158015611dc9573d6000803e3d6000fd5b505050506040513d601f19601f82011682018060405250810190611ded919061249e565b611e095760405162461bcd60e51b815260040161027d906127ce565b33600090815260166020526040902054611e6057601780546001810182556000919091527fc624b66cc0138b8fabc209247f72d758e1cf3343756d543badbf24212bed8c150180546001600160a01b031916331790555b33600090815260166020526040902054611e7a908261217a565b33600090815260166020526040902055600554611e97908261217a565b60055560405133907f5af8184bef8e4b45eb9f6ed7734d04da38ced226495548f46e0c8ff8d7d9a52490611ecc90849061257f565b60405180910390a260045460055410611f20576003805460ff60a01b1916600160a01b17905542600d556040517ff3e84c4c82e83c0bdc90064809179d950d758f72209c55f7c851258b6b64d9ab90600090a15b80841115611fd7576000611f34858361215b565b60035460405163a9059cbb60e01b81529192506001600160a01b03169063a9059cbb90611f67903390859060040161250e565b602060405180830381600087803b158015611f8157600080fd5b505af1158015611f95573d6000803e3d6000fd5b505050506040513d601f19601f82011682018060405250810190611fb9919061249e565b611fd55760405162461bcd60e51b815260040161027d90612b07565b505b50505061189b612434565b600e5481565b600080611ff3610870565b905060006108c0600a54836123fe90919063ffffffff16565b600080612017611235565b9050600061202361202f565b90506108c0828261217a565b600060038054600160a01b900460ff16600681111561205e57634e487b7160e01b600052602160045260246000fd5b1415801561209857506004600354600160a01b900460ff16600681111561209557634e487b7160e01b600052602160045260246000fd5b14155b156120a557506000610760565b60006120c261075362278d00600a5461216e90919063ffffffff16565b9050804211156120d6576000915050610760565b60006120e2824261215b565b905060006120f382620151806123fe565b9050600061210d601e600a5461216e90919063ffffffff16565b9050600061212f826108a18561089b60026009546123fe90919063ffffffff16565b9050600061213b611235565b9050600061214f6127106108a1848661216e565b97505050505050505090565b60006121678284612ccf565b9392505050565b60006121678284612cb0565b60006121678284612c78565b6000600354600160a01b900460ff1660068111156121b457634e487b7160e01b600052602160045260246000fd5b1480156121c25750600b5442115b156122545760045460055410612217576003805460ff60a01b1916600160a01b17905542600d556040517ff3e84c4c82e83c0bdc90064809179d950d758f72209c55f7c851258b6b64d9ab90600090a1612254565b6003805460ff60a01b1916600160a11b1790556040517f362f189f5bf8fcf98b5a131743fc21dc5f5b13a3115367c7a6616b1e79711f7190600090a15b6001600354600160a01b900460ff16600681111561228257634e487b7160e01b600052602160045260246000fd5b14156122dc57600d546122989062093a8061217a565b4211156122dc576003805460ff60a01b1916600160a11b1790556040517f362f189f5bf8fcf98b5a131743fc21dc5f5b13a3115367c7a6616b1e79711f7190600090a15b60038054600160a01b900460ff16600681111561230957634e487b7160e01b600052602160045260246000fd5b1415610b2b57600061232c61075362278d00600e5461216e90919063ffffffff16565b905061233b816212750061217a565b42111561189b5761235a61235362127500600261216e565b829061217a565b42116123bf576003805460ff60a01b1916600160a21b179055600061237d611900565b60065490915061238d908261217a565b6006556040517f8c9e892186e366a41c212441d4bd3cf562ccc33d8cfe6201230ab6e848102add90600090a15061189b565b6003805460ff60a01b1916600560a01b1790556040517f74808f66e345f41c571625ba19284173a379393c1422d815a03553c72d0d49a090600090a150565b60006121678284612c90565b6002600054141561242d5760405162461bcd60e51b815260040161027d90612be4565b6002600055565b6001600055565b80356001600160a01b038116811461145e57600080fd5b600060208284031215612463578081fd5b6121678261243b565b6000806040838503121561247e578081fd5b6124878361243b565b91506124956020840161243b565b90509250929050565b6000602082840312156124af578081fd5b81518015158114612167578182fd5b6000602082840312156124cf578081fd5b5035919050565b6001600160a01b0391909116815260200190565b6001600160a01b039384168152919092166020820152604081019190915260600190565b6001600160a01b03929092168252602082015260400190565b6020808252825182820181905260009190848201906040850190845b818110156125685783516001600160a01b031683529284019291840191600101612543565b50909695505050505050565b901515815260200190565b90815260200190565b9182526001600160a01b0316602082015260400190565b60208101600783106125c157634e487b7160e01b600052602160045260246000fd5b91905290565b6000602080835283518082850152825b818110156125f3578581018301518582016040015282016125d7565b818111156126045783604083870101525b50601f01601f1916929092016040019392505050565b60208082526024908201527f4c6f616e206973206e6f7420616374697665206f7220696e207072652d646566604082015263185d5b1d60e21b606082015260800190565b60208082526010908201526f4e6f7468696e6720746f20636c61696d60801b604082015260600190565b6020808252601e908201527f4f6c642061646472657373206973206e6f7420616e20696e766573746f720000604082015260600190565b6020808252601b908201527f52656769737472792061646472657373206973206e6f74207365740000000000604082015260600190565b6020808252601b908201527f5375636365737320666565207472616e73666572206661696c65640000000000604082015260600190565b60208082526021908201527f5468697320636f6e747261637420646f6573206e6f74206163636570742045546040820152600960fb1b606082015260800190565b6020808252600f908201526e2737ba1030b71034b73b32b9ba37b960891b604082015260600190565b60208082526019908201527f536574757020666565207472616e73666572206661696c656400000000000000604082015260600190565b602080825260159082015274151bdad95b881d1c985b9cd9995c8819985a5b1959605a1b604082015260600190565b6020808252601c908201527f4c6f616e206973206e6f7420616374697665206f7220636c6f73656400000000604082015260600190565b60208082526023908201527f426f72726f7765722063616e6e6f742066756e64207468656972206f776e206c60408201526237b0b760e91b606082015260800190565b60208082526021908201527f43616e6e6f742073746f702066756e64696e67206174207468697320737461676040820152606560f81b606082015260800190565b60208082526028908201527f46756e64696e6720616d6f756e74206d7573742062652067726561746572207460408201526768616e207a65726f60c01b606082015260800190565b60208082526010908201526f105b1c9958591e481c99599d5b99195960821b604082015260600190565b60208082526022908201527f4e6577206164647265737320697320616c726561647920616e20696e7665737460408201526137b960f11b606082015260800190565b6020808252602e908201527f496e766573746f7220646f6573206e6f74206d65657420636f6d706c69616e6360408201526d6520726571756972656d656e747360901b606082015260800190565b6020808252601b908201527f416464726573736573206d75737420626520646966666572656e740000000000604082015260600190565b60208082526024908201527f4f6e6c7920626f72726f7765722063616e2063616c6c20746869732066756e636040820152633a34b7b760e11b606082015260800190565b6020808252601c908201527f46756e64696e6720676f616c20616c7265616479207265616368656400000000604082015260600190565b6020808252601c908201527f4c6f616e206973206e6f7420696e2046756e6465642073746174757300000000604082015260600190565b6020808252601c908201527f526573657276652066756e64207472616e73666572206661696c656400000000604082015260600190565b602080825260139082015272496e76616c6964206c6f616e2073746174757360681b604082015260600190565b6020808252601690820152751499599d5b99081d1c985b9cd9995c8819985a5b195960521b604082015260600190565b60208082526018908201527f46756e64696e6720706572696f642068617320656e6465640000000000000000604082015260600190565b60208082526028908201527f4f6e6c7920657363726f772061646d696e2063616e2063616c6c207468697320604082015267333ab731ba34b7b760c11b606082015260800190565b602080825260149082015273119d5b991a5b99c8191a59081b9bdd0819985a5b60621b604082015260600190565b6020808252601f908201527f5265656e7472616e637947756172643a207265656e7472616e742063616c6c00604082015260600190565b6020808252601b908201527f5472616e7366657220746f20626f72726f776572206661696c65640000000000604082015260600190565b918252602082015260400190565b92835260208301919091521515604082015260600190565b60008219821115612c8b57612c8b612d3c565b500190565b600082612cab57634e487b7160e01b81526012600452602481fd5b500490565b6000816000190483118215151615612cca57612cca612d3c565b500290565b600082821015612ce157612ce1612d3c565b500390565b600281046001821680612cfa57607f821691505b60208210811415612d1b57634e487b7160e01b600052602260045260246000fd5b50919050565b6000600019821415612d3557612d35612d3c565b5060010190565b634e487b7160e01b600052601160045260246000fdfea264697066735822122002395bd521a21393beb4e298b36bbdd5400bcc75afe8ee2f49866e6ba5132e6964736f6c63430008000033","opcodes":"PUSH1 0x80 PUSH1 0x40 MSTORE CALLVALUE DUP1 ISZERO PUSH3 0x11 JUMPI PUSH1 0x0 DUP1 REVERT JUMPDEST POP PUSH1 0x40 MLOAD PUSH3 0x3760 CODESIZE SUB DUP1 PUSH3 0x3760 DUP4 CODECOPY DUP2 ADD PUSH1 0x40 DUP2 SWAP1 MSTORE PUSH3 0x34 SWAP2 PUSH3 0x5F2 JUMP JUMPDEST PUSH1 0x1 PUSH1 0x0 SSTORE DUP4 MLOAD PUSH1 0x1 PUSH1 0x1 PUSH1 0xA0 SHL SUB AND PUSH3 0x6C JUMPI PUSH1 0x40 MLOAD PUSH3 0x461BCD PUSH1 0xE5 SHL DUP2 MSTORE PUSH1 0x4 ADD PUSH3 0x63 SWAP1 PUSH3 0x76C JUMP JUMPDEST PUSH1 0x40 MLOAD DUP1 SWAP2 SUB SWAP1 REVERT JUMPDEST PUSH1 0x20 DUP5 ADD MLOAD PUSH1 0x1 PUSH1 0x1 PUSH1 0xA0 SHL SUB AND PUSH3 0x99 JUMPI PUSH1 0x40 MLOAD PUSH3 0x461BCD PUSH1 0xE5 SHL DUP2 MSTORE PUSH1 0x4 ADD PUSH3 0x63 SWAP1 PUSH3 0x7A3 JUMP JUMPDEST PUSH1 0x40 DUP5 ADD MLOAD PUSH1 0x1 PUSH1 0x1 PUSH1 0xA0 SHL SUB AND PUSH3 0xC6 JUMPI PUSH1 0x40 MLOAD PUSH3 0x461BCD PUSH1 0xE5 SHL DUP2 MSTORE PUSH1 0x4 ADD PUSH3 0x63 SWAP1 PUSH3 0x821 JUMP JUMPDEST PUSH1 0x60 DUP5 ADD MLOAD PUSH1 0x1 PUSH1 0x1 PUSH1 0xA0 SHL SUB AND PUSH3 0xF3 JUMPI PUSH1 0x40 MLOAD PUSH3 0x461BCD PUSH1 0xE5 SHL DUP2 MSTORE PUSH1 0x4 ADD PUSH3 0x63 SWAP1 PUSH3 0x89E JUMP JUMPDEST PUSH1 0x80 DUP5 ADD MLOAD PUSH1 0x1 PUSH1 0x1 PUSH1 0xA0 SHL SUB AND PUSH3 0x120 JUMPI PUSH1 0x40 MLOAD PUSH3 0x461BCD PUSH1 0xE5 SHL DUP2 MSTORE PUSH1 0x4 ADD PUSH3 0x63 SWAP1 PUSH3 0x6F3 JUMP JUMPDEST DUP3 MLOAD PUSH3 0x141 JUMPI PUSH1 0x40 MLOAD PUSH3 0x461BCD PUSH1 0xE5 SHL DUP2 MSTORE PUSH1 0x4 ADD PUSH3 0x63 SWAP1 PUSH3 0x7DA JUMP JUMPDEST PUSH1 0x0 DUP4 PUSH1 0x60 ADD MLOAD GT PUSH3 0x168 JUMPI PUSH1 0x40 MLOAD PUSH3 0x461BCD PUSH1 0xE5 SHL DUP2 MSTORE PUSH1 0x4 ADD PUSH3 0x63 SWAP1 PUSH3 0x72A JUMP JUMPDEST TIMESTAMP DUP4 PUSH1 0x80 ADD MLOAD GT PUSH3 0x18E JUMPI PUSH1 0x40 MLOAD PUSH3 0x461BCD PUSH1 0xE5 SHL DUP2 MSTORE PUSH1 0x4 ADD PUSH3 0x63 SWAP1 PUSH3 0x858 JUMP JUMPDEST DUP3 PUSH1 0x40 ADD MLOAD DUP4 PUSH1 0x20 ADD MLOAD GT PUSH3 0x1B8 JUMPI PUSH1 0x40 MLOAD PUSH3 0x461BCD PUSH1 0xE5 SHL DUP2 MSTORE PUSH1 0x4 ADD PUSH3 0x63 SWAP1 PUSH3 0x8D5 JUMP JUMPDEST DUP4 MLOAD PUSH1 0x1 DUP1 SLOAD PUSH1 0x1 PUSH1 0x1 PUSH1 0xA0 SHL SUB NOT SWAP1 DUP2 AND PUSH1 0x1 PUSH1 0x1 PUSH1 0xA0 SHL SUB SWAP4 DUP5 AND OR SWAP1 SWAP2 SSTORE PUSH1 0x20 DUP1 DUP8 ADD MLOAD PUSH1 0x2 DUP1 SLOAD DUP5 AND SWAP2 DUP6 AND SWAP2 SWAP1 SWAP2 OR SWAP1 SSTORE PUSH1 0x40 DUP1 DUP9 ADD MLOAD PUSH1 0x3 DUP1 SLOAD DUP6 AND SWAP2 DUP7 AND SWAP2 SWAP1 SWAP2 OR SWAP1 SSTORE PUSH1 0x60 DUP9 ADD MLOAD PUSH1 0x10 DUP1 SLOAD DUP6 AND SWAP2 DUP7 AND SWAP2 SWAP1 SWAP2 OR SWAP1 SSTORE PUSH1 0x80 DUP9 ADD MLOAD PUSH1 0x11 DUP1 SLOAD SWAP1 SWAP5 AND SWAP5 AND SWAP4 SWAP1 SWAP4 OR SWAP1 SWAP2 SSTORE DUP5 MLOAD PUSH1 0x4 SSTORE DUP5 DUP2 ADD MLOAD PUSH1 0x7 DUP2 SWAP1 SSTORE SWAP2 DUP6 ADD MLOAD PUSH1 0x8 DUP2 SWAP1 SSTORE PUSH3 0x258 SWAP3 SWAP2 PUSH3 0x305 DUP2 SHL PUSH3 0x215B OR SWAP1 SHR JUMP JUMPDEST PUSH1 0x9 SSTORE PUSH1 0x60 DUP4 ADD MLOAD PUSH1 0xA SSTORE PUSH1 0x80 DUP4 ADD MLOAD PUSH1 0xB SSTORE PUSH1 0xA0 DUP4 ADD MLOAD PUSH1 0xF SSTORE DUP2 MLOAD PUSH1 0x11 DUP1 SLOAD PUSH1 0xFF PUSH1 0xA0 SHL NOT AND PUSH1 0x1 PUSH1 0xA0 SHL SWAP3 ISZERO ISZERO SWAP3 SWAP1 SWAP3 MUL SWAP2 SWAP1 SWAP2 OR SWAP1 SSTORE PUSH1 0x20 DUP1 DUP4 ADD MLOAD PUSH1 0x12 DUP1 SLOAD PUSH1 0x1 PUSH1 0x1 PUSH1 0xA0 SHL SUB NOT AND PUSH1 0x1 PUSH1 0x1 PUSH1 0xA0 SHL SUB SWAP1 SWAP3 AND SWAP2 SWAP1 SWAP2 OR SWAP1 SSTORE PUSH1 0x40 DUP4 ADD MLOAD PUSH1 0x13 SSTORE DUP2 MLOAD DUP1 MLOAD PUSH3 0x2D3 SWAP3 PUSH1 0x14 SWAP3 ADD SWAP1 PUSH3 0x31A JUMP JUMPDEST POP PUSH1 0x20 DUP1 DUP3 ADD MLOAD DUP1 MLOAD PUSH3 0x2EC SWAP3 PUSH1 0x15 SWAP3 ADD SWAP1 PUSH3 0x31A JUMP JUMPDEST POP POP PUSH1 0x3 DUP1 SLOAD PUSH1 0xFF PUSH1 0xA0 SHL NOT AND SWAP1 SSTORE POP PUSH3 0x9C8 SWAP2 POP POP JUMP JUMPDEST PUSH1 0x0 PUSH3 0x313 DUP3 DUP5 PUSH3 0x951 JUMP JUMPDEST SWAP4 SWAP3 POP POP POP JUMP JUMPDEST DUP3 DUP1 SLOAD PUSH3 0x328 SWAP1 PUSH3 0x975 JUMP JUMPDEST SWAP1 PUSH1 0x0 MSTORE PUSH1 0x20 PUSH1 0x0 KECCAK256 SWAP1 PUSH1 0x1F ADD PUSH1 0x20 SWAP1 DIV DUP2 ADD SWAP3 DUP3 PUSH3 0x34C JUMPI PUSH1 0x0 DUP6 SSTORE PUSH3 0x397 JUMP JUMPDEST DUP3 PUSH1 0x1F LT PUSH3 0x367 JUMPI DUP1 MLOAD PUSH1 0xFF NOT AND DUP4 DUP1 ADD OR DUP6 SSTORE PUSH3 0x397 JUMP JUMPDEST DUP3 DUP1 ADD PUSH1 0x1 ADD DUP6 SSTORE DUP3 ISZERO PUSH3 0x397 JUMPI SWAP2 DUP3 ADD JUMPDEST DUP3 DUP2 GT ISZERO PUSH3 0x397 JUMPI DUP3 MLOAD DUP3 SSTORE SWAP2 PUSH1 0x20 ADD SWAP2 SWAP1 PUSH1 0x1 ADD SWAP1 PUSH3 0x37A JUMP JUMPDEST POP PUSH3 0x3A5 SWAP3 SWAP2 POP PUSH3 0x3A9 JUMP JUMPDEST POP SWAP1 JUMP JUMPDEST JUMPDEST DUP1 DUP3 GT ISZERO PUSH3 0x3A5 JUMPI PUSH1 0x0 DUP2 SSTORE PUSH1 0x1 ADD PUSH3 0x3AA JUMP JUMPDEST DUP1 MLOAD PUSH1 0x1 PUSH1 0x1 PUSH1 0xA0 SHL SUB DUP2 AND DUP2 EQ PUSH3 0x3D8 JUMPI PUSH1 0x0 DUP1 REVERT JUMPDEST SWAP2 SWAP1 POP JUMP JUMPDEST PUSH1 0x0 DUP3 PUSH1 0x1F DUP4 ADD SLT PUSH3 0x3EE JUMPI DUP1 DUP2 REVERT JUMPDEST DUP2 MLOAD PUSH1 0x1 PUSH1 0x1 PUSH1 0x40 SHL SUB DUP2 GT ISZERO PUSH3 0x40A JUMPI PUSH3 0x40A PUSH3 0x9B2 JUMP JUMPDEST PUSH1 0x20 PUSH3 0x420 PUSH1 0x1F DUP4 ADD PUSH1 0x1F NOT AND DUP3 ADD PUSH3 0x925 JUMP JUMPDEST DUP3 DUP2 MSTORE DUP6 DUP3 DUP5 DUP8 ADD ADD GT ISZERO PUSH3 0x434 JUMPI DUP4 DUP5 REVERT JUMPDEST DUP4 JUMPDEST DUP4 DUP2 LT ISZERO PUSH3 0x453 JUMPI DUP6 DUP2 ADD DUP4 ADD MLOAD DUP3 DUP3 ADD DUP5 ADD MSTORE DUP3 ADD PUSH3 0x436 JUMP JUMPDEST DUP4 DUP2 GT ISZERO PUSH3 0x464 JUMPI DUP5 DUP4 DUP6 DUP5 ADD ADD MSTORE JUMPDEST POP SWAP6 SWAP5 POP POP POP POP POP JUMP JUMPDEST PUSH1 0x0 PUSH1 0x60 DUP3 DUP5 SUB SLT ISZERO PUSH3 0x480 JUMPI DUP1 DUP2 REVERT JUMPDEST PUSH1 0x40 MLOAD PUSH1 0x60 DUP2 ADD PUSH1 0x1 PUSH1 0x1 PUSH1 0x40 SHL SUB DUP2 GT DUP3 DUP3 LT OR ISZERO PUSH3 0x4A5 JUMPI PUSH3 0x4A5 PUSH3 0x9B2 JUMP JUMPDEST DUP1 PUSH1 0x40 MSTORE POP DUP1 SWAP2 POP DUP3 MLOAD DUP1 ISZERO ISZERO DUP2 EQ PUSH3 0x4BE JUMPI PUSH1 0x0 DUP1 REVERT JUMPDEST DUP2 MSTORE PUSH3 0x4CE PUSH1 0x20 DUP5 ADD PUSH3 0x3C0 JUMP JUMPDEST PUSH1 0x20 DUP3 ADD MSTORE PUSH1 0x40 DUP4 ADD MLOAD PUSH1 0x40 DUP3 ADD MSTORE POP SWAP3 SWAP2 POP POP JUMP JUMPDEST PUSH1 0x0 PUSH1 0xC0 DUP3 DUP5 SUB SLT ISZERO PUSH3 0x4F6 JUMPI DUP1 DUP2 REVERT JUMPDEST PUSH1 0x40 MLOAD PUSH1 0xC0 DUP2 ADD PUSH1 0x1 PUSH1 0x1 PUSH1 0x40 SHL SUB DUP2 GT DUP3 DUP3 LT OR ISZERO PUSH3 0x51B JUMPI PUSH3 0x51B PUSH3 0x9B2 JUMP JUMPDEST DUP1 PUSH1 0x40 MSTORE POP DUP1 SWAP2 POP DUP3 MLOAD DUP2 MSTORE PUSH1 0x20 DUP4 ADD MLOAD PUSH1 0x20 DUP3 ADD MSTORE PUSH1 0x40 DUP4 ADD MLOAD PUSH1 0x40 DUP3 ADD MSTORE PUSH1 0x60 DUP4 ADD MLOAD PUSH1 0x60 DUP3 ADD MSTORE PUSH1 0x80 DUP4 ADD MLOAD PUSH1 0x80 DUP3 ADD MSTORE PUSH1 0xA0 DUP4 ADD MLOAD PUSH1 0xA0 DUP3 ADD MSTORE POP SWAP3 SWAP2 POP POP JUMP JUMPDEST PUSH1 0x0 PUSH1 0x40 DUP3 DUP5 SUB SLT ISZERO PUSH3 0x572 JUMPI DUP1 DUP2 REVERT JUMPDEST PUSH1 0x40 DUP1 MLOAD SWAP1 DUP2 ADD PUSH1 0x1 PUSH1 0x1 PUSH1 0x40 SHL SUB DUP1 DUP3 GT DUP4 DUP4 LT OR ISZERO PUSH3 0x598 JUMPI PUSH3 0x598 PUSH3 0x9B2 JUMP JUMPDEST DUP2 PUSH1 0x40 MSTORE DUP3 SWAP4 POP DUP5 MLOAD SWAP2 POP DUP1 DUP3 GT ISZERO PUSH3 0x5B1 JUMPI PUSH1 0x0 DUP1 REVERT JUMPDEST PUSH3 0x5BF DUP7 DUP4 DUP8 ADD PUSH3 0x3DD JUMP JUMPDEST DUP4 MSTORE PUSH1 0x20 DUP6 ADD MLOAD SWAP2 POP DUP1 DUP3 GT ISZERO PUSH3 0x5D6 JUMPI PUSH1 0x0 DUP1 REVERT JUMPDEST POP PUSH3 0x5E5 DUP6 DUP3 DUP7 ADD PUSH3 0x3DD JUMP JUMPDEST PUSH1 0x20 DUP4 ADD MSTORE POP POP SWAP3 SWAP2 POP POP JUMP JUMPDEST PUSH1 0x0 DUP1 PUSH1 0x0 DUP1 DUP5 DUP7 SUB PUSH2 0x1E0 DUP2 SLT ISZERO PUSH3 0x60A JUMPI DUP5 DUP6 REVERT JUMPDEST PUSH1 0xA0 DUP2 SLT ISZERO PUSH3 0x618 JUMPI DUP5 DUP6 REVERT JUMPDEST POP PUSH1 0x40 MLOAD PUSH1 0xA0 DUP2 ADD PUSH1 0x1 PUSH1 0x1 PUSH1 0x40 SHL SUB DUP1 DUP3 GT DUP4 DUP4 LT OR ISZERO PUSH3 0x63F JUMPI PUSH3 0x63F PUSH3 0x9B2 JUMP JUMPDEST DUP2 PUSH1 0x40 MSTORE PUSH3 0x64E DUP9 PUSH3 0x3C0 JUMP JUMPDEST DUP4 MSTORE PUSH3 0x65E PUSH1 0x20 DUP10 ADD PUSH3 0x3C0 JUMP JUMPDEST PUSH1 0x20 DUP5 ADD MSTORE PUSH3 0x671 PUSH1 0x40 DUP10 ADD PUSH3 0x3C0 JUMP JUMPDEST PUSH1 0x40 DUP5 ADD MSTORE PUSH3 0x684 PUSH1 0x60 DUP10 ADD PUSH3 0x3C0 JUMP JUMPDEST PUSH1 0x60 DUP5 ADD MSTORE PUSH3 0x697 PUSH1 0x80 DUP10 ADD PUSH3 0x3C0 JUMP JUMPDEST PUSH1 0x80 DUP5 ADD MSTORE DUP3 SWAP7 POP PUSH3 0x6AE DUP10 PUSH1 0xA0 DUP11 ADD PUSH3 0x4E4 JUMP JUMPDEST SWAP6 POP PUSH3 0x6C0 DUP10 PUSH2 0x160 DUP11 ADD PUSH3 0x46E JUMP JUMPDEST SWAP5 POP PUSH2 0x1C0 DUP9 ADD MLOAD SWAP3 POP DUP1 DUP4 GT ISZERO PUSH3 0x6D7 JUMPI DUP4 DUP5 REVERT JUMPDEST POP POP PUSH3 0x6E7 DUP8 DUP3 DUP9 ADD PUSH3 0x560 JUMP JUMPDEST SWAP2 POP POP SWAP3 SWAP6 SWAP2 SWAP5 POP SWAP3 POP JUMP JUMPDEST PUSH1 0x20 DUP1 DUP3 MSTORE PUSH1 0x1C SWAP1 DUP3 ADD MSTORE PUSH32 0x496E76616C696420726573657276652066756E64206164647265737300000000 PUSH1 0x40 DUP3 ADD MSTORE PUSH1 0x60 ADD SWAP1 JUMP JUMPDEST PUSH1 0x20 DUP1 DUP3 MSTORE PUSH1 0x22 SWAP1 DUP3 ADD MSTORE PUSH32 0x4C6F616E207465726D206D757374206265206174206C656173742031206D6F6E PUSH1 0x40 DUP3 ADD MSTORE PUSH2 0xE8D PUSH1 0xF3 SHL PUSH1 0x60 DUP3 ADD MSTORE PUSH1 0x80 ADD SWAP1 JUMP JUMPDEST PUSH1 0x20 DUP1 DUP3 MSTORE PUSH1 0x18 SWAP1 DUP3 ADD MSTORE PUSH32 0x496E76616C696420626F72726F77657220616464726573730000000000000000 PUSH1 0x40 DUP3 ADD MSTORE PUSH1 0x60 ADD SWAP1 JUMP JUMPDEST PUSH1 0x20 DUP1 DUP3 MSTORE PUSH1 0x1C SWAP1 DUP3 ADD MSTORE PUSH32 0x496E76616C696420657363726F772061646D696E206164647265737300000000 PUSH1 0x40 DUP3 ADD MSTORE PUSH1 0x60 ADD SWAP1 JUMP JUMPDEST PUSH1 0x20 DUP1 DUP3 MSTORE PUSH1 0x27 SWAP1 DUP3 ADD MSTORE PUSH32 0x416D6F756E74206E6565646564206D7573742062652067726561746572207468 PUSH1 0x40 DUP3 ADD MSTORE PUSH7 0x616E207A65726F PUSH1 0xC8 SHL PUSH1 0x60 DUP3 ADD MSTORE PUSH1 0x80 ADD SWAP1 JUMP JUMPDEST PUSH1 0x20 DUP1 DUP3 MSTORE PUSH1 0x1D SWAP1 DUP3 ADD MSTORE PUSH32 0x496E76616C69642066756E64696E6720746F6B656E2061646472657373000000 PUSH1 0x40 DUP3 ADD MSTORE PUSH1 0x60 ADD SWAP1 JUMP JUMPDEST PUSH1 0x20 DUP1 DUP3 MSTORE PUSH1 0x26 SWAP1 DUP3 ADD MSTORE PUSH32 0x46756E64696E6720646561646C696E65206D75737420626520696E2074686520 PUSH1 0x40 DUP3 ADD MSTORE PUSH6 0x667574757265 PUSH1 0xD0 SHL PUSH1 0x60 DUP3 ADD MSTORE PUSH1 0x80 ADD SWAP1 JUMP JUMPDEST PUSH1 0x20 DUP1 DUP3 MSTORE PUSH1 0x1F SWAP1 DUP3 ADD MSTORE PUSH32 0x496E76616C69642070726F746F636F6C2077616C6C6574206164647265737300 PUSH1 0x40 DUP3 ADD MSTORE PUSH1 0x60 ADD SWAP1 JUMP JUMPDEST PUSH1 0x20 DUP1 DUP3 MSTORE PUSH1 0x30 SWAP1 DUP3 ADD MSTORE PUSH32 0x426F72726F7765722072617465206D7573742062652067726561746572207468 PUSH1 0x40 DUP3 ADD MSTORE PUSH16 0x616E20706C6174666F726D2072617465 PUSH1 0x80 SHL PUSH1 0x60 DUP3 ADD MSTORE PUSH1 0x80 ADD SWAP1 JUMP JUMPDEST PUSH1 0x40 MLOAD DUP2 DUP2 ADD PUSH1 0x1 PUSH1 0x1 PUSH1 0x40 SHL SUB DUP2 GT DUP3 DUP3 LT OR ISZERO PUSH3 0x949 JUMPI PUSH3 0x949 PUSH3 0x9B2 JUMP JUMPDEST PUSH1 0x40 MSTORE SWAP2 SWAP1 POP JUMP JUMPDEST PUSH1 0x0 DUP3 DUP3 LT ISZERO PUSH3 0x970 JUMPI PUSH4 0x4E487B71 PUSH1 0xE0 SHL DUP2 MSTORE PUSH1 0x11 PUSH1 0x4 MSTORE PUSH1 0x24 DUP2 REVERT JUMPDEST POP SUB SWAP1 JUMP JUMPDEST PUSH1 0x2 DUP2 DIV PUSH1 0x1 DUP3 AND DUP1 PUSH3 0x98A JUMPI PUSH1 0x7F DUP3 AND SWAP2 POP JUMPDEST PUSH1 0x20 DUP3 LT DUP2 EQ ISZERO PUSH3 0x9AC JUMPI PUSH4 0x4E487B71 PUSH1 0xE0 SHL PUSH1 0x0 MSTORE PUSH1 0x22 PUSH1 0x4 MSTORE PUSH1 0x24 PUSH1 0x0 REVERT JUMPDEST POP SWAP2 SWAP1 POP JUMP JUMPDEST PUSH4 0x4E487B71 PUSH1 0xE0 SHL PUSH1 0x0 MSTORE PUSH1 0x41 PUSH1 0x4 MSTORE PUSH1 0x24 PUSH1 0x0 REVERT JUMPDEST PUSH2 0x2D88 DUP1 PUSH3 0x9D8 PUSH1 0x0 CODECOPY PUSH1 0x0 RETURN INVALID PUSH1 0x80 PUSH1 0x40 MSTORE PUSH1 0x4 CALLDATASIZE LT PUSH2 0x260 JUMPI PUSH1 0x0 CALLDATALOAD PUSH1 0xE0 SHR DUP1 PUSH4 0x6F7BC9BE GT PUSH2 0x144 JUMPI DUP1 PUSH4 0xAD044F49 GT PUSH2 0xB6 JUMPI DUP1 PUSH4 0xC9E51109 GT PUSH2 0x7A JUMPI DUP1 PUSH4 0xC9E51109 EQ PUSH2 0x628 JUMPI DUP1 PUSH4 0xCA1D209D EQ PUSH2 0x63D JUMPI DUP1 PUSH4 0xD59C2733 EQ PUSH2 0x65D JUMPI DUP1 PUSH4 0xDE36E39C EQ PUSH2 0x672 JUMPI DUP1 PUSH4 0xE0B027F7 EQ PUSH2 0x687 JUMPI DUP1 PUSH4 0xE2A398A7 EQ PUSH2 0x69C JUMPI PUSH2 0x286 JUMP JUMPDEST DUP1 PUSH4 0xAD044F49 EQ PUSH2 0x5A5 JUMPI DUP1 PUSH4 0xB2A9BB60 EQ PUSH2 0x5BA JUMPI DUP1 PUSH4 0xB2F5A54C EQ PUSH2 0x5CF JUMPI DUP1 PUSH4 0xB5E5AC19 EQ PUSH2 0x5F1 JUMPI DUP1 PUSH4 0xB9699091 EQ PUSH2 0x606 JUMPI PUSH2 0x286 JUMP JUMPDEST DUP1 PUSH4 0x7B103999 GT PUSH2 0x108 JUMPI DUP1 PUSH4 0x7B103999 EQ PUSH2 0x51C JUMPI DUP1 PUSH4 0x7DF1F1B9 EQ PUSH2 0x531 JUMPI DUP1 PUSH4 0x8761FB7C EQ PUSH2 0x546 JUMPI DUP1 PUSH4 0xA32D0765 EQ PUSH2 0x55B JUMPI DUP1 PUSH4 0xA40B56B9 EQ PUSH2 0x57B JUMPI DUP1 PUSH4 0xA72DAD05 EQ PUSH2 0x590 JUMPI PUSH2 0x286 JUMP JUMPDEST DUP1 PUSH4 0x6F7BC9BE EQ PUSH2 0x48C JUMPI DUP1 PUSH4 0x709C8A0A EQ PUSH2 0x4BB JUMPI DUP1 PUSH4 0x78065F27 EQ PUSH2 0x4DD JUMPI DUP1 PUSH4 0x78830FB1 EQ PUSH2 0x4F2 JUMPI DUP1 PUSH4 0x796B23BB EQ PUSH2 0x507 JUMPI PUSH2 0x286 JUMP JUMPDEST DUP1 PUSH4 0x39B6767A GT PUSH2 0x1DD JUMPI DUP1 PUSH4 0x4B58D0BB GT PUSH2 0x1A1 JUMPI DUP1 PUSH4 0x4B58D0BB EQ PUSH2 0x40E JUMPI DUP1 PUSH4 0x4E71D92D EQ PUSH2 0x423 JUMPI DUP1 PUSH4 0x58647AB8 EQ PUSH2 0x438 JUMPI DUP1 PUSH4 0x590E1AE3 EQ PUSH2 0x44D JUMPI DUP1 PUSH4 0x5A1A691A EQ PUSH2 0x462 JUMPI DUP1 PUSH4 0x6290865D EQ PUSH2 0x477 JUMPI PUSH2 0x286 JUMP JUMPDEST DUP1 PUSH4 0x39B6767A EQ PUSH2 0x39A JUMPI DUP1 PUSH4 0x402D8883 EQ PUSH2 0x3AF JUMPI DUP1 PUSH4 0x41F3DD47 EQ PUSH2 0x3C4 JUMPI DUP1 PUSH4 0x4419DA33 EQ PUSH2 0x3D9 JUMPI DUP1 PUSH4 0x4477C5DA EQ PUSH2 0x3F9 JUMPI PUSH2 0x286 JUMP JUMPDEST DUP1 PUSH4 0x200D2ED2 GT PUSH2 0x224 JUMPI DUP1 PUSH4 0x200D2ED2 EQ PUSH2 0x322 JUMPI DUP1 PUSH4 0x2F5F0CFB EQ PUSH2 0x344 JUMPI DUP1 PUSH4 0x31A3A506 EQ PUSH2 0x359 JUMPI DUP1 PUSH4 0x34CE998A EQ PUSH2 0x370 JUMPI DUP1 PUSH4 0x36E0CAC6 EQ PUSH2 0x385 JUMPI PUSH2 0x286 JUMP JUMPDEST DUP1 PUSH4 0x6D6E63F EQ PUSH2 0x28B JUMPI DUP1 PUSH4 0x9C12CCB EQ PUSH2 0x2B6 JUMPI DUP1 PUSH4 0x12F9B48E EQ PUSH2 0x2D8 JUMPI DUP1 PUSH4 0x183B0668 EQ PUSH2 0x2F8 JUMPI DUP1 PUSH4 0x1BA11F44 EQ PUSH2 0x30D JUMPI PUSH2 0x286 JUMP JUMPDEST CALLDATASIZE PUSH2 0x286 JUMPI PUSH1 0x40 MLOAD PUSH3 0x461BCD PUSH1 0xE5 SHL DUP2 MSTORE PUSH1 0x4 ADD PUSH2 0x27D SWAP1 PUSH2 0x272D JUMP JUMPDEST PUSH1 0x40 MLOAD DUP1 SWAP2 SUB SWAP1 REVERT JUMPDEST PUSH1 0x0 DUP1 REVERT JUMPDEST CALLVALUE DUP1 ISZERO PUSH2 0x297 JUMPI PUSH1 0x0 DUP1 REVERT JUMPDEST POP PUSH2 0x2A0 PUSH2 0x6B1 JUMP JUMPDEST PUSH1 0x40 MLOAD PUSH2 0x2AD SWAP2 SWAP1 PUSH2 0x24D6 JUMP JUMPDEST PUSH1 0x40 MLOAD DUP1 SWAP2 SUB SWAP1 RETURN JUMPDEST CALLVALUE DUP1 ISZERO PUSH2 0x2C2 JUMPI PUSH1 0x0 DUP1 REVERT JUMPDEST POP PUSH2 0x2CB PUSH2 0x6C0 JUMP JUMPDEST PUSH1 0x40 MLOAD PUSH2 0x2AD SWAP2 SWAP1 PUSH2 0x257F JUMP JUMPDEST CALLVALUE DUP1 ISZERO PUSH2 0x2E4 JUMPI PUSH1 0x0 DUP1 REVERT JUMPDEST POP PUSH2 0x2A0 PUSH2 0x2F3 CALLDATASIZE PUSH1 0x4 PUSH2 0x24BE JUMP JUMPDEST PUSH2 0x763 JUMP JUMPDEST CALLVALUE DUP1 ISZERO PUSH2 0x304 JUMPI PUSH1 0x0 DUP1 REVERT JUMPDEST POP PUSH2 0x2CB PUSH2 0x78D JUMP JUMPDEST CALLVALUE DUP1 ISZERO PUSH2 0x319 JUMPI PUSH1 0x0 DUP1 REVERT JUMPDEST POP PUSH2 0x2CB PUSH2 0x793 JUMP JUMPDEST CALLVALUE DUP1 ISZERO PUSH2 0x32E JUMPI PUSH1 0x0 DUP1 REVERT JUMPDEST POP PUSH2 0x337 PUSH2 0x799 JUMP JUMPDEST PUSH1 0x40 MLOAD PUSH2 0x2AD SWAP2 SWAP1 PUSH2 0x259F JUMP JUMPDEST CALLVALUE DUP1 ISZERO PUSH2 0x350 JUMPI PUSH1 0x0 DUP1 REVERT JUMPDEST POP PUSH2 0x2CB PUSH2 0x7A9 JUMP JUMPDEST CALLVALUE DUP1 ISZERO PUSH2 0x365 JUMPI PUSH1 0x0 DUP1 REVERT JUMPDEST POP PUSH2 0x36E PUSH2 0x7AF JUMP JUMPDEST STOP JUMPDEST CALLVALUE DUP1 ISZERO PUSH2 0x37C JUMPI PUSH1 0x0 DUP1 REVERT JUMPDEST POP PUSH2 0x2CB PUSH2 0x870 JUMP JUMPDEST CALLVALUE DUP1 ISZERO PUSH2 0x391 JUMPI PUSH1 0x0 DUP1 REVERT JUMPDEST POP PUSH2 0x2CB PUSH2 0x8C7 JUMP JUMPDEST CALLVALUE DUP1 ISZERO PUSH2 0x3A6 JUMPI PUSH1 0x0 DUP1 REVERT JUMPDEST POP PUSH2 0x2CB PUSH2 0x8CD JUMP JUMPDEST CALLVALUE DUP1 ISZERO PUSH2 0x3BB JUMPI PUSH1 0x0 DUP1 REVERT JUMPDEST POP PUSH2 0x36E PUSH2 0x8D3 JUMP JUMPDEST CALLVALUE DUP1 ISZERO PUSH2 0x3D0 JUMPI PUSH1 0x0 DUP1 REVERT JUMPDEST POP PUSH2 0x2CB PUSH2 0xB2D JUMP JUMPDEST CALLVALUE DUP1 ISZERO PUSH2 0x3E5 JUMPI PUSH1 0x0 DUP1 REVERT JUMPDEST POP PUSH2 0x36E PUSH2 0x3F4 CALLDATASIZE PUSH1 0x4 PUSH2 0x246C JUMP JUMPDEST PUSH2 0xB33 JUMP JUMPDEST CALLVALUE DUP1 ISZERO PUSH2 0x405 JUMPI PUSH1 0x0 DUP1 REVERT JUMPDEST POP PUSH2 0x36E PUSH2 0xD5A JUMP JUMPDEST CALLVALUE DUP1 ISZERO PUSH2 0x41A JUMPI PUSH1 0x0 DUP1 REVERT JUMPDEST POP PUSH2 0x2A0 PUSH2 0xE7A JUMP JUMPDEST CALLVALUE DUP1 ISZERO PUSH2 0x42F JUMPI PUSH1 0x0 DUP1 REVERT JUMPDEST POP PUSH2 0x36E PUSH2 0xE89 JUMP JUMPDEST CALLVALUE DUP1 ISZERO PUSH2 0x444 JUMPI PUSH1 0x0 DUP1 REVERT JUMPDEST POP PUSH2 0x2CB PUSH2 0x108E JUMP JUMPDEST CALLVALUE DUP1 ISZERO PUSH2 0x459 JUMPI PUSH1 0x0 DUP1 REVERT JUMPDEST POP PUSH2 0x36E PUSH2 0x1094 JUMP JUMPDEST CALLVALUE DUP1 ISZERO PUSH2 0x46E JUMPI PUSH1 0x0 DUP1 REVERT JUMPDEST POP PUSH2 0x2CB PUSH2 0x1235 JUMP JUMPDEST CALLVALUE DUP1 ISZERO PUSH2 0x483 JUMPI PUSH1 0x0 DUP1 REVERT JUMPDEST POP PUSH2 0x2CB PUSH2 0x1287 JUMP JUMPDEST CALLVALUE DUP1 ISZERO PUSH2 0x498 JUMPI PUSH1 0x0 DUP1 REVERT JUMPDEST POP PUSH2 0x4AC PUSH2 0x4A7 CALLDATASIZE PUSH1 0x4 PUSH2 0x2452 JUMP JUMPDEST PUSH2 0x128D JUMP JUMPDEST PUSH1 0x40 MLOAD PUSH2 0x2AD SWAP4 SWAP3 SWAP2 SWAP1 PUSH2 0x2C60 JUMP JUMPDEST CALLVALUE DUP1 ISZERO PUSH2 0x4C7 JUMPI PUSH1 0x0 DUP1 REVERT JUMPDEST POP PUSH2 0x4D0 PUSH2 0x12B1 JUMP JUMPDEST PUSH1 0x40 MLOAD PUSH2 0x2AD SWAP2 SWAP1 PUSH2 0x25C7 JUMP JUMPDEST CALLVALUE DUP1 ISZERO PUSH2 0x4E9 JUMPI PUSH1 0x0 DUP1 REVERT JUMPDEST POP PUSH2 0x2A0 PUSH2 0x133F JUMP JUMPDEST CALLVALUE DUP1 ISZERO PUSH2 0x4FE JUMPI PUSH1 0x0 DUP1 REVERT JUMPDEST POP PUSH2 0x4D0 PUSH2 0x134E JUMP JUMPDEST CALLVALUE DUP1 ISZERO PUSH2 0x513 JUMPI PUSH1 0x0 DUP1 REVERT JUMPDEST POP PUSH2 0x2CB PUSH2 0x135B JUMP JUMPDEST CALLVALUE DUP1 ISZERO PUSH2 0x528 JUMPI PUSH1 0x0 DUP1 REVERT JUMPDEST POP PUSH2 0x2A0 PUSH2 0x1361 JUMP JUMPDEST CALLVALUE DUP1 ISZERO PUSH2 0x53D JUMPI PUSH1 0x0 DUP1 REVERT JUMPDEST POP PUSH2 0x2A0 PUSH2 0x1370 JUMP JUMPDEST CALLVALUE DUP1 ISZERO PUSH2 0x552 JUMPI PUSH1 0x0 DUP1 REVERT JUMPDEST POP PUSH2 0x2A0 PUSH2 0x137F JUMP JUMPDEST CALLVALUE DUP1 ISZERO PUSH2 0x567 JUMPI PUSH1 0x0 DUP1 REVERT JUMPDEST POP PUSH2 0x2CB PUSH2 0x576 CALLDATASIZE PUSH1 0x4 PUSH2 0x2452 JUMP JUMPDEST PUSH2 0x138E JUMP JUMPDEST CALLVALUE DUP1 ISZERO PUSH2 0x587 JUMPI PUSH1 0x0 DUP1 REVERT JUMPDEST POP PUSH2 0x2CB PUSH2 0x1463 JUMP JUMPDEST CALLVALUE DUP1 ISZERO PUSH2 0x59C JUMPI PUSH1 0x0 DUP1 REVERT JUMPDEST POP PUSH2 0x2CB PUSH2 0x1469 JUMP JUMPDEST CALLVALUE DUP1 ISZERO PUSH2 0x5B1 JUMPI PUSH1 0x0 DUP1 REVERT JUMPDEST POP PUSH2 0x2CB PUSH2 0x146F JUMP JUMPDEST CALLVALUE DUP1 ISZERO PUSH2 0x5C6 JUMPI PUSH1 0x0 DUP1 REVERT JUMPDEST POP PUSH2 0x36E PUSH2 0x1475 JUMP JUMPDEST CALLVALUE DUP1 ISZERO PUSH2 0x5DB JUMPI PUSH1 0x0 DUP1 REVERT JUMPDEST POP PUSH2 0x5E4 PUSH2 0x189E JUMP JUMPDEST PUSH1 0x40 MLOAD PUSH2 0x2AD SWAP2 SWAP1 PUSH2 0x2527 JUMP JUMPDEST CALLVALUE DUP1 ISZERO PUSH2 0x5FD JUMPI PUSH1 0x0 DUP1 REVERT JUMPDEST POP PUSH2 0x2CB PUSH2 0x1900 JUMP JUMPDEST CALLVALUE DUP1 ISZERO PUSH2 0x612 JUMPI PUSH1 0x0 DUP1 REVERT JUMPDEST POP PUSH2 0x61B PUSH2 0x194F JUMP JUMPDEST PUSH1 0x40 MLOAD PUSH2 0x2AD SWAP2 SWAP1 PUSH2 0x2574 JUMP JUMPDEST CALLVALUE DUP1 ISZERO PUSH2 0x634 JUMPI PUSH1 0x0 DUP1 REVERT JUMPDEST POP PUSH2 0x36E PUSH2 0x195F JUMP JUMPDEST CALLVALUE DUP1 ISZERO PUSH2 0x649 JUMPI PUSH1 0x0 DUP1 REVERT JUMPDEST POP PUSH2 0x36E PUSH2 0x658 CALLDATASIZE PUSH1 0x4 PUSH2 0x24BE JUMP JUMPDEST PUSH2 0x1B77 JUMP JUMPDEST CALLVALUE DUP1 ISZERO PUSH2 0x669 JUMPI PUSH1 0x0 DUP1 REVERT JUMPDEST POP PUSH2 0x2CB PUSH2 0x1FE2 JUMP JUMPDEST CALLVALUE DUP1 ISZERO PUSH2 0x67E JUMPI PUSH1 0x0 DUP1 REVERT JUMPDEST POP PUSH2 0x2CB PUSH2 0x1FE8 JUMP JUMPDEST CALLVALUE DUP1 ISZERO PUSH2 0x693 JUMPI PUSH1 0x0 DUP1 REVERT JUMPDEST POP PUSH2 0x2CB PUSH2 0x200C JUMP JUMPDEST CALLVALUE DUP1 ISZERO PUSH2 0x6A8 JUMPI PUSH1 0x0 DUP1 REVERT JUMPDEST POP PUSH2 0x2CB PUSH2 0x202F JUMP JUMPDEST PUSH1 0x10 SLOAD PUSH1 0x1 PUSH1 0x1 PUSH1 0xA0 SHL SUB AND DUP2 JUMP JUMPDEST PUSH1 0x0 PUSH1 0x3 DUP1 SLOAD PUSH1 0x1 PUSH1 0xA0 SHL SWAP1 DIV PUSH1 0xFF AND PUSH1 0x6 DUP2 GT ISZERO PUSH2 0x6EF JUMPI PUSH4 0x4E487B71 PUSH1 0xE0 SHL PUSH1 0x0 MSTORE PUSH1 0x21 PUSH1 0x4 MSTORE PUSH1 0x24 PUSH1 0x0 REVERT JUMPDEST EQ ISZERO DUP1 ISZERO PUSH2 0x729 JUMPI POP PUSH1 0x4 PUSH1 0x3 SLOAD PUSH1 0x1 PUSH1 0xA0 SHL SWAP1 DIV PUSH1 0xFF AND PUSH1 0x6 DUP2 GT ISZERO PUSH2 0x726 JUMPI PUSH4 0x4E487B71 PUSH1 0xE0 SHL PUSH1 0x0 MSTORE PUSH1 0x21 PUSH1 0x4 MSTORE PUSH1 0x24 PUSH1 0x0 REVERT JUMPDEST EQ ISZERO JUMPDEST ISZERO PUSH2 0x736 JUMPI POP PUSH1 0x0 PUSH2 0x760 JUMP JUMPDEST PUSH1 0x0 PUSH2 0x75C PUSH2 0x753 PUSH3 0x278D00 PUSH1 0xE SLOAD PUSH2 0x216E SWAP1 SWAP2 SWAP1 PUSH4 0xFFFFFFFF AND JUMP JUMPDEST PUSH1 0xC SLOAD SWAP1 PUSH2 0x217A JUMP JUMPDEST SWAP2 POP POP JUMPDEST SWAP1 JUMP JUMPDEST PUSH1 0x17 DUP2 DUP2 SLOAD DUP2 LT PUSH2 0x773 JUMPI PUSH1 0x0 DUP1 REVERT JUMPDEST PUSH1 0x0 SWAP2 DUP3 MSTORE PUSH1 0x20 SWAP1 SWAP2 KECCAK256 ADD SLOAD PUSH1 0x1 PUSH1 0x1 PUSH1 0xA0 SHL SUB AND SWAP1 POP DUP2 JUMP JUMPDEST PUSH1 0xC SLOAD DUP2 JUMP JUMPDEST PUSH1 0x4 SLOAD DUP2 JUMP JUMPDEST PUSH1 0x3 SLOAD PUSH1 0x1 PUSH1 0xA0 SHL SWAP1 DIV PUSH1 0xFF AND DUP2 JUMP JUMPDEST PUSH1 0x7 SLOAD DUP2 JUMP JUMPDEST PUSH1 0x2 SLOAD PUSH1 0x1 PUSH1 0x1 PUSH1 0xA0 SHL SUB AND CALLER EQ PUSH2 0x7D9 JUMPI PUSH1 0x40 MLOAD PUSH3 0x461BCD PUSH1 0xE5 SHL DUP2 MSTORE PUSH1 0x4 ADD PUSH2 0x27D SWAP1 PUSH2 0x2B6E JUMP JUMPDEST PUSH1 0x0 DUP1 PUSH1 0x3 SLOAD PUSH1 0x1 PUSH1 0xA0 SHL SWAP1 DIV PUSH1 0xFF AND PUSH1 0x6 DUP2 GT ISZERO PUSH2 0x808 JUMPI PUSH4 0x4E487B71 PUSH1 0xE0 SHL PUSH1 0x0 MSTORE PUSH1 0x21 PUSH1 0x4 MSTORE PUSH1 0x24 PUSH1 0x0 REVERT JUMPDEST EQ PUSH2 0x825 JUMPI PUSH1 0x40 MLOAD PUSH3 0x461BCD PUSH1 0xE5 SHL DUP2 MSTORE PUSH1 0x4 ADD PUSH2 0x27D SWAP1 PUSH2 0x2ADA JUMP JUMPDEST PUSH2 0x82D PUSH2 0x2186 JUMP JUMPDEST PUSH1 0x3 DUP1 SLOAD PUSH1 0xFF PUSH1 0xA0 SHL NOT AND PUSH1 0x1 PUSH1 0xA0 SHL OR SWAP1 SSTORE TIMESTAMP PUSH1 0xD SSTORE PUSH1 0x40 MLOAD PUSH32 0xF3E84C4C82E83C0BDC90064809179D950D758F72209C55F7C851258B6B64D9AB SWAP1 PUSH1 0x0 SWAP1 LOG1 POP JUMP JUMPDEST PUSH1 0x0 DUP1 PUSH2 0x8A7 PUSH1 0xC PUSH2 0x8A1 PUSH2 0x2710 PUSH2 0x8A1 PUSH1 0xA SLOAD PUSH2 0x89B PUSH1 0x7 SLOAD PUSH1 0x4 SLOAD PUSH2 0x216E SWAP1 SWAP2 SWAP1 PUSH4 0xFFFFFFFF AND JUMP JUMPDEST SWAP1 PUSH2 0x216E JUMP JUMPDEST SWAP1 PUSH2 0x23FE JUMP JUMPDEST SWAP1 POP PUSH1 0x0 PUSH2 0x8C0 DUP3 PUSH1 0x4 SLOAD PUSH2 0x217A SWAP1 SWAP2 SWAP1 PUSH4 0xFFFFFFFF AND JUMP JUMPDEST SWAP3 POP POP POP SWAP1 JUMP JUMPDEST PUSH1 0x8 SLOAD DUP2 JUMP JUMPDEST PUSH1 0xA SLOAD DUP2 JUMP JUMPDEST PUSH1 0x1 SLOAD PUSH1 0x1 PUSH1 0x1 PUSH1 0xA0 SHL SUB AND CALLER EQ PUSH2 0x8FD JUMPI PUSH1 0x40 MLOAD PUSH3 0x461BCD PUSH1 0xE5 SHL DUP2 MSTORE PUSH1 0x4 ADD PUSH2 0x27D SWAP1 PUSH2 0x29F1 JUMP JUMPDEST PUSH2 0x905 PUSH2 0x240A JUMP JUMPDEST PUSH2 0x90D PUSH2 0x2186 JUMP JUMPDEST PUSH1 0x3 DUP1 SLOAD PUSH1 0x1 PUSH1 0xA0 SHL SWAP1 DIV PUSH1 0xFF AND PUSH1 0x6 DUP2 GT ISZERO PUSH2 0x93A JUMPI PUSH4 0x4E487B71 PUSH1 0xE0 SHL PUSH1 0x0 MSTORE PUSH1 0x21 PUSH1 0x4 MSTORE PUSH1 0x24 PUSH1 0x0 REVERT JUMPDEST EQ DUP1 PUSH2 0x971 JUMPI POP PUSH1 0x4 PUSH1 0x3 SLOAD PUSH1 0x1 PUSH1 0xA0 SHL SWAP1 DIV PUSH1 0xFF AND PUSH1 0x6 DUP2 GT ISZERO PUSH2 0x96F JUMPI PUSH4 0x4E487B71 PUSH1 0xE0 SHL PUSH1 0x0 MSTORE PUSH1 0x21 PUSH1 0x4 MSTORE PUSH1 0x24 PUSH1 0x0 REVERT JUMPDEST EQ JUMPDEST PUSH2 0x98D JUMPI PUSH1 0x40 MLOAD PUSH3 0x461BCD PUSH1 0xE5 SHL DUP2 MSTORE PUSH1 0x4 ADD PUSH2 0x27D SWAP1 PUSH2 0x261A JUMP JUMPDEST PUSH1 0x0 PUSH2 0x997 PUSH2 0x1FE8 JUMP JUMPDEST PUSH1 0x3 SLOAD PUSH1 0x40 MLOAD PUSH4 0x23B872DD PUSH1 0xE0 SHL DUP2 MSTORE SWAP2 SWAP3 POP PUSH1 0x1 PUSH1 0x1 PUSH1 0xA0 SHL SUB AND SWAP1 PUSH4 0x23B872DD SWAP1 PUSH2 0x9CC SWAP1 CALLER SWAP1 ADDRESS SWAP1 DUP7 SWAP1 PUSH1 0x4 ADD PUSH2 0x24EA JUMP JUMPDEST PUSH1 0x20 PUSH1 0x40 MLOAD DUP1 DUP4 SUB DUP2 PUSH1 0x0 DUP8 DUP1 EXTCODESIZE ISZERO DUP1 ISZERO PUSH2 0x9E6 JUMPI PUSH1 0x0 DUP1 REVERT JUMPDEST POP GAS CALL ISZERO DUP1 ISZERO PUSH2 0x9FA JUMPI RETURNDATASIZE PUSH1 0x0 DUP1 RETURNDATACOPY RETURNDATASIZE PUSH1 0x0 REVERT JUMPDEST POP POP POP POP PUSH1 0x40 MLOAD RETURNDATASIZE PUSH1 0x1F NOT PUSH1 0x1F DUP3 ADD AND DUP3 ADD DUP1 PUSH1 0x40 MSTORE POP DUP2 ADD SWAP1 PUSH2 0xA1E SWAP2 SWAP1 PUSH2 0x249E JUMP JUMPDEST PUSH2 0xA3A JUMPI PUSH1 0x40 MLOAD PUSH3 0x461BCD PUSH1 0xE5 SHL DUP2 MSTORE PUSH1 0x4 ADD PUSH2 0x27D SWAP1 PUSH2 0x27CE JUMP JUMPDEST PUSH1 0x6 SLOAD PUSH2 0xA47 SWAP1 DUP3 PUSH2 0x217A JUMP JUMPDEST PUSH1 0x6 SSTORE PUSH1 0xE SLOAD PUSH2 0xA58 SWAP1 PUSH1 0x1 PUSH2 0x217A JUMP JUMPDEST PUSH1 0xE SSTORE PUSH1 0x4 PUSH1 0x3 SLOAD PUSH1 0x1 PUSH1 0xA0 SHL SWAP1 DIV PUSH1 0xFF AND PUSH1 0x6 DUP2 GT ISZERO PUSH2 0xA89 JUMPI PUSH4 0x4E487B71 PUSH1 0xE0 SHL PUSH1 0x0 MSTORE PUSH1 0x21 PUSH1 0x4 MSTORE PUSH1 0x24 PUSH1 0x0 REVERT JUMPDEST EQ ISZERO PUSH2 0xAA3 JUMPI PUSH1 0x3 DUP1 SLOAD PUSH1 0xFF PUSH1 0xA0 SHL NOT AND PUSH1 0x3 PUSH1 0xA0 SHL OR SWAP1 SSTORE JUMPDEST PUSH32 0x4002DBA848920F438092E08090CFB5FC47144C22704268B402C9553A1B5ADFE6 DUP2 PUSH1 0x40 MLOAD PUSH2 0xAD2 SWAP2 SWAP1 PUSH2 0x257F JUMP JUMPDEST PUSH1 0x40 MLOAD DUP1 SWAP2 SUB SWAP1 LOG1 PUSH1 0xA SLOAD PUSH1 0xE SLOAD LT PUSH2 0xB22 JUMPI PUSH1 0x3 DUP1 SLOAD PUSH1 0xFF PUSH1 0xA0 SHL NOT AND PUSH1 0x3 PUSH1 0xA1 SHL OR SWAP1 SSTORE PUSH1 0x40 MLOAD PUSH32 0x409FCED1B85AE32A29FB1E18894D8361A5F2653DC27ADF7102D86175C2901D7C SWAP1 PUSH1 0x0 SWAP1 LOG1 JUMPDEST POP PUSH2 0xB2B PUSH2 0x2434 JUMP JUMPDEST JUMP JUMPDEST PUSH1 0x9 SLOAD DUP2 JUMP JUMPDEST PUSH1 0x2 SLOAD PUSH1 0x1 PUSH1 0x1 PUSH1 0xA0 SHL SUB AND CALLER EQ PUSH2 0xB5D JUMPI PUSH1 0x40 MLOAD PUSH3 0x461BCD PUSH1 0xE5 SHL DUP2 MSTORE PUSH1 0x4 ADD PUSH2 0x27D SWAP1 PUSH2 0x2B6E JUMP JUMPDEST DUP1 PUSH1 0x1 PUSH1 0x1 PUSH1 0xA0 SHL SUB AND DUP3 PUSH1 0x1 PUSH1 0x1 PUSH1 0xA0 SHL SUB AND EQ ISZERO PUSH2 0xB8F JUMPI PUSH1 0x40 MLOAD PUSH3 0x461BCD PUSH1 0xE5 SHL DUP2 MSTORE PUSH1 0x4 ADD PUSH2 0x27D SWAP1 PUSH2 0x29BA JUMP JUMPDEST PUSH1 0x1 PUSH1 0x1 PUSH1 0xA0 SHL SUB DUP3 AND PUSH1 0x0 SWAP1 DUP2 MSTORE PUSH1 0x16 PUSH1 0x20 MSTORE PUSH1 0x40 SWAP1 KECCAK256 SLOAD PUSH2 0xBC4 JUMPI PUSH1 0x40 MLOAD PUSH3 0x461BCD PUSH1 0xE5 SHL DUP2 MSTORE PUSH1 0x4 ADD PUSH2 0x27D SWAP1 PUSH2 0x2688 JUMP JUMPDEST PUSH1 0x1 PUSH1 0x1 PUSH1 0xA0 SHL SUB DUP2 AND PUSH1 0x0 SWAP1 DUP2 MSTORE PUSH1 0x16 PUSH1 0x20 MSTORE PUSH1 0x40 SWAP1 KECCAK256 SLOAD ISZERO PUSH2 0xBFA JUMPI PUSH1 0x40 MLOAD PUSH3 0x461BCD PUSH1 0xE5 SHL DUP2 MSTORE PUSH1 0x4 ADD PUSH2 0x27D SWAP1 PUSH2 0x292A JUMP JUMPDEST PUSH1 0x1 PUSH1 0x1 PUSH1 0xA0 SHL SUB DUP1 DUP4 AND PUSH1 0x0 DUP2 DUP2 MSTORE PUSH1 0x16 PUSH1 0x20 MSTORE PUSH1 0x40 DUP1 DUP3 KECCAK256 SWAP4 DUP6 AND DUP3 MSTORE DUP2 KECCAK256 DUP4 SLOAD DUP2 SSTORE PUSH1 0x1 DUP1 DUP6 ADD DUP1 SLOAD SWAP2 DUP4 ADD SWAP2 SWAP1 SWAP2 SSTORE PUSH1 0x2 DUP1 DUP7 ADD DUP1 SLOAD SWAP2 SWAP1 SWAP4 ADD DUP1 SLOAD PUSH1 0xFF SWAP1 SWAP3 AND ISZERO ISZERO PUSH1 0xFF NOT SWAP3 DUP4 AND OR SWAP1 SSTORE SWAP4 DUP4 MSTORE SWAP4 DUP3 SWAP1 SSTORE SWAP3 DUP2 SWAP1 SSTORE DUP3 SLOAD SWAP1 SWAP2 AND SWAP1 SWAP2 SSTORE JUMPDEST PUSH1 0x17 SLOAD DUP2 LT ISZERO PUSH2 0xD15 JUMPI DUP3 PUSH1 0x1 PUSH1 0x1 PUSH1 0xA0 SHL SUB AND PUSH1 0x17 DUP3 DUP2 SLOAD DUP2 LT PUSH2 0xC93 JUMPI PUSH4 0x4E487B71 PUSH1 0xE0 SHL PUSH1 0x0 MSTORE PUSH1 0x32 PUSH1 0x4 MSTORE PUSH1 0x24 PUSH1 0x0 REVERT JUMPDEST PUSH1 0x0 SWAP2 DUP3 MSTORE PUSH1 0x20 SWAP1 SWAP2 KECCAK256 ADD SLOAD PUSH1 0x1 PUSH1 0x1 PUSH1 0xA0 SHL SUB AND EQ ISZERO PUSH2 0xD03 JUMPI DUP2 PUSH1 0x17 DUP3 DUP2 SLOAD DUP2 LT PUSH2 0xCD0 JUMPI PUSH4 0x4E487B71 PUSH1 0xE0 SHL PUSH1 0x0 MSTORE PUSH1 0x32 PUSH1 0x4 MSTORE PUSH1 0x24 PUSH1 0x0 REVERT JUMPDEST SWAP1 PUSH1 0x0 MSTORE PUSH1 0x20 PUSH1 0x0 KECCAK256 ADD PUSH1 0x0 PUSH2 0x100 EXP DUP2 SLOAD DUP2 PUSH1 0x1 PUSH1 0x1 PUSH1 0xA0 SHL SUB MUL NOT AND SWAP1 DUP4 PUSH1 0x1 PUSH1 0x1 PUSH1 0xA0 SHL SUB AND MUL OR SWAP1 SSTORE POP PUSH2 0xD15 JUMP JUMPDEST DUP1 PUSH2 0xD0D DUP2 PUSH2 0x2D21 JUMP JUMPDEST SWAP2 POP POP PUSH2 0xC5E JUMP JUMPDEST POP DUP1 PUSH1 0x1 PUSH1 0x1 PUSH1 0xA0 SHL SUB AND DUP3 PUSH1 0x1 PUSH1 0x1 PUSH1 0xA0 SHL SUB AND PUSH32 0x1EB85C8FA2E7E0941BB56CC0D62E217D75AAB70796408DDBDBC642A904B82F62 PUSH1 0x40 MLOAD PUSH1 0x40 MLOAD DUP1 SWAP2 SUB SWAP1 LOG3 POP POP JUMP JUMPDEST PUSH1 0x2 SLOAD PUSH1 0x1 PUSH1 0x1 PUSH1 0xA0 SHL SUB AND CALLER EQ PUSH2 0xD84 JUMPI PUSH1 0x40 MLOAD PUSH3 0x461BCD PUSH1 0xE5 SHL DUP2 MSTORE PUSH1 0x4 ADD PUSH2 0x27D SWAP1 PUSH2 0x2B6E JUMP JUMPDEST PUSH2 0xD8C PUSH2 0x240A JUMP JUMPDEST PUSH1 0x0 PUSH1 0x3 SLOAD PUSH1 0x1 PUSH1 0xA0 SHL SWAP1 DIV PUSH1 0xFF AND PUSH1 0x6 DUP2 GT ISZERO PUSH2 0xDBA JUMPI PUSH4 0x4E487B71 PUSH1 0xE0 SHL PUSH1 0x0 MSTORE PUSH1 0x21 PUSH1 0x4 MSTORE PUSH1 0x24 PUSH1 0x0 REVERT JUMPDEST EQ DUP1 PUSH2 0xDF1 JUMPI POP PUSH1 0x1 PUSH1 0x3 SLOAD PUSH1 0x1 PUSH1 0xA0 SHL SWAP1 DIV PUSH1 0xFF AND PUSH1 0x6 DUP2 GT ISZERO PUSH2 0xDEF JUMPI PUSH4 0x4E487B71 PUSH1 0xE0 SHL PUSH1 0x0 MSTORE PUSH1 0x21 PUSH1 0x4 MSTORE PUSH1 0x24 PUSH1 0x0 REVERT JUMPDEST EQ JUMPDEST PUSH2 0xE0D JUMPI PUSH1 0x40 MLOAD PUSH3 0x461BCD PUSH1 0xE5 SHL DUP2 MSTORE PUSH1 0x4 ADD PUSH2 0x27D SWAP1 PUSH2 0x2877 JUMP JUMPDEST PUSH1 0x3 DUP1 SLOAD PUSH1 0xFF PUSH1 0xA0 SHL NOT AND PUSH1 0x1 PUSH1 0xA1 SHL OR SWAP1 SSTORE PUSH1 0x40 MLOAD PUSH32 0x362F189F5BF8FCF98B5A131743FC21DC5F5B13A3115367C7A6616B1E79711F71 SWAP1 PUSH1 0x0 SWAP1 LOG1 PUSH1 0x40 MLOAD PUSH32 0x550A04E033AB49137D0F1000C4AB8717E7F011102CE92D50952C0272222A94A6 SWAP1 PUSH1 0x0 SWAP1 LOG1 PUSH2 0xB2B PUSH2 0x2434 JUMP JUMPDEST PUSH1 0x11 SLOAD PUSH1 0x1 PUSH1 0x1 PUSH1 0xA0 SHL SUB AND DUP2 JUMP JUMPDEST PUSH2 0xE91 PUSH2 0x240A JUMP JUMPDEST PUSH2 0xE99 PUSH2 0x2186 JUMP JUMPDEST PUSH1 0x3 DUP1 SLOAD PUSH1 0x1 PUSH1 0xA0 SHL SWAP1 DIV PUSH1 0xFF AND PUSH1 0x6 DUP2 GT ISZERO PUSH2 0xEC6 JUMPI PUSH4 0x4E487B71 PUSH1 0xE0 SHL PUSH1 0x0 MSTORE PUSH1 0x21 PUSH1 0x4 MSTORE PUSH1 0x24 PUSH1 0x0 REVERT JUMPDEST EQ DUP1 PUSH2 0xEFD JUMPI POP PUSH1 0x6 PUSH1 0x3 SLOAD PUSH1 0x1 PUSH1 0xA0 SHL SWAP1 DIV PUSH1 0xFF AND PUSH1 0x6 DUP2 GT ISZERO PUSH2 0xEFB JUMPI PUSH4 0x4E487B71 PUSH1 0xE0 SHL PUSH1 0x0 MSTORE PUSH1 0x21 PUSH1 0x4 MSTORE PUSH1 0x24 PUSH1 0x0 REVERT JUMPDEST EQ JUMPDEST PUSH2 0xF19 JUMPI PUSH1 0x40 MLOAD PUSH3 0x461BCD PUSH1 0xE5 SHL DUP2 MSTORE PUSH1 0x4 ADD PUSH2 0x27D SWAP1 PUSH2 0x27FD JUMP JUMPDEST CALLER PUSH1 0x0 SWAP1 DUP2 MSTORE PUSH1 0x16 PUSH1 0x20 MSTORE PUSH1 0x40 SWAP1 KECCAK256 DUP1 SLOAD PUSH2 0xF46 JUMPI PUSH1 0x40 MLOAD PUSH3 0x461BCD PUSH1 0xE5 SHL DUP2 MSTORE PUSH1 0x4 ADD PUSH2 0x27D SWAP1 PUSH2 0x276E JUMP JUMPDEST PUSH1 0x0 PUSH2 0xF51 CALLER PUSH2 0x138E JUMP JUMPDEST SWAP1 POP PUSH1 0x0 PUSH2 0xF6C DUP4 PUSH1 0x1 ADD SLOAD DUP4 PUSH2 0x215B SWAP1 SWAP2 SWAP1 PUSH4 0xFFFFFFFF AND JUMP JUMPDEST SWAP1 POP PUSH1 0x0 DUP2 GT PUSH2 0xF8E JUMPI PUSH1 0x40 MLOAD PUSH3 0x461BCD PUSH1 0xE5 SHL DUP2 MSTORE PUSH1 0x4 ADD PUSH2 0x27D SWAP1 PUSH2 0x265E JUMP JUMPDEST PUSH1 0x1 DUP4 ADD SLOAD PUSH2 0xF9D SWAP1 DUP3 PUSH2 0x217A JUMP JUMPDEST PUSH1 0x1 DUP5 ADD SSTORE PUSH1 0x3 SLOAD PUSH1 0x40 MLOAD PUSH4 0xA9059CBB PUSH1 0xE0 SHL DUP2 MSTORE PUSH1 0x1 PUSH1 0x1 PUSH1 0xA0 SHL SUB SWAP1 SWAP2 AND SWAP1 PUSH4 0xA9059CBB SWAP1 PUSH2 0xFD4 SWAP1 CALLER SWAP1 DUP6 SWAP1 PUSH1 0x4 ADD PUSH2 0x250E JUMP JUMPDEST PUSH1 0x20 PUSH1 0x40 MLOAD DUP1 DUP4 SUB DUP2 PUSH1 0x0 DUP8 DUP1 EXTCODESIZE ISZERO DUP1 ISZERO PUSH2 0xFEE JUMPI PUSH1 0x0 DUP1 REVERT JUMPDEST POP GAS CALL ISZERO DUP1 ISZERO PUSH2 0x1002 JUMPI RETURNDATASIZE PUSH1 0x0 DUP1 RETURNDATACOPY RETURNDATASIZE PUSH1 0x0 REVERT JUMPDEST POP POP POP POP PUSH1 0x40 MLOAD RETURNDATASIZE PUSH1 0x1F NOT PUSH1 0x1F DUP3 ADD AND DUP3 ADD DUP1 PUSH1 0x40 MSTORE POP DUP2 ADD SWAP1 PUSH2 0x1026 SWAP2 SWAP1 PUSH2 0x249E JUMP JUMPDEST PUSH2 0x1042 JUMPI PUSH1 0x40 MLOAD PUSH3 0x461BCD PUSH1 0xE5 SHL DUP2 MSTORE PUSH1 0x4 ADD PUSH2 0x27D SWAP1 PUSH2 0x27CE JUMP JUMPDEST CALLER PUSH1 0x1 PUSH1 0x1 PUSH1 0xA0 SHL SUB AND PUSH32 0xD8138F8A3F377C5259CA548E70E4C2DE94F129F5A11036A15B69513CBA2B426A DUP3 PUSH1 0x40 MLOAD PUSH2 0x107B SWAP2 SWAP1 PUSH2 0x257F JUMP JUMPDEST PUSH1 0x40 MLOAD DUP1 SWAP2 SUB SWAP1 LOG2 POP POP POP PUSH2 0xB2B PUSH2 0x2434 JUMP JUMPDEST PUSH1 0xD SLOAD DUP2 JUMP JUMPDEST PUSH2 0x109C PUSH2 0x240A JUMP JUMPDEST PUSH2 0x10A4 PUSH2 0x2186 JUMP JUMPDEST PUSH1 0x2 PUSH1 0x3 SLOAD PUSH1 0x1 PUSH1 0xA0 SHL SWAP1 DIV PUSH1 0xFF AND PUSH1 0x6 DUP2 GT ISZERO PUSH2 0x10D2 JUMPI PUSH4 0x4E487B71 PUSH1 0xE0 SHL PUSH1 0x0 MSTORE PUSH1 0x21 PUSH1 0x4 MSTORE PUSH1 0x24 PUSH1 0x0 REVERT JUMPDEST EQ PUSH2 0x10EF JUMPI PUSH1 0x40 MLOAD PUSH3 0x461BCD PUSH1 0xE5 SHL DUP2 MSTORE PUSH1 0x4 ADD PUSH2 0x27D SWAP1 PUSH2 0x2BB6 JUMP JUMPDEST CALLER PUSH1 0x0 SWAP1 DUP2 MSTORE PUSH1 0x16 PUSH1 0x20 MSTORE PUSH1 0x40 SWAP1 KECCAK256 DUP1 SLOAD PUSH2 0x111C JUMPI PUSH1 0x40 MLOAD PUSH3 0x461BCD PUSH1 0xE5 SHL DUP2 MSTORE PUSH1 0x4 ADD PUSH2 0x27D SWAP1 PUSH2 0x276E JUMP JUMPDEST PUSH1 0x2 DUP2 ADD SLOAD PUSH1 0xFF AND ISZERO PUSH2 0x1141 JUMPI PUSH1 0x40 MLOAD PUSH3 0x461BCD PUSH1 0xE5 SHL DUP2 MSTORE PUSH1 0x4 ADD PUSH2 0x27D SWAP1 PUSH2 0x2900 JUMP JUMPDEST PUSH1 0x2 DUP2 ADD DUP1 SLOAD PUSH1 0xFF NOT AND PUSH1 0x1 OR SWAP1 SSTORE PUSH1 0x3 SLOAD DUP2 SLOAD PUSH1 0x40 MLOAD PUSH4 0xA9059CBB PUSH1 0xE0 SHL DUP2 MSTORE PUSH1 0x1 PUSH1 0x1 PUSH1 0xA0 SHL SUB SWAP1 SWAP3 AND SWAP2 PUSH4 0xA9059CBB SWAP2 PUSH2 0x1183 SWAP2 CALLER SWAP2 SWAP1 PUSH1 0x4 ADD PUSH2 0x250E JUMP JUMPDEST PUSH1 0x20 PUSH1 0x40 MLOAD DUP1 DUP4 SUB DUP2 PUSH1 0x0 DUP8 DUP1 EXTCODESIZE ISZERO DUP1 ISZERO PUSH2 0x119D JUMPI PUSH1 0x0 DUP1 REVERT JUMPDEST POP GAS CALL ISZERO DUP1 ISZERO PUSH2 0x11B1 JUMPI RETURNDATASIZE PUSH1 0x0 DUP1 RETURNDATACOPY RETURNDATASIZE PUSH1 0x0 REVERT JUMPDEST POP POP POP POP PUSH1 0x40 MLOAD RETURNDATASIZE PUSH1 0x1F NOT PUSH1 0x1F DUP3 ADD AND DUP3 ADD DUP1 PUSH1 0x40 MSTORE POP DUP2 ADD SWAP1 PUSH2 0x11D5 SWAP2 SWAP1 PUSH2 0x249E JUMP JUMPDEST PUSH2 0x11F1 JUMPI PUSH1 0x40 MLOAD PUSH3 0x461BCD PUSH1 0xE5 SHL DUP2 MSTORE PUSH1 0x4 ADD PUSH2 0x27D SWAP1 PUSH2 0x27CE JUMP JUMPDEST DUP1 SLOAD PUSH1 0x40 MLOAD CALLER SWAP2 PUSH32 0xD7DEE2702D63AD89917B6A4DA9981C90C4D24F8C2BDFD64C604ECAE57D8D0651 SWAP2 PUSH2 0x1224 SWAP2 SWAP1 PUSH2 0x257F JUMP JUMPDEST PUSH1 0x40 MLOAD DUP1 SWAP2 SUB SWAP1 LOG2 POP PUSH2 0xB2B PUSH2 0x2434 JUMP JUMPDEST PUSH1 0x0 DUP1 PUSH2 0x1240 PUSH2 0x870 JUMP JUMPDEST PUSH1 0xE SLOAD PUSH1 0xA SLOAD SWAP2 SWAP3 POP SWAP1 PUSH1 0x0 SWAP1 PUSH2 0x125B SWAP1 PUSH2 0x8A1 DUP6 DUP6 PUSH2 0x216E JUMP JUMPDEST SWAP1 POP DUP3 PUSH1 0x6 SLOAD LT PUSH2 0x1272 JUMPI PUSH1 0x0 SWAP4 POP POP POP POP PUSH2 0x760 JUMP JUMPDEST PUSH1 0x0 PUSH2 0x127E DUP5 DUP4 PUSH2 0x215B JUMP JUMPDEST SWAP5 POP POP POP POP POP SWAP1 JUMP JUMPDEST PUSH1 0x13 SLOAD DUP2 JUMP JUMPDEST PUSH1 0x16 PUSH1 0x20 MSTORE PUSH1 0x0 SWAP1 DUP2 MSTORE PUSH1 0x40 SWAP1 KECCAK256 DUP1 SLOAD PUSH1 0x1 DUP3 ADD SLOAD PUSH1 0x2 SWAP1 SWAP3 ADD SLOAD SWAP1 SWAP2 SWAP1 PUSH1 0xFF AND DUP4 JUMP JUMPDEST PUSH1 0x15 DUP1 SLOAD PUSH2 0x12BE SWAP1 PUSH2 0x2CE6 JUMP JUMPDEST DUP1 PUSH1 0x1F ADD PUSH1 0x20 DUP1 SWAP2 DIV MUL PUSH1 0x20 ADD PUSH1 0x40 MLOAD SWAP1 DUP2 ADD PUSH1 0x40 MSTORE DUP1 SWAP3 SWAP2 SWAP1 DUP2 DUP2 MSTORE PUSH1 0x20 ADD DUP3 DUP1 SLOAD PUSH2 0x12EA SWAP1 PUSH2 0x2CE6 JUMP JUMPDEST DUP1 ISZERO PUSH2 0x1337 JUMPI DUP1 PUSH1 0x1F LT PUSH2 0x130C JUMPI PUSH2 0x100 DUP1 DUP4 SLOAD DIV MUL DUP4 MSTORE SWAP2 PUSH1 0x20 ADD SWAP2 PUSH2 0x1337 JUMP JUMPDEST DUP3 ADD SWAP2 SWAP1 PUSH1 0x0 MSTORE PUSH1 0x20 PUSH1 0x0 KECCAK256 SWAP1 JUMPDEST DUP2 SLOAD DUP2 MSTORE SWAP1 PUSH1 0x1 ADD SWAP1 PUSH1 0x20 ADD DUP1 DUP4 GT PUSH2 0x131A JUMPI DUP3 SWAP1 SUB PUSH1 0x1F AND DUP3 ADD SWAP2 JUMPDEST POP POP POP POP POP DUP2 JUMP JUMPDEST PUSH1 0x3 SLOAD PUSH1 0x1 PUSH1 0x1 PUSH1 0xA0 SHL SUB AND DUP2 JUMP JUMPDEST PUSH1 0x14 DUP1 SLOAD PUSH2 0x12BE SWAP1 PUSH2 0x2CE6 JUMP JUMPDEST PUSH1 0xB SLOAD DUP2 JUMP JUMPDEST PUSH1 0x12 SLOAD PUSH1 0x1 PUSH1 0x1 PUSH1 0xA0 SHL SUB AND DUP2 JUMP JUMPDEST PUSH1 0x1 SLOAD PUSH1 0x1 PUSH1 0x1 PUSH1 0xA0 SHL SUB AND DUP2 JUMP JUMPDEST PUSH1 0x2 SLOAD PUSH1 0x1 PUSH1 0x1 PUSH1 0xA0 SHL SUB AND DUP2 JUMP JUMPDEST PUSH1 0x0 PUSH1 0x3 DUP1 SLOAD PUSH1 0x1 PUSH1 0xA0 SHL SWAP1 DIV PUSH1 0xFF AND PUSH1 0x6 DUP2 GT ISZERO PUSH2 0x13BD JUMPI PUSH4 0x4E487B71 PUSH1 0xE0 SHL PUSH1 0x0 MSTORE PUSH1 0x21 PUSH1 0x4 MSTORE PUSH1 0x24 PUSH1 0x0 REVERT JUMPDEST LT ISZERO PUSH2 0x13CB JUMPI POP PUSH1 0x0 PUSH2 0x145E JUMP JUMPDEST PUSH1 0x1 PUSH1 0x1 PUSH1 0xA0 SHL SUB DUP3 AND PUSH1 0x0 SWAP1 DUP2 MSTORE PUSH1 0x16 PUSH1 0x20 MSTORE PUSH1 0x40 SWAP1 KECCAK256 DUP1 SLOAD PUSH2 0x13F3 JUMPI PUSH1 0x0 SWAP2 POP POP PUSH2 0x145E JUMP JUMPDEST PUSH1 0x5 SLOAD DUP2 SLOAD PUSH1 0x0 SWAP2 PUSH2 0x1411 SWAP2 PUSH2 0x8A1 SWAP1 PUSH8 0xDE0B6B3A7640000 PUSH2 0x216E JUMP JUMPDEST PUSH1 0x6 SLOAD SWAP1 SWAP2 POP PUSH1 0x0 PUSH2 0x142F PUSH8 0xDE0B6B3A7640000 PUSH2 0x8A1 DUP5 DUP7 PUSH2 0x216E JUMP JUMPDEST PUSH1 0x1 DUP6 ADD SLOAD SWAP1 SWAP2 POP DUP1 DUP3 GT PUSH2 0x144C JUMPI PUSH1 0x0 SWAP6 POP POP POP POP POP POP PUSH2 0x145E JUMP JUMPDEST PUSH2 0x1456 DUP3 DUP3 PUSH2 0x215B JUMP JUMPDEST SWAP6 POP POP POP POP POP POP JUMPDEST SWAP2 SWAP1 POP JUMP JUMPDEST PUSH1 0xF SLOAD DUP2 JUMP JUMPDEST PUSH1 0x6 SLOAD DUP2 JUMP JUMPDEST PUSH1 0x5 SLOAD DUP2 JUMP JUMPDEST PUSH1 0x1 SLOAD PUSH1 0x1 PUSH1 0x1 PUSH1 0xA0 SHL SUB AND CALLER EQ PUSH2 0x149F JUMPI PUSH1 0x40 MLOAD PUSH3 0x461BCD PUSH1 0xE5 SHL DUP2 MSTORE PUSH1 0x4 ADD PUSH2 0x27D SWAP1 PUSH2 0x29F1 JUMP JUMPDEST PUSH1 0x1 DUP1 PUSH1 0x3 SLOAD PUSH1 0x1 PUSH1 0xA0 SHL SWAP1 DIV PUSH1 0xFF AND PUSH1 0x6 DUP2 GT ISZERO PUSH2 0x14CE JUMPI PUSH4 0x4E487B71 PUSH1 0xE0 SHL PUSH1 0x0 MSTORE PUSH1 0x21 PUSH1 0x4 MSTORE PUSH1 0x24 PUSH1 0x0 REVERT JUMPDEST EQ PUSH2 0x14EB JUMPI PUSH1 0x40 MLOAD PUSH3 0x461BCD PUSH1 0xE5 SHL DUP2 MSTORE PUSH1 0x4 ADD PUSH2 0x27D SWAP1 PUSH2 0x2ADA JUMP JUMPDEST PUSH2 0x14F3 PUSH2 0x240A JUMP JUMPDEST PUSH2 0x14FB PUSH2 0x2186 JUMP JUMPDEST PUSH1 0x1 PUSH1 0x3 SLOAD PUSH1 0x1 PUSH1 0xA0 SHL SWAP1 DIV PUSH1 0xFF AND PUSH1 0x6 DUP2 GT ISZERO PUSH2 0x1529 JUMPI PUSH4 0x4E487B71 PUSH1 0xE0 SHL PUSH1 0x0 MSTORE PUSH1 0x21 PUSH1 0x4 MSTORE PUSH1 0x24 PUSH1 0x0 REVERT JUMPDEST EQ PUSH2 0x1546 JUMPI PUSH1 0x40 MLOAD PUSH3 0x461BCD PUSH1 0xE5 SHL DUP2 MSTORE PUSH1 0x4 ADD PUSH2 0x27D SWAP1 PUSH2 0x2A6C JUMP JUMPDEST PUSH1 0x0 PUSH2 0x1565 PUSH2 0x2710 PUSH2 0x8A1 PUSH2 0x1F4 PUSH1 0x4 SLOAD PUSH2 0x216E SWAP1 SWAP2 SWAP1 PUSH4 0xFFFFFFFF AND JUMP JUMPDEST SWAP1 POP PUSH1 0x0 PUSH2 0x1586 PUSH2 0x2710 PUSH2 0x8A1 PUSH2 0x12C PUSH1 0x4 SLOAD PUSH2 0x216E SWAP1 SWAP2 SWAP1 PUSH4 0xFFFFFFFF AND JUMP JUMPDEST PUSH1 0xF SLOAD SWAP1 SWAP2 POP ISZERO PUSH2 0x1636 JUMPI PUSH1 0x3 SLOAD PUSH1 0x10 SLOAD PUSH1 0xF SLOAD PUSH1 0x40 MLOAD PUSH4 0xA9059CBB PUSH1 0xE0 SHL DUP2 MSTORE PUSH1 0x1 PUSH1 0x1 PUSH1 0xA0 SHL SUB SWAP4 DUP5 AND SWAP4 PUSH4 0xA9059CBB SWAP4 PUSH2 0x15C8 SWAP4 SWAP2 AND SWAP2 PUSH1 0x4 ADD PUSH2 0x250E JUMP JUMPDEST PUSH1 0x20 PUSH1 0x40 MLOAD DUP1 DUP4 SUB DUP2 PUSH1 0x0 DUP8 DUP1 EXTCODESIZE ISZERO DUP1 ISZERO PUSH2 0x15E2 JUMPI PUSH1 0x0 DUP1 REVERT JUMPDEST POP GAS CALL ISZERO DUP1 ISZERO PUSH2 0x15F6 JUMPI RETURNDATASIZE PUSH1 0x0 DUP1 RETURNDATACOPY RETURNDATASIZE PUSH1 0x0 REVERT JUMPDEST POP POP POP POP PUSH1 0x40 MLOAD RETURNDATASIZE PUSH1 0x1F NOT PUSH1 0x1F DUP3 ADD AND DUP3 ADD DUP1 PUSH1 0x40 MSTORE POP DUP2 ADD SWAP1 PUSH2 0x161A SWAP2 SWAP1 PUSH2 0x249E JUMP JUMPDEST PUSH2 0x1636 JUMPI PUSH1 0x40 MLOAD PUSH3 0x461BCD PUSH1 0xE5 SHL DUP2 MSTORE PUSH1 0x4 ADD PUSH2 0x27D SWAP1 PUSH2 0x2797 JUMP JUMPDEST PUSH1 0x3 SLOAD PUSH1 0x11 SLOAD PUSH1 0x40 MLOAD PUSH4 0xA9059CBB PUSH1 0xE0 SHL DUP2 MSTORE PUSH1 0x1 PUSH1 0x1 PUSH1 0xA0 SHL SUB SWAP3 DUP4 AND SWAP3 PUSH4 0xA9059CBB SWAP3 PUSH2 0x166C SWAP3 SWAP2 AND SWAP1 DUP7 SWAP1 PUSH1 0x4 ADD PUSH2 0x250E JUMP JUMPDEST PUSH1 0x20 PUSH1 0x40 MLOAD DUP1 DUP4 SUB DUP2 PUSH1 0x0 DUP8 DUP1 EXTCODESIZE ISZERO DUP1 ISZERO PUSH2 0x1686 JUMPI PUSH1 0x0 DUP1 REVERT JUMPDEST POP GAS CALL ISZERO DUP1 ISZERO PUSH2 0x169A JUMPI RETURNDATASIZE PUSH1 0x0 DUP1 RETURNDATACOPY RETURNDATASIZE PUSH1 0x0 REVERT JUMPDEST POP POP POP POP PUSH1 0x40 MLOAD RETURNDATASIZE PUSH1 0x1F NOT PUSH1 0x1F DUP3 ADD AND DUP3 ADD DUP1 PUSH1 0x40 MSTORE POP DUP2 ADD SWAP1 PUSH2 0x16BE SWAP2 SWAP1 PUSH2 0x249E JUMP JUMPDEST PUSH2 0x16DA JUMPI PUSH1 0x40 MLOAD PUSH3 0x461BCD PUSH1 0xE5 SHL DUP2 MSTORE PUSH1 0x4 ADD PUSH2 0x27D SWAP1 PUSH2 0x2AA3 JUMP JUMPDEST PUSH1 0x3 SLOAD PUSH1 0x10 SLOAD PUSH1 0x40 MLOAD PUSH4 0xA9059CBB PUSH1 0xE0 SHL DUP2 MSTORE PUSH1 0x1 PUSH1 0x1 PUSH1 0xA0 SHL SUB SWAP3 DUP4 AND SWAP3 PUSH4 0xA9059CBB SWAP3 PUSH2 0x1710 SWAP3 SWAP2 AND SWAP1 DUP6 SWAP1 PUSH1 0x4 ADD PUSH2 0x250E JUMP JUMPDEST PUSH1 0x20 PUSH1 0x40 MLOAD DUP1 DUP4 SUB DUP2 PUSH1 0x0 DUP8 DUP1 EXTCODESIZE ISZERO DUP1 ISZERO PUSH2 0x172A JUMPI PUSH1 0x0 DUP1 REVERT JUMPDEST POP GAS CALL ISZERO DUP1 ISZERO PUSH2 0x173E JUMPI RETURNDATASIZE PUSH1 0x0 DUP1 RETURNDATACOPY RETURNDATASIZE PUSH1 0x0 REVERT JUMPDEST POP POP POP POP PUSH1 0x40 MLOAD RETURNDATASIZE PUSH1 0x1F NOT PUSH1 0x1F DUP3 ADD AND DUP3 ADD DUP1 PUSH1 0x40 MSTORE POP DUP2 ADD SWAP1 PUSH2 0x1762 SWAP2 SWAP1 PUSH2 0x249E JUMP JUMPDEST PUSH2 0x177E JUMPI PUSH1 0x40 MLOAD PUSH3 0x461BCD PUSH1 0xE5 SHL DUP2 MSTORE PUSH1 0x4 ADD PUSH2 0x27D SWAP1 PUSH2 0x26F6 JUMP JUMPDEST PUSH1 0x0 PUSH2 0x17A5 DUP3 PUSH2 0x179F PUSH1 0xF SLOAD PUSH2 0x179F DUP8 PUSH1 0x5 SLOAD PUSH2 0x215B SWAP1 SWAP2 SWAP1 PUSH4 0xFFFFFFFF AND JUMP JUMPDEST SWAP1 PUSH2 0x215B JUMP JUMPDEST PUSH1 0x3 SLOAD PUSH1 0x1 SLOAD PUSH1 0x40 MLOAD PUSH4 0xA9059CBB PUSH1 0xE0 SHL DUP2 MSTORE SWAP3 SWAP4 POP PUSH1 0x1 PUSH1 0x1 PUSH1 0xA0 SHL SUB SWAP2 DUP3 AND SWAP3 PUSH4 0xA9059CBB SWAP3 PUSH2 0x17DD SWAP3 AND SWAP1 DUP6 SWAP1 PUSH1 0x4 ADD PUSH2 0x250E JUMP JUMPDEST PUSH1 0x20 PUSH1 0x40 MLOAD DUP1 DUP4 SUB DUP2 PUSH1 0x0 DUP8 DUP1 EXTCODESIZE ISZERO DUP1 ISZERO PUSH2 0x17F7 JUMPI PUSH1 0x0 DUP1 REVERT JUMPDEST POP GAS CALL ISZERO DUP1 ISZERO PUSH2 0x180B JUMPI RETURNDATASIZE PUSH1 0x0 DUP1 RETURNDATACOPY RETURNDATASIZE PUSH1 0x0 REVERT JUMPDEST POP POP POP POP PUSH1 0x40 MLOAD RETURNDATASIZE PUSH1 0x1F NOT PUSH1 0x1F DUP3 ADD AND DUP3 ADD DUP1 PUSH1 0x40 MSTORE POP DUP2 ADD SWAP1 PUSH2 0x182F SWAP2 SWAP1 PUSH2 0x249E JUMP JUMPDEST PUSH2 0x184B JUMPI PUSH1 0x40 MLOAD PUSH3 0x461BCD PUSH1 0xE5 SHL DUP2 MSTORE PUSH1 0x4 ADD PUSH2 0x27D SWAP1 PUSH2 0x2C1B JUMP JUMPDEST PUSH1 0x3 DUP1 SLOAD PUSH1 0xFF PUSH1 0xA0 SHL NOT AND PUSH1 0x3 PUSH1 0xA0 SHL OR SWAP1 SSTORE TIMESTAMP PUSH1 0xC SSTORE PUSH1 0x0 PUSH1 0xE DUP2 SWAP1 SSTORE PUSH1 0x40 MLOAD PUSH32 0x1AE23A15F6E2626A4B617B9CFE88907FBCBE4F72A8D825EAD5AD182293369423 SWAP2 SWAP1 LOG1 POP POP POP PUSH2 0x189B PUSH2 0x2434 JUMP JUMPDEST POP JUMP JUMPDEST PUSH1 0x60 PUSH1 0x17 DUP1 SLOAD DUP1 PUSH1 0x20 MUL PUSH1 0x20 ADD PUSH1 0x40 MLOAD SWAP1 DUP2 ADD PUSH1 0x40 MSTORE DUP1 SWAP3 SWAP2 SWAP1 DUP2 DUP2 MSTORE PUSH1 0x20 ADD DUP3 DUP1 SLOAD DUP1 ISZERO PUSH2 0x18F6 JUMPI PUSH1 0x20 MUL DUP3 ADD SWAP2 SWAP1 PUSH1 0x0 MSTORE PUSH1 0x20 PUSH1 0x0 KECCAK256 SWAP1 JUMPDEST DUP2 SLOAD PUSH1 0x1 PUSH1 0x1 PUSH1 0xA0 SHL SUB AND DUP2 MSTORE PUSH1 0x1 SWAP1 SWAP2 ADD SWAP1 PUSH1 0x20 ADD DUP1 DUP4 GT PUSH2 0x18D8 JUMPI JUMPDEST POP POP POP POP POP SWAP1 POP SWAP1 JUMP JUMPDEST PUSH1 0x0 DUP1 PUSH2 0x1919 PUSH1 0x2 PUSH1 0x7 SLOAD PUSH2 0x216E SWAP1 SWAP2 SWAP1 PUSH4 0xFFFFFFFF AND JUMP JUMPDEST SWAP1 POP PUSH1 0x0 PUSH2 0x8C0 PUSH1 0xC PUSH2 0x8A1 PUSH2 0x2710 PUSH2 0x8A1 PUSH2 0x1942 PUSH1 0xE SLOAD PUSH1 0xA SLOAD PUSH2 0x215B SWAP1 SWAP2 SWAP1 PUSH4 0xFFFFFFFF AND JUMP JUMPDEST PUSH1 0x4 SLOAD PUSH2 0x89B SWAP1 DUP10 PUSH2 0x216E JUMP JUMPDEST PUSH1 0x11 SLOAD PUSH1 0x1 PUSH1 0xA0 SHL SWAP1 DIV PUSH1 0xFF AND DUP2 JUMP JUMPDEST PUSH1 0x1 SLOAD PUSH1 0x1 PUSH1 0x1 PUSH1 0xA0 SHL SUB AND CALLER EQ PUSH2 0x1989 JUMPI PUSH1 0x40 MLOAD PUSH3 0x461BCD PUSH1 0xE5 SHL DUP2 MSTORE PUSH1 0x4 ADD PUSH2 0x27D SWAP1 PUSH2 0x29F1 JUMP JUMPDEST PUSH2 0x1991 PUSH2 0x240A JUMP JUMPDEST PUSH2 0x1999 PUSH2 0x2186 JUMP JUMPDEST PUSH1 0x3 DUP1 SLOAD PUSH1 0x1 PUSH1 0xA0 SHL SWAP1 DIV PUSH1 0xFF AND PUSH1 0x6 DUP2 GT ISZERO PUSH2 0x19C6 JUMPI PUSH4 0x4E487B71 PUSH1 0xE0 SHL PUSH1 0x0 MSTORE PUSH1 0x21 PUSH1 0x4 MSTORE PUSH1 0x24 PUSH1 0x0 REVERT JUMPDEST EQ DUP1 PUSH2 0x19FD JUMPI POP PUSH1 0x4 PUSH1 0x3 SLOAD PUSH1 0x1 PUSH1 0xA0 SHL SWAP1 DIV PUSH1 0xFF AND PUSH1 0x6 DUP2 GT ISZERO PUSH2 0x19FB JUMPI PUSH4 0x4E487B71 PUSH1 0xE0 SHL PUSH1 0x0 MSTORE PUSH1 0x21 PUSH1 0x4 MSTORE PUSH1 0x24 PUSH1 0x0 REVERT JUMPDEST EQ JUMPDEST PUSH2 0x1A19 JUMPI PUSH1 0x40 MLOAD PUSH3 0x461BCD PUSH1 0xE5 SHL DUP2 MSTORE PUSH1 0x4 ADD PUSH2 0x27D SWAP1 PUSH2 0x261A JUMP JUMPDEST PUSH1 0x0 PUSH2 0x1A23 PUSH2 0x1235 JUMP JUMPDEST SWAP1 POP PUSH1 0x0 PUSH2 0x1A2F PUSH2 0x202F JUMP JUMPDEST SWAP1 POP PUSH1 0x0 PUSH2 0x1A3D DUP4 DUP4 PUSH2 0x217A JUMP JUMPDEST PUSH1 0x3 SLOAD PUSH1 0x40 MLOAD PUSH4 0x23B872DD PUSH1 0xE0 SHL DUP2 MSTORE SWAP2 SWAP3 POP PUSH1 0x1 PUSH1 0x1 PUSH1 0xA0 SHL SUB AND SWAP1 PUSH4 0x23B872DD SWAP1 PUSH2 0x1A72 SWAP1 CALLER SWAP1 ADDRESS SWAP1 DUP7 SWAP1 PUSH1 0x4 ADD PUSH2 0x24EA JUMP JUMPDEST PUSH1 0x20 PUSH1 0x40 MLOAD DUP1 DUP4 SUB DUP2 PUSH1 0x0 DUP8 DUP1 EXTCODESIZE ISZERO DUP1 ISZERO PUSH2 0x1A8C JUMPI PUSH1 0x0 DUP1 REVERT JUMPDEST POP GAS CALL ISZERO DUP1 ISZERO PUSH2 0x1AA0 JUMPI RETURNDATASIZE PUSH1 0x0 DUP1 RETURNDATACOPY RETURNDATASIZE PUSH1 0x0 REVERT JUMPDEST POP POP POP POP PUSH1 0x40 MLOAD RETURNDATASIZE PUSH1 0x1F NOT PUSH1 0x1F DUP3 ADD AND DUP3 ADD DUP1 PUSH1 0x40 MSTORE POP DUP2 ADD SWAP1 PUSH2 0x1AC4 SWAP2 SWAP1 PUSH2 0x249E JUMP JUMPDEST PUSH2 0x1AE0 JUMPI PUSH1 0x40 MLOAD PUSH3 0x461BCD PUSH1 0xE5 SHL DUP2 MSTORE PUSH1 0x4 ADD PUSH2 0x27D SWAP1 PUSH2 0x27CE JUMP JUMPDEST PUSH1 0x6 SLOAD PUSH2 0x1AED SWAP1 DUP5 PUSH2 0x217A JUMP JUMPDEST PUSH1 0x6 SSTORE PUSH1 0xA SLOAD PUSH1 0xE SSTORE PUSH1 0x40 MLOAD PUSH32 0x417AD23224C92388DB4CFEE6AA1061AE26DD3432B872A528F271124213CB603F SWAP1 PUSH2 0x1B28 SWAP1 DUP6 SWAP1 DUP6 SWAP1 PUSH2 0x2C52 JUMP JUMPDEST PUSH1 0x40 MLOAD DUP1 SWAP2 SUB SWAP1 LOG1 PUSH1 0x3 DUP1 SLOAD PUSH1 0xFF PUSH1 0xA0 SHL NOT AND PUSH1 0x3 PUSH1 0xA1 SHL OR SWAP1 SSTORE PUSH1 0x40 MLOAD PUSH32 0x409FCED1B85AE32A29FB1E18894D8361A5F2653DC27ADF7102D86175C2901D7C SWAP1 PUSH1 0x0 SWAP1 LOG1 POP POP POP PUSH2 0xB2B PUSH2 0x2434 JUMP JUMPDEST PUSH2 0x1B7F PUSH2 0x240A JUMP JUMPDEST PUSH1 0x0 DUP1 PUSH1 0x3 SLOAD PUSH1 0x1 PUSH1 0xA0 SHL SWAP1 DIV PUSH1 0xFF AND PUSH1 0x6 DUP2 GT ISZERO PUSH2 0x1BAE JUMPI PUSH4 0x4E487B71 PUSH1 0xE0 SHL PUSH1 0x0 MSTORE PUSH1 0x21 PUSH1 0x4 MSTORE PUSH1 0x24 PUSH1 0x0 REVERT JUMPDEST EQ PUSH2 0x1BCB JUMPI PUSH1 0x40 MLOAD PUSH3 0x461BCD PUSH1 0xE5 SHL DUP2 MSTORE PUSH1 0x4 ADD PUSH2 0x27D SWAP1 PUSH2 0x2ADA JUMP JUMPDEST PUSH2 0x1BD3 PUSH2 0x2186 JUMP JUMPDEST PUSH1 0xB SLOAD TIMESTAMP GT ISZERO PUSH2 0x1BF5 JUMPI PUSH1 0x40 MLOAD PUSH3 0x461BCD PUSH1 0xE5 SHL DUP2 MSTORE PUSH1 0x4 ADD PUSH2 0x27D SWAP1 PUSH2 0x2B37 JUMP JUMPDEST PUSH1 0x1 SLOAD PUSH1 0x1 PUSH1 0x1 PUSH1 0xA0 SHL SUB AND CALLER EQ ISZERO PUSH2 0x1C20 JUMPI PUSH1 0x40 MLOAD PUSH3 0x461BCD PUSH1 0xE5 SHL DUP2 MSTORE PUSH1 0x4 ADD PUSH2 0x27D SWAP1 PUSH2 0x2834 JUMP JUMPDEST PUSH1 0x0 DUP3 GT PUSH2 0x1C40 JUMPI PUSH1 0x40 MLOAD PUSH3 0x461BCD PUSH1 0xE5 SHL DUP2 MSTORE PUSH1 0x4 ADD PUSH2 0x27D SWAP1 PUSH2 0x28B8 JUMP JUMPDEST PUSH1 0x11 SLOAD PUSH1 0x1 PUSH1 0xA0 SHL SWAP1 DIV PUSH1 0xFF AND ISZERO PUSH2 0x1D20 JUMPI PUSH1 0x12 SLOAD PUSH1 0x1 PUSH1 0x1 PUSH1 0xA0 SHL SUB AND PUSH2 0x1C7A JUMPI PUSH1 0x40 MLOAD PUSH3 0x461BCD PUSH1 0xE5 SHL DUP2 MSTORE PUSH1 0x4 ADD PUSH2 0x27D SWAP1 PUSH2 0x26BF JUMP JUMPDEST PUSH1 0x12 SLOAD PUSH1 0x13 SLOAD PUSH1 0x40 MLOAD PUSH4 0x36339147 PUSH1 0xE1 SHL DUP2 MSTORE PUSH1 0x0 SWAP3 PUSH1 0x1 PUSH1 0x1 PUSH1 0xA0 SHL SUB AND SWAP2 PUSH4 0x6C67228E SWAP2 PUSH2 0x1CAF SWAP2 SWAP1 CALLER SWAP1 PUSH1 0x4 ADD PUSH2 0x2588 JUMP JUMPDEST PUSH1 0x20 PUSH1 0x40 MLOAD DUP1 DUP4 SUB DUP2 DUP7 DUP1 EXTCODESIZE ISZERO DUP1 ISZERO PUSH2 0x1CC7 JUMPI PUSH1 0x0 DUP1 REVERT JUMPDEST POP GAS STATICCALL ISZERO DUP1 ISZERO PUSH2 0x1CDB JUMPI RETURNDATASIZE PUSH1 0x0 DUP1 RETURNDATACOPY RETURNDATASIZE PUSH1 0x0 REVERT JUMPDEST POP POP POP POP PUSH1 0x40 MLOAD RETURNDATASIZE PUSH1 0x1F NOT PUSH1 0x1F DUP3 ADD AND DUP3 ADD DUP1 PUSH1 0x40 MSTORE POP DUP2 ADD SWAP1 PUSH2 0x1CFF SWAP2 SWAP1 PUSH2 0x249E JUMP JUMPDEST SWAP1 POP DUP1 PUSH2 0x1D1E JUMPI PUSH1 0x40 MLOAD PUSH3 0x461BCD PUSH1 0xE5 SHL DUP2 MSTORE PUSH1 0x4 ADD PUSH2 0x27D SWAP1 PUSH2 0x296C JUMP JUMPDEST POP JUMPDEST PUSH1 0x0 PUSH2 0x1D39 PUSH1 0x5 SLOAD PUSH1 0x4 SLOAD PUSH2 0x215B SWAP1 SWAP2 SWAP1 PUSH4 0xFFFFFFFF AND JUMP JUMPDEST SWAP1 POP PUSH1 0x0 DUP2 GT PUSH2 0x1D5B JUMPI PUSH1 0x40 MLOAD PUSH3 0x461BCD PUSH1 0xE5 SHL DUP2 MSTORE PUSH1 0x4 ADD PUSH2 0x27D SWAP1 PUSH2 0x2A35 JUMP JUMPDEST DUP3 DUP2 DUP2 GT ISZERO PUSH2 0x1D67 JUMPI POP DUP1 JUMPDEST PUSH1 0x3 SLOAD PUSH1 0x40 MLOAD PUSH4 0x23B872DD PUSH1 0xE0 SHL DUP2 MSTORE PUSH1 0x1 PUSH1 0x1 PUSH1 0xA0 SHL SUB SWAP1 SWAP2 AND SWAP1 PUSH4 0x23B872DD SWAP1 PUSH2 0x1D9B SWAP1 CALLER SWAP1 ADDRESS SWAP1 DUP7 SWAP1 PUSH1 0x4 ADD PUSH2 0x24EA JUMP JUMPDEST PUSH1 0x20 PUSH1 0x40 MLOAD DUP1 DUP4 SUB DUP2 PUSH1 0x0 DUP8 DUP1 EXTCODESIZE ISZERO DUP1 ISZERO PUSH2 0x1DB5 JUMPI PUSH1 0x0 DUP1 REVERT JUMPDEST POP GAS CALL ISZERO DUP1 ISZERO PUSH2 0x1DC9 JUMPI RETURNDATASIZE PUSH1 0x0 DUP1 RETURNDATACOPY RETURNDATASIZE PUSH1 0x0 REVERT JUMPDEST POP POP POP POP PUSH1 0x40 MLOAD RETURNDATASIZE PUSH1 0x1F NOT PUSH1 0x1F DUP3 ADD AND DUP3 ADD DUP1 PUSH1 0x40 MSTORE POP DUP2 ADD SWAP1 PUSH2 0x1DED SWAP2 SWAP1 PUSH2 0x249E JUMP JUMPDEST PUSH2 0x1E09 JUMPI PUSH1 0x40 MLOAD PUSH3 0x461BCD PUSH1 0xE5 SHL DUP2 MSTORE PUSH1 0x4 ADD PUSH2 0x27D SWAP1 PUSH2 0x27CE JUMP JUMPDEST CALLER PUSH1 0x0 SWAP1 DUP2 MSTORE PUSH1 0x16 PUSH1 0x20 MSTORE PUSH1 0x40 SWAP1 KECCAK256 SLOAD PUSH2 0x1E60 JUMPI PUSH1 0x17 DUP1 SLOAD PUSH1 0x1 DUP2 ADD DUP3 SSTORE PUSH1 0x0 SWAP2 SWAP1 SWAP2 MSTORE PUSH32 0xC624B66CC0138B8FABC209247F72D758E1CF3343756D543BADBF24212BED8C15 ADD DUP1 SLOAD PUSH1 0x1 PUSH1 0x1 PUSH1 0xA0 SHL SUB NOT AND CALLER OR SWAP1 SSTORE JUMPDEST CALLER PUSH1 0x0 SWAP1 DUP2 MSTORE PUSH1 0x16 PUSH1 0x20 MSTORE PUSH1 0x40 SWAP1 KECCAK256 SLOAD PUSH2 0x1E7A SWAP1 DUP3 PUSH2 0x217A JUMP JUMPDEST CALLER PUSH1 0x0 SWAP1 DUP2 MSTORE PUSH1 0x16 PUSH1 0x20 MSTORE PUSH1 0x40 SWAP1 KECCAK256 SSTORE PUSH1 0x5 SLOAD PUSH2 0x1E97 SWAP1 DUP3 PUSH2 0x217A JUMP JUMPDEST PUSH1 0x5 SSTORE PUSH1 0x40 MLOAD CALLER SWAP1 PUSH32 0x5AF8184BEF8E4B45EB9F6ED7734D04DA38CED226495548F46E0C8FF8D7D9A524 SWAP1 PUSH2 0x1ECC SWAP1 DUP5 SWAP1 PUSH2 0x257F JUMP JUMPDEST PUSH1 0x40 MLOAD DUP1 SWAP2 SUB SWAP1 LOG2 PUSH1 0x4 SLOAD PUSH1 0x5 SLOAD LT PUSH2 0x1F20 JUMPI PUSH1 0x3 DUP1 SLOAD PUSH1 0xFF PUSH1 0xA0 SHL NOT AND PUSH1 0x1 PUSH1 0xA0 SHL OR SWAP1 SSTORE TIMESTAMP PUSH1 0xD SSTORE PUSH1 0x40 MLOAD PUSH32 0xF3E84C4C82E83C0BDC90064809179D950D758F72209C55F7C851258B6B64D9AB SWAP1 PUSH1 0x0 SWAP1 LOG1 JUMPDEST DUP1 DUP5 GT ISZERO PUSH2 0x1FD7 JUMPI PUSH1 0x0 PUSH2 0x1F34 DUP6 DUP4 PUSH2 0x215B JUMP JUMPDEST PUSH1 0x3 SLOAD PUSH1 0x40 MLOAD PUSH4 0xA9059CBB PUSH1 0xE0 SHL DUP2 MSTORE SWAP2 SWAP3 POP PUSH1 0x1 PUSH1 0x1 PUSH1 0xA0 SHL SUB AND SWAP1 PUSH4 0xA9059CBB SWAP1 PUSH2 0x1F67 SWAP1 CALLER SWAP1 DUP6 SWAP1 PUSH1 0x4 ADD PUSH2 0x250E JUMP JUMPDEST PUSH1 0x20 PUSH1 0x40 MLOAD DUP1 DUP4 SUB DUP2 PUSH1 0x0 DUP8 DUP1 EXTCODESIZE ISZERO DUP1 ISZERO PUSH2 0x1F81 JUMPI PUSH1 0x0 DUP1 REVERT JUMPDEST POP GAS CALL ISZERO DUP1 ISZERO PUSH2 0x1F95 JUMPI RETURNDATASIZE PUSH1 0x0 DUP1 RETURNDATACOPY RETURNDATASIZE PUSH1 0x0 REVERT JUMPDEST POP POP POP POP PUSH1 0x40 MLOAD RETURNDATASIZE PUSH1 0x1F NOT PUSH1 0x1F DUP3 ADD AND DUP3 ADD DUP1 PUSH1 0x40 MSTORE POP DUP2 ADD SWAP1 PUSH2 0x1FB9 SWAP2 SWAP1 PUSH2 0x249E JUMP JUMPDEST PUSH2 0x1FD5 JUMPI PUSH1 0x40 MLOAD PUSH3 0x461BCD PUSH1 0xE5 SHL DUP2 MSTORE PUSH1 0x4 ADD PUSH2 0x27D SWAP1 PUSH2 0x2B07 JUMP JUMPDEST POP JUMPDEST POP POP POP PUSH2 0x189B PUSH2 0x2434 JUMP JUMPDEST PUSH1 0xE SLOAD DUP2 JUMP JUMPDEST PUSH1 0x0 DUP1 PUSH2 0x1FF3 PUSH2 0x870 JUMP JUMPDEST SWAP1 POP PUSH1 0x0 PUSH2 0x8C0 PUSH1 0xA SLOAD DUP4 PUSH2 0x23FE SWAP1 SWAP2 SWAP1 PUSH4 0xFFFFFFFF AND JUMP JUMPDEST PUSH1 0x0 DUP1 PUSH2 0x2017 PUSH2 0x1235 JUMP JUMPDEST SWAP1 POP PUSH1 0x0 PUSH2 0x2023 PUSH2 0x202F JUMP JUMPDEST SWAP1 POP PUSH2 0x8C0 DUP3 DUP3 PUSH2 0x217A JUMP JUMPDEST PUSH1 0x0 PUSH1 0x3 DUP1 SLOAD PUSH1 0x1 PUSH1 0xA0 SHL SWAP1 DIV PUSH1 0xFF AND PUSH1 0x6 DUP2 GT ISZERO PUSH2 0x205E JUMPI PUSH4 0x4E487B71 PUSH1 0xE0 SHL PUSH1 0x0 MSTORE PUSH1 0x21 PUSH1 0x4 MSTORE PUSH1 0x24 PUSH1 0x0 REVERT JUMPDEST EQ ISZERO DUP1 ISZERO PUSH2 0x2098 JUMPI POP PUSH1 0x4 PUSH1 0x3 SLOAD PUSH1 0x1 PUSH1 0xA0 SHL SWAP1 DIV PUSH1 0xFF AND PUSH1 0x6 DUP2 GT ISZERO PUSH2 0x2095 JUMPI PUSH4 0x4E487B71 PUSH1 0xE0 SHL PUSH1 0x0 MSTORE PUSH1 0x21 PUSH1 0x4 MSTORE PUSH1 0x24 PUSH1 0x0 REVERT JUMPDEST EQ ISZERO JUMPDEST ISZERO PUSH2 0x20A5 JUMPI POP PUSH1 0x0 PUSH2 0x760 JUMP JUMPDEST PUSH1 0x0 PUSH2 0x20C2 PUSH2 0x753 PUSH3 0x278D00 PUSH1 0xA SLOAD PUSH2 0x216E SWAP1 SWAP2 SWAP1 PUSH4 0xFFFFFFFF AND JUMP JUMPDEST SWAP1 POP DUP1 TIMESTAMP GT ISZERO PUSH2 0x20D6 JUMPI PUSH1 0x0 SWAP2 POP POP PUSH2 0x760 JUMP JUMPDEST PUSH1 0x0 PUSH2 0x20E2 DUP3 TIMESTAMP PUSH2 0x215B JUMP JUMPDEST SWAP1 POP PUSH1 0x0 PUSH2 0x20F3 DUP3 PUSH3 0x15180 PUSH2 0x23FE JUMP JUMPDEST SWAP1 POP PUSH1 0x0 PUSH2 0x210D PUSH1 0x1E PUSH1 0xA SLOAD PUSH2 0x216E SWAP1 SWAP2 SWAP1 PUSH4 0xFFFFFFFF AND JUMP JUMPDEST SWAP1 POP PUSH1 0x0 PUSH2 0x212F DUP3 PUSH2 0x8A1 DUP6 PUSH2 0x89B PUSH1 0x2 PUSH1 0x9 SLOAD PUSH2 0x23FE SWAP1 SWAP2 SWAP1 PUSH4 0xFFFFFFFF AND JUMP JUMPDEST SWAP1 POP PUSH1 0x0 PUSH2 0x213B PUSH2 0x1235 JUMP JUMPDEST SWAP1 POP PUSH1 0x0 PUSH2 0x214F PUSH2 0x2710 PUSH2 0x8A1 DUP5 DUP7 PUSH2 0x216E JUMP JUMPDEST SWAP8 POP POP POP POP POP POP POP POP SWAP1 JUMP JUMPDEST PUSH1 0x0 PUSH2 0x2167 DUP3 DUP5 PUSH2 0x2CCF JUMP JUMPDEST SWAP4 SWAP3 POP POP POP JUMP JUMPDEST PUSH1 0x0 PUSH2 0x2167 DUP3 DUP5 PUSH2 0x2CB0 JUMP JUMPDEST PUSH1 0x0 PUSH2 0x2167 DUP3 DUP5 PUSH2 0x2C78 JUMP JUMPDEST PUSH1 0x0 PUSH1 0x3 SLOAD PUSH1 0x1 PUSH1 0xA0 SHL SWAP1 DIV PUSH1 0xFF AND PUSH1 0x6 DUP2 GT ISZERO PUSH2 0x21B4 JUMPI PUSH4 0x4E487B71 PUSH1 0xE0 SHL PUSH1 0x0 MSTORE PUSH1 0x21 PUSH1 0x4 MSTORE PUSH1 0x24 PUSH1 0x0 REVERT JUMPDEST EQ DUP1 ISZERO PUSH2 0x21C2 JUMPI POP PUSH1 0xB SLOAD TIMESTAMP GT JUMPDEST ISZERO PUSH2 0x2254 JUMPI PUSH1 0x4 SLOAD PUSH1 0x5 SLOAD LT PUSH2 0x2217 JUMPI PUSH1 0x3 DUP1 SLOAD PUSH1 0xFF PUSH1 0xA0 SHL NOT AND PUSH1 0x1 PUSH1 0xA0 SHL OR SWAP1 SSTORE TIMESTAMP PUSH1 0xD SSTORE PUSH1 0x40 MLOAD PUSH32 0xF3E84C4C82E83C0BDC90064809179D950D758F72209C55F7C851258B6B64D9AB SWAP1 PUSH1 0x0 SWAP1 LOG1 PUSH2 0x2254 JUMP JUMPDEST PUSH1 0x3 DUP1 SLOAD PUSH1 0xFF PUSH1 0xA0 SHL NOT AND PUSH1 0x1 PUSH1 0xA1 SHL OR SWAP1 SSTORE PUSH1 0x40 MLOAD PUSH32 0x362F189F5BF8FCF98B5A131743FC21DC5F5B13A3115367C7A6616B1E79711F71 SWAP1 PUSH1 0x0 SWAP1 LOG1 JUMPDEST PUSH1 0x1 PUSH1 0x3 SLOAD PUSH1 0x1 PUSH1 0xA0 SHL SWAP1 DIV PUSH1 0xFF AND PUSH1 0x6 DUP2 GT ISZERO PUSH2 0x2282 JUMPI PUSH4 0x4E487B71 PUSH1 0xE0 SHL PUSH1 0x0 MSTORE PUSH1 0x21 PUSH1 0x4 MSTORE PUSH1 0x24 PUSH1 0x0 REVERT JUMPDEST EQ ISZERO PUSH2 0x22DC JUMPI PUSH1 0xD SLOAD PUSH2 0x2298 SWAP1 PUSH3 0x93A80 PUSH2 0x217A JUMP JUMPDEST TIMESTAMP GT ISZERO PUSH2 0x22DC JUMPI PUSH1 0x3 DUP1 SLOAD PUSH1 0xFF PUSH1 0xA0 SHL NOT AND PUSH1 0x1 PUSH1 0xA1 SHL OR SWAP1 SSTORE PUSH1 0x40 MLOAD PUSH32 0x362F189F5BF8FCF98B5A131743FC21DC5F5B13A3115367C7A6616B1E79711F71 SWAP1 PUSH1 0x0 SWAP1 LOG1 JUMPDEST PUSH1 0x3 DUP1 SLOAD PUSH1 0x1 PUSH1 0xA0 SHL SWAP1 DIV PUSH1 0xFF AND PUSH1 0x6 DUP2 GT ISZERO PUSH2 0x2309 JUMPI PUSH4 0x4E487B71 PUSH1 0xE0 SHL PUSH1 0x0 MSTORE PUSH1 0x21 PUSH1 0x4 MSTORE PUSH1 0x24 PUSH1 0x0 REVERT JUMPDEST EQ ISZERO PUSH2 0xB2B JUMPI PUSH1 0x0 PUSH2 0x232C PUSH2 0x753 PUSH3 0x278D00 PUSH1 0xE SLOAD PUSH2 0x216E SWAP1 SWAP2 SWAP1 PUSH4 0xFFFFFFFF AND JUMP JUMPDEST SWAP1 POP PUSH2 0x233B DUP2 PUSH3 0x127500 PUSH2 0x217A JUMP JUMPDEST TIMESTAMP GT ISZERO PUSH2 0x189B JUMPI PUSH2 0x235A PUSH2 0x2353 PUSH3 0x127500 PUSH1 0x2 PUSH2 0x216E JUMP JUMPDEST DUP3 SWAP1 PUSH2 0x217A JUMP JUMPDEST TIMESTAMP GT PUSH2 0x23BF JUMPI PUSH1 0x3 DUP1 SLOAD PUSH1 0xFF PUSH1 0xA0 SHL NOT AND PUSH1 0x1 PUSH1 0xA2 SHL OR SWAP1 SSTORE PUSH1 0x0 PUSH2 0x237D PUSH2 0x1900 JUMP JUMPDEST PUSH1 0x6 SLOAD SWAP1 SWAP2 POP PUSH2 0x238D SWAP1 DUP3 PUSH2 0x217A JUMP JUMPDEST PUSH1 0x6 SSTORE PUSH1 0x40 MLOAD PUSH32 0x8C9E892186E366A41C212441D4BD3CF562CCC33D8CFE6201230AB6E848102ADD SWAP1 PUSH1 0x0 SWAP1 LOG1 POP PUSH2 0x189B JUMP JUMPDEST PUSH1 0x3 DUP1 SLOAD PUSH1 0xFF PUSH1 0xA0 SHL NOT AND PUSH1 0x5 PUSH1 0xA0 SHL OR SWAP1 SSTORE PUSH1 0x40 MLOAD PUSH32 0x74808F66E345F41C571625BA19284173A379393C1422D815A03553C72D0D49A0 SWAP1 PUSH1 0x0 SWAP1 LOG1 POP JUMP JUMPDEST PUSH1 0x0 PUSH2 0x2167 DUP3 DUP5 PUSH2 0x2C90 JUMP JUMPDEST PUSH1 0x2 PUSH1 0x0 SLOAD EQ ISZERO PUSH2 0x242D JUMPI PUSH1 0x40 MLOAD PUSH3 0x461BCD PUSH1 0xE5 SHL DUP2 MSTORE PUSH1 0x4 ADD PUSH2 0x27D SWAP1 PUSH2 0x2BE4 JUMP JUMPDEST PUSH1 0x2 PUSH1 0x0 SSTORE JUMP JUMPDEST PUSH1 0x1 PUSH1 0x0 SSTORE JUMP JUMPDEST DUP1 CALLDATALOAD PUSH1 0x1 PUSH1 0x1 PUSH1 0xA0 SHL SUB DUP2 AND DUP2 EQ PUSH2 0x145E JUMPI PUSH1 0x0 DUP1 REVERT JUMPDEST PUSH1 0x0 PUSH1 0x20 DUP3 DUP5 SUB SLT ISZERO PUSH2 0x2463 JUMPI DUP1 DUP2 REVERT JUMPDEST PUSH2 0x2167 DUP3 PUSH2 0x243B JUMP JUMPDEST PUSH1 0x0 DUP1 PUSH1 0x40 DUP4 DUP6 SUB SLT ISZERO PUSH2 0x247E JUMPI DUP1 DUP2 REVERT JUMPDEST PUSH2 0x2487 DUP4 PUSH2 0x243B JUMP JUMPDEST SWAP2 POP PUSH2 0x2495 PUSH1 0x20 DUP5 ADD PUSH2 0x243B JUMP JUMPDEST SWAP1 POP SWAP3 POP SWAP3 SWAP1 POP JUMP JUMPDEST PUSH1 0x0 PUSH1 0x20 DUP3 DUP5 SUB SLT ISZERO PUSH2 0x24AF JUMPI DUP1 DUP2 REVERT JUMPDEST DUP2 MLOAD DUP1 ISZERO ISZERO DUP2 EQ PUSH2 0x2167 JUMPI DUP2 DUP3 REVERT JUMPDEST PUSH1 0x0 PUSH1 0x20 DUP3 DUP5 SUB SLT ISZERO PUSH2 0x24CF JUMPI DUP1 DUP2 REVERT JUMPDEST POP CALLDATALOAD SWAP2 SWAP1 POP JUMP JUMPDEST PUSH1 0x1 PUSH1 0x1 PUSH1 0xA0 SHL SUB SWAP2 SWAP1 SWAP2 AND DUP2 MSTORE PUSH1 0x20 ADD SWAP1 JUMP JUMPDEST PUSH1 0x1 PUSH1 0x1 PUSH1 0xA0 SHL SUB SWAP4 DUP5 AND DUP2 MSTORE SWAP2 SWAP1 SWAP3 AND PUSH1 0x20 DUP3 ADD MSTORE PUSH1 0x40 DUP2 ADD SWAP2 SWAP1 SWAP2 MSTORE PUSH1 0x60 ADD SWAP1 JUMP JUMPDEST PUSH1 0x1 PUSH1 0x1 PUSH1 0xA0 SHL SUB SWAP3 SWAP1 SWAP3 AND DUP3 MSTORE PUSH1 0x20 DUP3 ADD MSTORE PUSH1 0x40 ADD SWAP1 JUMP JUMPDEST PUSH1 0x20 DUP1 DUP3 MSTORE DUP3 MLOAD DUP3 DUP3 ADD DUP2 SWAP1 MSTORE PUSH1 0x0 SWAP2 SWAP1 DUP5 DUP3 ADD SWAP1 PUSH1 0x40 DUP6 ADD SWAP1 DUP5 JUMPDEST DUP2 DUP2 LT ISZERO PUSH2 0x2568 JUMPI DUP4 MLOAD PUSH1 0x1 PUSH1 0x1 PUSH1 0xA0 SHL SUB AND DUP4 MSTORE SWAP3 DUP5 ADD SWAP3 SWAP2 DUP5 ADD SWAP2 PUSH1 0x1 ADD PUSH2 0x2543 JUMP JUMPDEST POP SWAP1 SWAP7 SWAP6 POP POP POP POP POP POP JUMP JUMPDEST SWAP1 ISZERO ISZERO DUP2 MSTORE PUSH1 0x20 ADD SWAP1 JUMP JUMPDEST SWAP1 DUP2 MSTORE PUSH1 0x20 ADD SWAP1 JUMP JUMPDEST SWAP2 DUP3 MSTORE PUSH1 0x1 PUSH1 0x1 PUSH1 0xA0 SHL SUB AND PUSH1 0x20 DUP3 ADD MSTORE PUSH1 0x40 ADD SWAP1 JUMP JUMPDEST PUSH1 0x20 DUP2 ADD PUSH1 0x7 DUP4 LT PUSH2 0x25C1 JUMPI PUSH4 0x4E487B71 PUSH1 0xE0 SHL PUSH1 0x0 MSTORE PUSH1 0x21 PUSH1 0x4 MSTORE PUSH1 0x24 PUSH1 0x0 REVERT JUMPDEST SWAP2 SWAP1 MSTORE SWAP1 JUMP JUMPDEST PUSH1 0x0 PUSH1 0x20 DUP1 DUP4 MSTORE DUP4 MLOAD DUP1 DUP3 DUP6 ADD MSTORE DUP3 JUMPDEST DUP2 DUP2 LT ISZERO PUSH2 0x25F3 JUMPI DUP6 DUP2 ADD DUP4 ADD MLOAD DUP6 DUP3 ADD PUSH1 0x40 ADD MSTORE DUP3 ADD PUSH2 0x25D7 JUMP JUMPDEST DUP2 DUP2 GT ISZERO PUSH2 0x2604 JUMPI DUP4 PUSH1 0x40 DUP4 DUP8 ADD ADD MSTORE JUMPDEST POP PUSH1 0x1F ADD PUSH1 0x1F NOT AND SWAP3 SWAP1 SWAP3 ADD PUSH1 0x40 ADD SWAP4 SWAP3 POP POP POP JUMP JUMPDEST PUSH1 0x20 DUP1 DUP3 MSTORE PUSH1 0x24 SWAP1 DUP3 ADD MSTORE PUSH32 0x4C6F616E206973206E6F7420616374697665206F7220696E207072652D646566 PUSH1 0x40 DUP3 ADD MSTORE PUSH4 0x185D5B1D PUSH1 0xE2 SHL PUSH1 0x60 DUP3 ADD MSTORE PUSH1 0x80 ADD SWAP1 JUMP JUMPDEST PUSH1 0x20 DUP1 DUP3 MSTORE PUSH1 0x10 SWAP1 DUP3 ADD MSTORE PUSH16 0x4E6F7468696E6720746F20636C61696D PUSH1 0x80 SHL PUSH1 0x40 DUP3 ADD MSTORE PUSH1 0x60 ADD SWAP1 JUMP JUMPDEST PUSH1 0x20 DUP1 DUP3 MSTORE PUSH1 0x1E SWAP1 DUP3 ADD MSTORE PUSH32 0x4F6C642061646472657373206973206E6F7420616E20696E766573746F720000 PUSH1 0x40 DUP3 ADD MSTORE PUSH1 0x60 ADD SWAP1 JUMP JUMPDEST PUSH1 0x20 DUP1 DUP3 MSTORE PUSH1 0x1B SWAP1 DUP3 ADD MSTORE PUSH32 0x52656769737472792061646472657373206973206E6F74207365740000000000 PUSH1 0x40 DUP3 ADD MSTORE PUSH1 0x60 ADD SWAP1 JUMP JUMPDEST PUSH1 0x20 DUP1 DUP3 MSTORE PUSH1 0x1B SWAP1 DUP3 ADD MSTORE PUSH32 0x5375636365737320666565207472616E73666572206661696C65640000000000 PUSH1 0x40 DUP3 ADD MSTORE PUSH1 0x60 ADD SWAP1 JUMP JUMPDEST PUSH1 0x20 DUP1 DUP3 MSTORE PUSH1 0x21 SWAP1 DUP3 ADD MSTORE PUSH32 0x5468697320636F6E747261637420646F6573206E6F7420616363657074204554 PUSH1 0x40 DUP3 ADD MSTORE PUSH1 0x9 PUSH1 0xFB SHL PUSH1 0x60 DUP3 ADD MSTORE PUSH1 0x80 ADD SWAP1 JUMP JUMPDEST PUSH1 0x20 DUP1 DUP3 MSTORE PUSH1 0xF SWAP1 DUP3 ADD MSTORE PUSH15 0x2737BA1030B71034B73B32B9BA37B9 PUSH1 0x89 SHL PUSH1 0x40 DUP3 ADD MSTORE PUSH1 0x60 ADD SWAP1 JUMP JUMPDEST PUSH1 0x20 DUP1 DUP3 MSTORE PUSH1 0x19 SWAP1 DUP3 ADD MSTORE PUSH32 0x536574757020666565207472616E73666572206661696C656400000000000000 PUSH1 0x40 DUP3 ADD MSTORE PUSH1 0x60 ADD SWAP1 JUMP JUMPDEST PUSH1 0x20 DUP1 DUP3 MSTORE PUSH1 0x15 SWAP1 DUP3 ADD MSTORE PUSH21 0x151BDAD95B881D1C985B9CD9995C8819985A5B1959 PUSH1 0x5A SHL PUSH1 0x40 DUP3 ADD MSTORE PUSH1 0x60 ADD SWAP1 JUMP JUMPDEST PUSH1 0x20 DUP1 DUP3 MSTORE PUSH1 0x1C SWAP1 DUP3 ADD MSTORE PUSH32 0x4C6F616E206973206E6F7420616374697665206F7220636C6F73656400000000 PUSH1 0x40 DUP3 ADD MSTORE PUSH1 0x60 ADD SWAP1 JUMP JUMPDEST PUSH1 0x20 DUP1 DUP3 MSTORE PUSH1 0x23 SWAP1 DUP3 ADD MSTORE PUSH32 0x426F72726F7765722063616E6E6F742066756E64207468656972206F776E206C PUSH1 0x40 DUP3 ADD MSTORE PUSH3 0x37B0B7 PUSH1 0xE9 SHL PUSH1 0x60 DUP3 ADD MSTORE PUSH1 0x80 ADD SWAP1 JUMP JUMPDEST PUSH1 0x20 DUP1 DUP3 MSTORE PUSH1 0x21 SWAP1 DUP3 ADD MSTORE PUSH32 0x43616E6E6F742073746F702066756E64696E6720617420746869732073746167 PUSH1 0x40 DUP3 ADD MSTORE PUSH1 0x65 PUSH1 0xF8 SHL PUSH1 0x60 DUP3 ADD MSTORE PUSH1 0x80 ADD SWAP1 JUMP JUMPDEST PUSH1 0x20 DUP1 DUP3 MSTORE PUSH1 0x28 SWAP1 DUP3 ADD MSTORE PUSH32 0x46756E64696E6720616D6F756E74206D75737420626520677265617465722074 PUSH1 0x40 DUP3 ADD MSTORE PUSH8 0x68616E207A65726F PUSH1 0xC0 SHL PUSH1 0x60 DUP3 ADD MSTORE PUSH1 0x80 ADD SWAP1 JUMP JUMPDEST PUSH1 0x20 DUP1 DUP3 MSTORE PUSH1 0x10 SWAP1 DUP3 ADD MSTORE PUSH16 0x105B1C9958591E481C99599D5B991959 PUSH1 0x82 SHL PUSH1 0x40 DUP3 ADD MSTORE PUSH1 0x60 ADD SWAP1 JUMP JUMPDEST PUSH1 0x20 DUP1 DUP3 MSTORE PUSH1 0x22 SWAP1 DUP3 ADD MSTORE PUSH32 0x4E6577206164647265737320697320616C726561647920616E20696E76657374 PUSH1 0x40 DUP3 ADD MSTORE PUSH2 0x37B9 PUSH1 0xF1 SHL PUSH1 0x60 DUP3 ADD MSTORE PUSH1 0x80 ADD SWAP1 JUMP JUMPDEST PUSH1 0x20 DUP1 DUP3 MSTORE PUSH1 0x2E SWAP1 DUP3 ADD MSTORE PUSH32 0x496E766573746F7220646F6573206E6F74206D65657420636F6D706C69616E63 PUSH1 0x40 DUP3 ADD MSTORE PUSH14 0x6520726571756972656D656E7473 PUSH1 0x90 SHL PUSH1 0x60 DUP3 ADD MSTORE PUSH1 0x80 ADD SWAP1 JUMP JUMPDEST PUSH1 0x20 DUP1 DUP3 MSTORE PUSH1 0x1B SWAP1 DUP3 ADD MSTORE PUSH32 0x416464726573736573206D75737420626520646966666572656E740000000000 PUSH1 0x40 DUP3 ADD MSTORE PUSH1 0x60 ADD SWAP1 JUMP JUMPDEST PUSH1 0x20 DUP1 DUP3 MSTORE PUSH1 0x24 SWAP1 DUP3 ADD MSTORE PUSH32 0x4F6E6C7920626F72726F7765722063616E2063616C6C20746869732066756E63 PUSH1 0x40 DUP3 ADD MSTORE PUSH4 0x3A34B7B7 PUSH1 0xE1 SHL PUSH1 0x60 DUP3 ADD MSTORE PUSH1 0x80 ADD SWAP1 JUMP JUMPDEST PUSH1 0x20 DUP1 DUP3 MSTORE PUSH1 0x1C SWAP1 DUP3 ADD MSTORE PUSH32 0x46756E64696E6720676F616C20616C7265616479207265616368656400000000 PUSH1 0x40 DUP3 ADD MSTORE PUSH1 0x60 ADD SWAP1 JUMP JUMPDEST PUSH1 0x20 DUP1 DUP3 MSTORE PUSH1 0x1C SWAP1 DUP3 ADD MSTORE PUSH32 0x4C6F616E206973206E6F7420696E2046756E6465642073746174757300000000 PUSH1 0x40 DUP3 ADD MSTORE PUSH1 0x60 ADD SWAP1 JUMP JUMPDEST PUSH1 0x20 DUP1 DUP3 MSTORE PUSH1 0x1C SWAP1 DUP3 ADD MSTORE PUSH32 0x526573657276652066756E64207472616E73666572206661696C656400000000 PUSH1 0x40 DUP3 ADD MSTORE PUSH1 0x60 ADD SWAP1 JUMP JUMPDEST PUSH1 0x20 DUP1 DUP3 MSTORE PUSH1 0x13 SWAP1 DUP3 ADD MSTORE PUSH19 0x496E76616C6964206C6F616E20737461747573 PUSH1 0x68 SHL PUSH1 0x40 DUP3 ADD MSTORE PUSH1 0x60 ADD SWAP1 JUMP JUMPDEST PUSH1 0x20 DUP1 DUP3 MSTORE PUSH1 0x16 SWAP1 DUP3 ADD MSTORE PUSH22 0x1499599D5B99081D1C985B9CD9995C8819985A5B1959 PUSH1 0x52 SHL PUSH1 0x40 DUP3 ADD MSTORE PUSH1 0x60 ADD SWAP1 JUMP JUMPDEST PUSH1 0x20 DUP1 DUP3 MSTORE PUSH1 0x18 SWAP1 DUP3 ADD MSTORE PUSH32 0x46756E64696E6720706572696F642068617320656E6465640000000000000000 PUSH1 0x40 DUP3 ADD MSTORE PUSH1 0x60 ADD SWAP1 JUMP JUMPDEST PUSH1 0x20 DUP1 DUP3 MSTORE PUSH1 0x28 SWAP1 DUP3 ADD MSTORE PUSH32 0x4F6E6C7920657363726F772061646D696E2063616E2063616C6C207468697320 PUSH1 0x40 DUP3 ADD MSTORE PUSH8 0x333AB731BA34B7B7 PUSH1 0xC1 SHL PUSH1 0x60 DUP3 ADD MSTORE PUSH1 0x80 ADD SWAP1 JUMP JUMPDEST PUSH1 0x20 DUP1 DUP3 MSTORE PUSH1 0x14 SWAP1 DUP3 ADD MSTORE PUSH20 0x119D5B991A5B99C8191A59081B9BDD0819985A5B PUSH1 0x62 SHL PUSH1 0x40 DUP3 ADD MSTORE PUSH1 0x60 ADD SWAP1 JUMP JUMPDEST PUSH1 0x20 DUP1 DUP3 MSTORE PUSH1 0x1F SWAP1 DUP3 ADD MSTORE PUSH32 0x5265656E7472616E637947756172643A207265656E7472616E742063616C6C00 PUSH1 0x40 DUP3 ADD MSTORE PUSH1 0x60 ADD SWAP1 JUMP JUMPDEST PUSH1 0x20 DUP1 DUP3 MSTORE PUSH1 0x1B SWAP1 DUP3 ADD MSTORE PUSH32 0x5472616E7366657220746F20626F72726F776572206661696C65640000000000 PUSH1 0x40 DUP3 ADD MSTORE PUSH1 0x60 ADD SWAP1 JUMP JUMPDEST SWAP2 DUP3 MSTORE PUSH1 0x20 DUP3 ADD MSTORE PUSH1 0x40 ADD SWAP1 JUMP JUMPDEST SWAP3 DUP4 MSTORE PUSH1 0x20 DUP4 ADD SWAP2 SWAP1 SWAP2 MSTORE ISZERO ISZERO PUSH1 0x40 DUP3 ADD MSTORE PUSH1 0x60 ADD SWAP1 JUMP JUMPDEST PUSH1 0x0 DUP3 NOT DUP3 GT ISZERO PUSH2 0x2C8B JUMPI PUSH2 0x2C8B PUSH2 0x2D3C JUMP JUMPDEST POP ADD SWAP1 JUMP JUMPDEST PUSH1 0x0 DUP3 PUSH2 0x2CAB JUMPI PUSH4 0x4E487B71 PUSH1 0xE0 SHL DUP2 MSTORE PUSH1 0x12 PUSH1 0x4 MSTORE PUSH1 0x24 DUP2 REVERT JUMPDEST POP DIV SWAP1 JUMP JUMPDEST PUSH1 0x0 DUP2 PUSH1 0x0 NOT DIV DUP4 GT DUP3 ISZERO ISZERO AND ISZERO PUSH2 0x2CCA JUMPI PUSH2 0x2CCA PUSH2 0x2D3C JUMP JUMPDEST POP MUL SWAP1 JUMP JUMPDEST PUSH1 0x0 DUP3 DUP3 LT ISZERO PUSH2 0x2CE1 JUMPI PUSH2 0x2CE1 PUSH2 0x2D3C JUMP JUMPDEST POP SUB SWAP1 JUMP JUMPDEST PUSH1 0x2 DUP2 DIV PUSH1 0x1 DUP3 AND DUP1 PUSH2 0x2CFA JUMPI PUSH1 0x7F DUP3 AND SWAP2 POP JUMPDEST PUSH1 0x20 DUP3 LT DUP2 EQ ISZERO PUSH2 0x2D1B JUMPI PUSH4 0x4E487B71 PUSH1 0xE0 SHL PUSH1 0x0 MSTORE PUSH1 0x22 PUSH1 0x4 MSTORE PUSH1 0x24 PUSH1 0x0 REVERT JUMPDEST POP SWAP2 SWAP1 POP JUMP JUMPDEST PUSH1 0x0 PUSH1 0x0 NOT DUP3 EQ ISZERO PUSH2 0x2D35 JUMPI PUSH2 0x2D35 PUSH2 0x2D3C JUMP JUMPDEST POP PUSH1 0x1 ADD SWAP1 JUMP JUMPDEST PUSH4 0x4E487B71 PUSH1 0xE0 SHL PUSH1 0x0 MSTORE PUSH1 0x11 PUSH1 0x4 MSTORE PUSH1 0x24 PUSH1 0x0 REVERT INVALID LOG2 PUSH5 0x6970667358 0x22 SLT KECCAK256 MUL CODECOPY JUMPDEST 0xD5 0x21 LOG2 SGT SWAP4 0xBE 0xB4 0xE2 SWAP9 0xB3 PUSH12 0xBDD5400BCC75AFE8EE2F4986 PUSH15 0x6BA5132E6964736F6C634300080000 CALLER "},"methodIdentifiers":{"activateLoan()":"b2a9bb60","amountNeeded()":"1ba11f44","borrower()":"7df1f1b9","borrowerRate()":"2f5f0cfb","calculateDefaultPenalty()":"b5e5ac19","calculateEarlyRepaymentPenalty()":"e2a398a7","calculateInvestorOwed(address)":"a32d0765","changeInvestorAddress(address,address)":"4419da33","claim()":"4e71d92d","closeFunding()":"31a3a506","compliance()":"6290865d","earlyRepay()":"c9e51109","escrowAdmin()":"8761fb7c","fund(uint256)":"ca1d209d","fundingDeadline()":"796b23bb","fundingToken()":"78065f27","getEarlyRepaymentAmount()":"e0b027f7","getInvestors()":"b2f5a54c","getNextPaymentAmount()":"de36e39c","getNextPaymentDate()":"09c12ccb","getOutstandingPrincipal()":"5a1a691a","getTotalDebt()":"34ce998a","investorList(uint256)":"12f9b48e","investorRate()":"41f3dd47","investors(address)":"6f7bc9be","kycRequired()":"b9699091","loanFundedDate()":"58647ab8","loanMetadataURI()":"709c8a0a","loanStartDate()":"183b0668","loanTermMonths()":"39b6767a","platformRate()":"36e0cac6","poolMetadataURI()":"78830fb1","protocolWallet()":"06d6e63f","refund()":"590e1ae3","registry()":"7b103999","repay()":"402d8883","reserveFundAddress()":"4b58d0bb","setupFee()":"a40b56b9","status()":"200d2ed2","stopFunding()":"4477c5da","totalFunded()":"ad044f49","totalPaymentsMade()":"d59c2733","totalRepaid()":"a72dad05"}}}}}