{
  "_format": "hh-sol-artifact-1",
  "contractName": "LoanPool",
  "sourceName": "contracts/LoanPool.sol",
  "abi": [
    {
      "inputs": [
        {
          "components": [
            {
              "internalType": "address",
              "name": "borrower",
              "type": "address"
            },
            {
              "internalType": "address",
              "name": "escrowAdmin",
              "type": "address"
            },
            {
              "internalType": "address",
              "name": "fundingToken",
              "type": "address"
            },
            {
              "internalType": "address",
              "name": "protocolWallet",
              "type": "address"
            },
            {
              "internalType": "address",
              "name": "reserveFundAddress",
              "type": "address"
            }
          ],
          "internalType": "struct LoanPool.Addresses",
          "name": "_addresses",
          "type": "tuple"
        },
        {
          "components": [
            {
              "internalType": "uint256",
              "name": "amountNeeded",
              "type": "uint256"
            },
            {
              "internalType": "uint256",
              "name": "borrowerRate",
              "type": "uint256"
            },
            {
              "internalType": "uint256",
              "name": "platformRate",
              "type": "uint256"
            },
            {
              "internalType": "uint256",
              "name": "loanTermMonths",
              "type": "uint256"
            },
            {
              "internalType": "uint256",
              "name": "fundingDeadline",
              "type": "uint256"
            },
            {
              "internalType": "uint256",
              "name": "setupFee",
              "type": "uint256"
            }
          ],
          "internalType": "struct LoanPool.LoanParameters",
          "name": "_loanParams",
          "type": "tuple"
        },
        {
          "components": [
            {
              "internalType": "bool",
              "name": "kycRequired",
              "type": "bool"
            },
            {
              "internalType": "address",
              "name": "registry",
              "type": "address"
            },
            {
              "internalType": "bytes32",
              "name": "compliance",
              "type": "bytes32"
            }
          ],
          "internalType": "struct LoanPool.ComplianceInfo",
          "name": "_complianceInfo",
          "type": "tuple"
        },
        {
          "components": [
            {
              "internalType": "string",
              "name": "poolMetadataURI",
              "type": "string"
            },
            {
              "internalType": "string",
              "name": "loanMetadataURI",
              "type": "string"
            }
          ],
          "internalType": "struct LoanPool.MetadataURIs",
          "name": "_metadataURIs",
          "type": "tuple"
        }
      ],
      "stateMutability": "nonpayable",
      "type": "constructor"
    },
    {
      "anonymous": false,
      "inputs": [
        {
          "indexed": true,
          "internalType": "address",
          "name": "investor",
          "type": "address"
        },
        {
          "indexed": false,
          "internalType": "uint256",
          "name": "amount",
          "type": "uint256"
        }
      ],
      "name": "Claimed",
      "type": "event"
    },
    {
      "anonymous": false,
      "inputs": [
        {
          "indexed": false,
          "internalType": "uint256",
          "name": "amount",
          "type": "uint256"
        },
        {
          "indexed": false,
          "internalType": "uint256",
          "name": "penalty",
          "type": "uint256"
        }
      ],
      "name": "EarlyRepaid",
      "type": "event"
    },
    {
      "anonymous": false,
      "inputs": [
        {
          "indexed": true,
          "internalType": "address",
          "name": "investor",
          "type": "address"
        },
        {
          "indexed": false,
          "internalType": "uint256",
          "name": "amount",
          "type": "uint256"
        }
      ],
      "name": "Funded",
      "type": "event"
    },
    {
      "anonymous": false,
      "inputs": [],
      "name": "FundingClosed",
      "type": "event"
    },
    {
      "anonymous": false,
      "inputs": [],
      "name": "FundingFailed",
      "type": "event"
    },
    {
      "anonymous": false,
      "inputs": [],
      "name": "FundingStoppedByAdmin",
      "type": "event"
    },
    {
      "anonymous": false,
      "inputs": [
        {
          "indexed": true,
          "internalType": "address",
          "name": "oldAddress",
          "type": "address"
        },
        {
          "indexed": true,
          "internalType": "address",
          "name": "newAddress",
          "type": "address"
        }
      ],
      "name": "InvestorAddressChanged",
      "type": "event"
    },
    {
      "anonymous": false,
      "inputs": [],
      "name": "LoanActivated",
      "type": "event"
    },
    {
      "anonymous": false,
      "inputs": [],
      "name": "LoanClosed",
      "type": "event"
    },
    {
      "anonymous": false,
      "inputs": [],
      "name": "LoanDefaulted",
      "type": "event"
    },
    {
      "anonymous": false,
      "inputs": [],
      "name": "PaymentMissed",
      "type": "event"
    },
    {
      "anonymous": false,
      "inputs": [
        {
          "indexed": true,
          "internalType": "address",
          "name": "investor",
          "type": "address"
        },
        {
          "indexed": false,
          "internalType": "uint256",
          "name": "amount",
          "type": "uint256"
        }
      ],
      "name": "Refunded",
      "type": "event"
    },
    {
      "anonymous": false,
      "inputs": [
        {
          "indexed": false,
          "internalType": "uint256",
          "name": "amount",
          "type": "uint256"
        }
      ],
      "name": "RepaymentMade",
      "type": "event"
    },
    {
      "inputs": [],
      "name": "activateLoan",
      "outputs": [],
      "stateMutability": "nonpayable",
      "type": "function"
    },
    {
      "inputs": [],
      "name": "amountNeeded",
      "outputs": [
        {
          "internalType": "uint256",
          "name": "",
          "type": "uint256"
        }
      ],
      "stateMutability": "view",
      "type": "function"
    },
    {
      "inputs": [],
      "name": "borrower",
      "outputs": [
        {
          "internalType": "address",
          "name": "",
          "type": "address"
        }
      ],
      "stateMutability": "view",
      "type": "function"
    },
    {
      "inputs": [],
      "name": "borrowerRate",
      "outputs": [
        {
          "internalType": "uint256",
          "name": "",
          "type": "uint256"
        }
      ],
      "stateMutability": "view",
      "type": "function"
    },
    {
      "inputs": [],
      "name": "calculateDefaultPenalty",
      "outputs": [
        {
          "internalType": "uint256",
          "name": "",
          "type": "uint256"
        }
      ],
      "stateMutability": "view",
      "type": "function"
    },
    {
      "inputs": [],
      "name": "calculateEarlyRepaymentPenalty",
      "outputs": [
        {
          "internalType": "uint256",
          "name": "",
          "type": "uint256"
        }
      ],
      "stateMutability": "view",
      "type": "function"
    },
    {
      "inputs": [
        {
          "internalType": "address",
          "name": "_investor",
          "type": "address"
        }
      ],
      "name": "calculateInvestorOwed",
      "outputs": [
        {
          "internalType": "uint256",
          "name": "",
          "type": "uint256"
        }
      ],
      "stateMutability": "view",
      "type": "function"
    },
    {
      "inputs": [
        {
          "internalType": "address",
          "name": "_oldAddress",
          "type": "address"
        },
        {
          "internalType": "address",
          "name": "_newAddress",
          "type": "address"
        }
      ],
      "name": "changeInvestorAddress",
      "outputs": [],
      "stateMutability": "nonpayable",
      "type": "function"
    },
    {
      "inputs": [],
      "name": "claim",
      "outputs": [],
      "stateMutability": "nonpayable",
      "type": "function"
    },
    {
      "inputs": [],
      "name": "closeFunding",
      "outputs": [],
      "stateMutability": "nonpayable",
      "type": "function"
    },
    {
      "inputs": [],
      "name": "compliance",
      "outputs": [
        {
          "internalType": "bytes32",
          "name": "",
          "type": "bytes32"
        }
      ],
      "stateMutability": "view",
      "type": "function"
    },
    {
      "inputs": [],
      "name": "earlyRepay",
      "outputs": [],
      "stateMutability": "nonpayable",
      "type": "function"
    },
    {
      "inputs": [],
      "name": "escrowAdmin",
      "outputs": [
        {
          "internalType": "address",
          "name": "",
          "type": "address"
        }
      ],
      "stateMutability": "view",
      "type": "function"
    },
    {
      "inputs": [
        {
          "internalType": "uint256",
          "name": "_amount",
          "type": "uint256"
        }
      ],
      "name": "fund",
      "outputs": [],
      "stateMutability": "nonpayable",
      "type": "function"
    },
    {
      "inputs": [],
      "name": "fundingDeadline",
      "outputs": [
        {
          "internalType": "uint256",
          "name": "",
          "type": "uint256"
        }
      ],
      "stateMutability": "view",
      "type": "function"
    },
    {
      "inputs": [],
      "name": "fundingToken",
      "outputs": [
        {
          "internalType": "contract IERC20",
          "name": "",
          "type": "address"
        }
      ],
      "stateMutability": "view",
      "type": "function"
    },
    {
      "inputs": [],
      "name": "getEarlyRepaymentAmount",
      "outputs": [
        {
          "internalType": "uint256",
          "name": "",
          "type": "uint256"
        }
      ],
      "stateMutability": "view",
      "type": "function"
    },
    {
      "inputs": [],
      "name": "getInvestors",
      "outputs": [
        {
          "internalType": "address[]",
          "name": "",
          "type": "address[]"
        }
      ],
      "stateMutability": "view",
      "type": "function"
    },
    {
      "inputs": [],
      "name": "getNextPaymentAmount",
      "outputs": [
        {
          "internalType": "uint256",
          "name": "",
          "type": "uint256"
        }
      ],
      "stateMutability": "view",
      "type": "function"
    },
    {
      "inputs": [],
      "name": "getNextPaymentDate",
      "outputs": [
        {
          "internalType": "uint256",
          "name": "",
          "type": "uint256"
        }
      ],
      "stateMutability": "view",
      "type": "function"
    },
    {
      "inputs": [],
      "name": "getOutstandingPrincipal",
      "outputs": [
        {
          "internalType": "uint256",
          "name": "",
          "type": "uint256"
        }
      ],
      "stateMutability": "view",
      "type": "function"
    },
    {
      "inputs": [],
      "name": "getTotalDebt",
      "outputs": [
        {
          "internalType": "uint256",
          "name": "",
          "type": "uint256"
        }
      ],
      "stateMutability": "view",
      "type": "function"
    },
    {
      "inputs": [
        {
          "internalType": "uint256",
          "name": "",
          "type": "uint256"
        }
      ],
      "name": "investorList",
      "outputs": [
        {
          "internalType": "address",
          "name": "",
          "type": "address"
        }
      ],
      "stateMutability": "view",
      "type": "function"
    },
    {
      "inputs": [],
      "name": "investorRate",
      "outputs": [
        {
          "internalType": "uint256",
          "name": "",
          "type": "uint256"
        }
      ],
      "stateMutability": "view",
      "type": "function"
    },
    {
      "inputs": [
        {
          "internalType": "address",
          "name": "",
          "type": "address"
        }
      ],
      "name": "investors",
      "outputs": [
        {
          "internalType": "uint256",
          "name": "amountFunded",
          "type": "uint256"
        },
        {
          "internalType": "uint256",
          "name": "amountWithdrawn",
          "type": "uint256"
        },
        {
          "internalType": "bool",
          "name": "refunded",
          "type": "bool"
        }
      ],
      "stateMutability": "view",
      "type": "function"
    },
    {
      "inputs": [],
      "name": "kycRequired",
      "outputs": [
        {
          "internalType": "bool",
          "name": "",
          "type": "bool"
        }
      ],
      "stateMutability": "view",
      "type": "function"
    },
    {
      "inputs": [],
      "name": "loanFundedDate",
      "outputs": [
        {
          "internalType": "uint256",
          "name": "",
          "type": "uint256"
        }
      ],
      "stateMutability": "view",
      "type": "function"
    },
    {
      "inputs": [],
      "name": "loanMetadataURI",
      "outputs": [
        {
          "internalType": "string",
          "name": "",
          "type": "string"
        }
      ],
      "stateMutability": "view",
      "type": "function"
    },
    {
      "inputs": [],
      "name": "loanStartDate",
      "outputs": [
        {
          "internalType": "uint256",
          "name": "",
          "type": "uint256"
        }
      ],
      "stateMutability": "view",
      "type": "function"
    },
    {
      "inputs": [],
      "name": "loanTermMonths",
      "outputs": [
        {
          "internalType": "uint256",
          "name": "",
          "type": "uint256"
        }
      ],
      "stateMutability": "view",
      "type": "function"
    },
    {
      "inputs": [],
      "name": "platformRate",
      "outputs": [
        {
          "internalType": "uint256",
          "name": "",
          "type": "uint256"
        }
      ],
      "stateMutability": "view",
      "type": "function"
    },
    {
      "inputs": [],
      "name": "poolMetadataURI",
      "outputs": [
        {
          "internalType": "string",
          "name": "",
          "type": "string"
        }
      ],
      "stateMutability": "view",
      "type": "function"
    },
    {
      "inputs": [],
      "name": "protocolWallet",
      "outputs": [
        {
          "internalType": "address",
          "name": "",
          "type": "address"
        }
      ],
      "stateMutability": "view",
      "type": "function"
    },
    {
      "inputs": [],
      "name": "refund",
      "outputs": [],
      "stateMutability": "nonpayable",
      "type": "function"
    },
    {
      "inputs": [],
      "name": "registry",
      "outputs": [
        {
          "internalType": "address",
          "name": "",
          "type": "address"
        }
      ],
      "stateMutability": "view",
      "type": "function"
    },
    {
      "inputs": [],
      "name": "repay",
      "outputs": [],
      "stateMutability": "nonpayable",
      "type": "function"
    },
    {
      "inputs": [],
      "name": "reserveFundAddress",
      "outputs": [
        {
          "internalType": "address",
          "name": "",
          "type": "address"
        }
      ],
      "stateMutability": "view",
      "type": "function"
    },
    {
      "inputs": [],
      "name": "setupFee",
      "outputs": [
        {
          "internalType": "uint256",
          "name": "",
          "type": "uint256"
        }
      ],
      "stateMutability": "view",
      "type": "function"
    },
    {
      "inputs": [],
      "name": "status",
      "outputs": [
        {
          "internalType": "enum LoanPool.LoanStatus",
          "name": "",
          "type": "uint8"
        }
      ],
      "stateMutability": "view",
      "type": "function"
    },
    {
      "inputs": [],
      "name": "stopFunding",
      "outputs": [],
      "stateMutability": "nonpayable",
      "type": "function"
    },
    {
      "inputs": [],
      "name": "totalFunded",
      "outputs": [
        {
          "internalType": "uint256",
          "name": "",
          "type": "uint256"
        }
      ],
      "stateMutability": "view",
      "type": "function"
    },
    {
      "inputs": [],
      "name": "totalPaymentsMade",
      "outputs": [
        {
          "internalType": "uint256",
          "name": "",
          "type": "uint256"
        }
      ],
      "stateMutability": "view",
      "type": "function"
    },
    {
      "inputs": [],
      "name": "totalRepaid",
      "outputs": [
        {
          "internalType": "uint256",
          "name": "",
          "type": "uint256"
        }
      ],
      "stateMutability": "view",
      "type": "function"
    },
    {
      "stateMutability": "payable",
      "type": "receive"
    }
  ],
  "bytecode": "0x60806040523480156200001157600080fd5b5060405162003760380380620037608339810160408190526200003491620005f2565b600160005583516001600160a01b03166200006c5760405162461bcd60e51b815260040162000063906200076c565b60405180910390fd5b60208401516001600160a01b0316620000995760405162461bcd60e51b81526004016200006390620007a3565b60408401516001600160a01b0316620000c65760405162461bcd60e51b8152600401620000639062000821565b60608401516001600160a01b0316620000f35760405162461bcd60e51b815260040162000063906200089e565b60808401516001600160a01b0316620001205760405162461bcd60e51b81526004016200006390620006f3565b8251620001415760405162461bcd60e51b81526004016200006390620007da565b6000836060015111620001685760405162461bcd60e51b815260040162000063906200072a565b428360800151116200018e5760405162461bcd60e51b8152600401620000639062000858565b8260400151836020015111620001b85760405162461bcd60e51b81526004016200006390620008d5565b8351600180546001600160a01b03199081166001600160a01b03938416179091556020808701516002805484169185169190911790556040808801516003805485169186169190911790556060880151601080548516918616919091179055608088015160118054909416941693909317909155845160045584810151600781905591850151600881905562000258929162000305811b6200215b17901c565b6009556060830151600a556080830151600b5560a0830151600f5581516011805460ff60a01b1916600160a01b92151592909202919091179055602080830151601280546001600160a01b0319166001600160a01b03909216919091179055604083015160135581518051620002d39260149201906200031a565b506020808201518051620002ec9260159201906200031a565b50506003805460ff60a01b1916905550620009c8915050565b600062000313828462000951565b9392505050565b828054620003289062000975565b90600052602060002090601f0160209004810192826200034c576000855562000397565b82601f106200036757805160ff191683800117855562000397565b8280016001018555821562000397579182015b82811115620003975782518255916020019190600101906200037a565b50620003a5929150620003a9565b5090565b5b80821115620003a55760008155600101620003aa565b80516001600160a01b0381168114620003d857600080fd5b919050565b600082601f830112620003ee578081fd5b81516001600160401b038111156200040a576200040a620009b2565b602062000420601f8301601f1916820162000925565b828152858284870101111562000434578384fd5b835b838110156200045357858101830151828201840152820162000436565b838111156200046457848385840101525b5095945050505050565b60006060828403121562000480578081fd5b604051606081016001600160401b0381118282101715620004a557620004a5620009b2565b806040525080915082518015158114620004be57600080fd5b8152620004ce60208401620003c0565b6020820152604083015160408201525092915050565b600060c08284031215620004f6578081fd5b60405160c081016001600160401b03811182821017156200051b576200051b620009b2565b8060405250809150825181526020830151602082015260408301516040820152606083015160608201526080830151608082015260a083015160a08201525092915050565b60006040828403121562000572578081fd5b604080519081016001600160401b038082118383101715620005985762000598620009b2565b816040528293508451915080821115620005b157600080fd5b620005bf86838701620003dd565b83526020850151915080821115620005d657600080fd5b50620005e585828601620003dd565b6020830152505092915050565b6000806000808486036101e08112156200060a578485fd5b60a081121562000618578485fd5b5060405160a081016001600160401b0380821183831017156200063f576200063f620009b2565b816040526200064e88620003c0565b83526200065e60208901620003c0565b60208401526200067160408901620003c0565b60408401526200068460608901620003c0565b60608401526200069760808901620003c0565b6080840152829650620006ae8960a08a01620004e4565b9550620006c0896101608a016200046e565b94506101c0880151925080831115620006d7578384fd5b5050620006e78782880162000560565b91505092959194509250565b6020808252601c908201527f496e76616c696420726573657276652066756e64206164647265737300000000604082015260600190565b60208082526022908201527f4c6f616e207465726d206d757374206265206174206c656173742031206d6f6e6040820152610e8d60f31b606082015260800190565b60208082526018908201527f496e76616c696420626f72726f77657220616464726573730000000000000000604082015260600190565b6020808252601c908201527f496e76616c696420657363726f772061646d696e206164647265737300000000604082015260600190565b60208082526027908201527f416d6f756e74206e6565646564206d7573742062652067726561746572207468604082015266616e207a65726f60c81b606082015260800190565b6020808252601d908201527f496e76616c69642066756e64696e6720746f6b656e2061646472657373000000604082015260600190565b60208082526026908201527f46756e64696e6720646561646c696e65206d75737420626520696e207468652060408201526566757475726560d01b606082015260800190565b6020808252601f908201527f496e76616c69642070726f746f636f6c2077616c6c6574206164647265737300604082015260600190565b60208082526030908201527f426f72726f7765722072617465206d757374206265206772656174657220746860408201526f616e20706c6174666f726d207261746560801b606082015260800190565b6040518181016001600160401b0381118282101715620009495762000949620009b2565b604052919050565b6000828210156200097057634e487b7160e01b81526011600452602481fd5b500390565b6002810460018216806200098a57607f821691505b60208210811415620009ac57634e487b7160e01b600052602260045260246000fd5b50919050565b634e487b7160e01b600052604160045260246000fd5b612d8880620009d86000396000f3fe6080604052600436106102605760003560e01c80636f7bc9be11610144578063ad044f49116100b6578063c9e511091161007a578063c9e5110914610628578063ca1d209d1461063d578063d59c27331461065d578063de36e39c14610672578063e0b027f714610687578063e2a398a71461069c57610286565b8063ad044f49146105a5578063b2a9bb60146105ba578063b2f5a54c146105cf578063b5e5ac19146105f1578063b96990911461060657610286565b80637b103999116101085780637b1039991461051c5780637df1f1b9146105315780638761fb7c14610546578063a32d07651461055b578063a40b56b91461057b578063a72dad051461059057610286565b80636f7bc9be1461048c578063709c8a0a146104bb57806378065f27146104dd57806378830fb1146104f2578063796b23bb1461050757610286565b806339b6767a116101dd5780634b58d0bb116101a15780634b58d0bb1461040e5780634e71d92d1461042357806358647ab814610438578063590e1ae31461044d5780635a1a691a146104625780636290865d1461047757610286565b806339b6767a1461039a578063402d8883146103af57806341f3dd47146103c45780634419da33146103d95780634477c5da146103f957610286565b8063200d2ed211610224578063200d2ed2146103225780632f5f0cfb1461034457806331a3a5061461035957806334ce998a1461037057806336e0cac61461038557610286565b806306d6e63f1461028b57806309c12ccb146102b657806312f9b48e146102d8578063183b0668146102f85780631ba11f441461030d57610286565b366102865760405162461bcd60e51b815260040161027d9061272d565b60405180910390fd5b600080fd5b34801561029757600080fd5b506102a06106b1565b6040516102ad91906124d6565b60405180910390f35b3480156102c257600080fd5b506102cb6106c0565b6040516102ad919061257f565b3480156102e457600080fd5b506102a06102f33660046124be565b610763565b34801561030457600080fd5b506102cb61078d565b34801561031957600080fd5b506102cb610793565b34801561032e57600080fd5b50610337610799565b6040516102ad919061259f565b34801561035057600080fd5b506102cb6107a9565b34801561036557600080fd5b5061036e6107af565b005b34801561037c57600080fd5b506102cb610870565b34801561039157600080fd5b506102cb6108c7565b3480156103a657600080fd5b506102cb6108cd565b3480156103bb57600080fd5b5061036e6108d3565b3480156103d057600080fd5b506102cb610b2d565b3480156103e557600080fd5b5061036e6103f436600461246c565b610b33565b34801561040557600080fd5b5061036e610d5a565b34801561041a57600080fd5b506102a0610e7a565b34801561042f57600080fd5b5061036e610e89565b34801561044457600080fd5b506102cb61108e565b34801561045957600080fd5b5061036e611094565b34801561046e57600080fd5b506102cb611235565b34801561048357600080fd5b506102cb611287565b34801561049857600080fd5b506104ac6104a7366004612452565b61128d565b6040516102ad93929190612c60565b3480156104c757600080fd5b506104d06112b1565b6040516102ad91906125c7565b3480156104e957600080fd5b506102a061133f565b3480156104fe57600080fd5b506104d061134e565b34801561051357600080fd5b506102cb61135b565b34801561052857600080fd5b506102a0611361565b34801561053d57600080fd5b506102a0611370565b34801561055257600080fd5b506102a061137f565b34801561056757600080fd5b506102cb610576366004612452565b61138e565b34801561058757600080fd5b506102cb611463565b34801561059c57600080fd5b506102cb611469565b3480156105b157600080fd5b506102cb61146f565b3480156105c657600080fd5b5061036e611475565b3480156105db57600080fd5b506105e461189e565b6040516102ad9190612527565b3480156105fd57600080fd5b506102cb611900565b34801561061257600080fd5b5061061b61194f565b6040516102ad9190612574565b34801561063457600080fd5b5061036e61195f565b34801561064957600080fd5b5061036e6106583660046124be565b611b77565b34801561066957600080fd5b506102cb611fe2565b34801561067e57600080fd5b506102cb611fe8565b34801561069357600080fd5b506102cb61200c565b3480156106a857600080fd5b506102cb61202f565b6010546001600160a01b031681565b600060038054600160a01b900460ff1660068111156106ef57634e487b7160e01b600052602160045260246000fd5b1415801561072957506004600354600160a01b900460ff16600681111561072657634e487b7160e01b600052602160045260246000fd5b14155b1561073657506000610760565b600061075c61075362278d00600e5461216e90919063ffffffff16565b600c549061217a565b9150505b90565b6017818154811061077357600080fd5b6000918252602090912001546001600160a01b0316905081565b600c5481565b60045481565b600354600160a01b900460ff1681565b60075481565b6002546001600160a01b031633146107d95760405162461bcd60e51b815260040161027d90612b6e565b600080600354600160a01b900460ff16600681111561080857634e487b7160e01b600052602160045260246000fd5b146108255760405162461bcd60e51b815260040161027d90612ada565b61082d612186565b6003805460ff60a01b1916600160a01b17905542600d556040517ff3e84c4c82e83c0bdc90064809179d950d758f72209c55f7c851258b6b64d9ab90600090a150565b6000806108a7600c6108a16127106108a1600a5461089b60075460045461216e90919063ffffffff16565b9061216e565b906123fe565b905060006108c08260045461217a90919063ffffffff16565b9250505090565b60085481565b600a5481565b6001546001600160a01b031633146108fd5760405162461bcd60e51b815260040161027d906129f1565b61090561240a565b61090d612186565b60038054600160a01b900460ff16600681111561093a57634e487b7160e01b600052602160045260246000fd5b148061097157506004600354600160a01b900460ff16600681111561096f57634e487b7160e01b600052602160045260246000fd5b145b61098d5760405162461bcd60e51b815260040161027d9061261a565b6000610997611fe8565b6003546040516323b872dd60e01b81529192506001600160a01b0316906323b872dd906109cc903390309086906004016124ea565b602060405180830381600087803b1580156109e657600080fd5b505af11580156109fa573d6000803e3d6000fd5b505050506040513d601f19601f82011682018060405250810190610a1e919061249e565b610a3a5760405162461bcd60e51b815260040161027d906127ce565b600654610a47908261217a565b600655600e54610a5890600161217a565b600e556004600354600160a01b900460ff166006811115610a8957634e487b7160e01b600052602160045260246000fd5b1415610aa3576003805460ff60a01b1916600360a01b1790555b7f4002dba848920f438092e08090cfb5fc47144c22704268b402c9553a1b5adfe681604051610ad2919061257f565b60405180910390a1600a54600e5410610b22576003805460ff60a01b1916600360a11b1790556040517f409fced1b85ae32a29fb1e18894d8361a5f2653dc27adf7102d86175c2901d7c90600090a15b50610b2b612434565b565b60095481565b6002546001600160a01b03163314610b5d5760405162461bcd60e51b815260040161027d90612b6e565b806001600160a01b0316826001600160a01b03161415610b8f5760405162461bcd60e51b815260040161027d906129ba565b6001600160a01b038216600090815260166020526040902054610bc45760405162461bcd60e51b815260040161027d90612688565b6001600160a01b03811660009081526016602052604090205415610bfa5760405162461bcd60e51b815260040161027d9061292a565b6001600160a01b03808316600081815260166020526040808220938516825281208354815560018085018054918301919091556002808601805491909301805460ff909216151560ff19928316179055938352938290559281905582549091169091555b601754811015610d1557826001600160a01b031660178281548110610c9357634e487b7160e01b600052603260045260246000fd5b6000918252602090912001546001600160a01b03161415610d03578160178281548110610cd057634e487b7160e01b600052603260045260246000fd5b9060005260206000200160006101000a8154816001600160a01b0302191690836001600160a01b03160217905550610d15565b80610d0d81612d21565b915050610c5e565b50806001600160a01b0316826001600160a01b03167f1eb85c8fa2e7e0941bb56cc0d62e217d75aab70796408ddbdbc642a904b82f6260405160405180910390a35050565b6002546001600160a01b03163314610d845760405162461bcd60e51b815260040161027d90612b6e565b610d8c61240a565b6000600354600160a01b900460ff166006811115610dba57634e487b7160e01b600052602160045260246000fd5b1480610df157506001600354600160a01b900460ff166006811115610def57634e487b7160e01b600052602160045260246000fd5b145b610e0d5760405162461bcd60e51b815260040161027d90612877565b6003805460ff60a01b1916600160a11b1790556040517f362f189f5bf8fcf98b5a131743fc21dc5f5b13a3115367c7a6616b1e79711f7190600090a16040517f550a04e033ab49137d0f1000c4ab8717e7f011102ce92d50952c0272222a94a690600090a1610b2b612434565b6011546001600160a01b031681565b610e9161240a565b610e99612186565b60038054600160a01b900460ff166006811115610ec657634e487b7160e01b600052602160045260246000fd5b1480610efd57506006600354600160a01b900460ff166006811115610efb57634e487b7160e01b600052602160045260246000fd5b145b610f195760405162461bcd60e51b815260040161027d906127fd565b3360009081526016602052604090208054610f465760405162461bcd60e51b815260040161027d9061276e565b6000610f513361138e565b90506000610f6c83600101548361215b90919063ffffffff16565b905060008111610f8e5760405162461bcd60e51b815260040161027d9061265e565b6001830154610f9d908261217a565b600184015560035460405163a9059cbb60e01b81526001600160a01b039091169063a9059cbb90610fd4903390859060040161250e565b602060405180830381600087803b158015610fee57600080fd5b505af1158015611002573d6000803e3d6000fd5b505050506040513d601f19601f82011682018060405250810190611026919061249e565b6110425760405162461bcd60e51b815260040161027d906127ce565b336001600160a01b03167fd8138f8a3f377c5259ca548e70e4c2de94f129f5a11036a15b69513cba2b426a8260405161107b919061257f565b60405180910390a2505050610b2b612434565b600d5481565b61109c61240a565b6110a4612186565b6002600354600160a01b900460ff1660068111156110d257634e487b7160e01b600052602160045260246000fd5b146110ef5760405162461bcd60e51b815260040161027d90612bb6565b336000908152601660205260409020805461111c5760405162461bcd60e51b815260040161027d9061276e565b600281015460ff16156111415760405162461bcd60e51b815260040161027d90612900565b60028101805460ff19166001179055600354815460405163a9059cbb60e01b81526001600160a01b039092169163a9059cbb916111839133919060040161250e565b602060405180830381600087803b15801561119d57600080fd5b505af11580156111b1573d6000803e3d6000fd5b505050506040513d601f19601f820116820180604052508101906111d5919061249e565b6111f15760405162461bcd60e51b815260040161027d906127ce565b805460405133917fd7dee2702d63ad89917b6a4da9981c90c4d24f8c2bdfd64c604ecae57d8d065191611224919061257f565b60405180910390a250610b2b612434565b600080611240610870565b600e54600a549192509060009061125b906108a1858561216e565b905082600654106112725760009350505050610760565b600061127e848361215b565b94505050505090565b60135481565b60166020526000908152604090208054600182015460029092015490919060ff1683565b601580546112be90612ce6565b80601f01602080910402602001604051908101604052809291908181526020018280546112ea90612ce6565b80156113375780601f1061130c57610100808354040283529160200191611337565b820191906000526020600020905b81548152906001019060200180831161131a57829003601f168201915b505050505081565b6003546001600160a01b031681565b601480546112be90612ce6565b600b5481565b6012546001600160a01b031681565b6001546001600160a01b031681565b6002546001600160a01b031681565b600060038054600160a01b900460ff1660068111156113bd57634e487b7160e01b600052602160045260246000fd5b10156113cb5750600061145e565b6001600160a01b038216600090815260166020526040902080546113f357600091505061145e565b6005548154600091611411916108a190670de0b6b3a764000061216e565b600654909150600061142f670de0b6b3a76400006108a1848661216e565b600185015490915080821161144c5760009550505050505061145e565b611456828261215b565b955050505050505b919050565b600f5481565b60065481565b60055481565b6001546001600160a01b0316331461149f5760405162461bcd60e51b815260040161027d906129f1565b600180600354600160a01b900460ff1660068111156114ce57634e487b7160e01b600052602160045260246000fd5b146114eb5760405162461bcd60e51b815260040161027d90612ada565b6114f361240a565b6114fb612186565b6001600354600160a01b900460ff16600681111561152957634e487b7160e01b600052602160045260246000fd5b146115465760405162461bcd60e51b815260040161027d90612a6c565b60006115656127106108a16101f460045461216e90919063ffffffff16565b905060006115866127106108a161012c60045461216e90919063ffffffff16565b600f549091501561163657600354601054600f5460405163a9059cbb60e01b81526001600160a01b039384169363a9059cbb936115c89391169160040161250e565b602060405180830381600087803b1580156115e257600080fd5b505af11580156115f6573d6000803e3d6000fd5b505050506040513d601f19601f8201168201806040525081019061161a919061249e565b6116365760405162461bcd60e51b815260040161027d90612797565b60035460115460405163a9059cbb60e01b81526001600160a01b039283169263a9059cbb9261166c92911690869060040161250e565b602060405180830381600087803b15801561168657600080fd5b505af115801561169a573d6000803e3d6000fd5b505050506040513d601f19601f820116820180604052508101906116be919061249e565b6116da5760405162461bcd60e51b815260040161027d90612aa3565b60035460105460405163a9059cbb60e01b81526001600160a01b039283169263a9059cbb9261171092911690859060040161250e565b602060405180830381600087803b15801561172a57600080fd5b505af115801561173e573d6000803e3d6000fd5b505050506040513d601f19601f82011682018060405250810190611762919061249e565b61177e5760405162461bcd60e51b815260040161027d906126f6565b60006117a58261179f600f5461179f8760055461215b90919063ffffffff16565b9061215b565b60035460015460405163a9059cbb60e01b81529293506001600160a01b039182169263a9059cbb926117dd921690859060040161250e565b602060405180830381600087803b1580156117f757600080fd5b505af115801561180b573d6000803e3d6000fd5b505050506040513d601f19601f8201168201806040525081019061182f919061249e565b61184b5760405162461bcd60e51b815260040161027d90612c1b565b6003805460ff60a01b1916600360a01b17905542600c556000600e8190556040517f1ae23a15f6e2626a4b617b9cfe88907fbcbe4f72a8d825ead5ad1822933694239190a150505061189b612434565b50565b606060178054806020026020016040519081016040528092919081815260200182805480156118f657602002820191906000526020600020905b81546001600160a01b031681526001909101906020018083116118d8575b5050505050905090565b600080611919600260075461216e90919063ffffffff16565b905060006108c0600c6108a16127106108a1611942600e54600a5461215b90919063ffffffff16565b60045461089b908961216e565b601154600160a01b900460ff1681565b6001546001600160a01b031633146119895760405162461bcd60e51b815260040161027d906129f1565b61199161240a565b611999612186565b60038054600160a01b900460ff1660068111156119c657634e487b7160e01b600052602160045260246000fd5b14806119fd57506004600354600160a01b900460ff1660068111156119fb57634e487b7160e01b600052602160045260246000fd5b145b611a195760405162461bcd60e51b815260040161027d9061261a565b6000611a23611235565b90506000611a2f61202f565b90506000611a3d838361217a565b6003546040516323b872dd60e01b81529192506001600160a01b0316906323b872dd90611a72903390309086906004016124ea565b602060405180830381600087803b158015611a8c57600080fd5b505af1158015611aa0573d6000803e3d6000fd5b505050506040513d601f19601f82011682018060405250810190611ac4919061249e565b611ae05760405162461bcd60e51b815260040161027d906127ce565b600654611aed908461217a565b600655600a54600e556040517f417ad23224c92388db4cfee6aa1061ae26dd3432b872a528f271124213cb603f90611b289085908590612c52565b60405180910390a16003805460ff60a01b1916600360a11b1790556040517f409fced1b85ae32a29fb1e18894d8361a5f2653dc27adf7102d86175c2901d7c90600090a1505050610b2b612434565b611b7f61240a565b600080600354600160a01b900460ff166006811115611bae57634e487b7160e01b600052602160045260246000fd5b14611bcb5760405162461bcd60e51b815260040161027d90612ada565b611bd3612186565b600b54421115611bf55760405162461bcd60e51b815260040161027d90612b37565b6001546001600160a01b0316331415611c205760405162461bcd60e51b815260040161027d90612834565b60008211611c405760405162461bcd60e51b815260040161027d906128b8565b601154600160a01b900460ff1615611d20576012546001600160a01b0316611c7a5760405162461bcd60e51b815260040161027d906126bf565b601254601354604051633633914760e11b81526000926001600160a01b031691636c67228e91611caf91903390600401612588565b60206040518083038186803b158015611cc757600080fd5b505afa158015611cdb573d6000803e3d6000fd5b505050506040513d601f19601f82011682018060405250810190611cff919061249e565b905080611d1e5760405162461bcd60e51b815260040161027d9061296c565b505b6000611d3960055460045461215b90919063ffffffff16565b905060008111611d5b5760405162461bcd60e51b815260040161027d90612a35565b8281811115611d675750805b6003546040516323b872dd60e01b81526001600160a01b03909116906323b872dd90611d9b903390309086906004016124ea565b602060405180830381600087803b158015611db557600080fd5b505af1158015611dc9573d6000803e3d6000fd5b505050506040513d601f19601f82011682018060405250810190611ded919061249e565b611e095760405162461bcd60e51b815260040161027d906127ce565b33600090815260166020526040902054611e6057601780546001810182556000919091527fc624b66cc0138b8fabc209247f72d758e1cf3343756d543badbf24212bed8c150180546001600160a01b031916331790555b33600090815260166020526040902054611e7a908261217a565b33600090815260166020526040902055600554611e97908261217a565b60055560405133907f5af8184bef8e4b45eb9f6ed7734d04da38ced226495548f46e0c8ff8d7d9a52490611ecc90849061257f565b60405180910390a260045460055410611f20576003805460ff60a01b1916600160a01b17905542600d556040517ff3e84c4c82e83c0bdc90064809179d950d758f72209c55f7c851258b6b64d9ab90600090a15b80841115611fd7576000611f34858361215b565b60035460405163a9059cbb60e01b81529192506001600160a01b03169063a9059cbb90611f67903390859060040161250e565b602060405180830381600087803b158015611f8157600080fd5b505af1158015611f95573d6000803e3d6000fd5b505050506040513d601f19601f82011682018060405250810190611fb9919061249e565b611fd55760405162461bcd60e51b815260040161027d90612b07565b505b50505061189b612434565b600e5481565b600080611ff3610870565b905060006108c0600a54836123fe90919063ffffffff16565b600080612017611235565b9050600061202361202f565b90506108c0828261217a565b600060038054600160a01b900460ff16600681111561205e57634e487b7160e01b600052602160045260246000fd5b1415801561209857506004600354600160a01b900460ff16600681111561209557634e487b7160e01b600052602160045260246000fd5b14155b156120a557506000610760565b60006120c261075362278d00600a5461216e90919063ffffffff16565b9050804211156120d6576000915050610760565b60006120e2824261215b565b905060006120f382620151806123fe565b9050600061210d601e600a5461216e90919063ffffffff16565b9050600061212f826108a18561089b60026009546123fe90919063ffffffff16565b9050600061213b611235565b9050600061214f6127106108a1848661216e565b97505050505050505090565b60006121678284612ccf565b9392505050565b60006121678284612cb0565b60006121678284612c78565b6000600354600160a01b900460ff1660068111156121b457634e487b7160e01b600052602160045260246000fd5b1480156121c25750600b5442115b156122545760045460055410612217576003805460ff60a01b1916600160a01b17905542600d556040517ff3e84c4c82e83c0bdc90064809179d950d758f72209c55f7c851258b6b64d9ab90600090a1612254565b6003805460ff60a01b1916600160a11b1790556040517f362f189f5bf8fcf98b5a131743fc21dc5f5b13a3115367c7a6616b1e79711f7190600090a15b6001600354600160a01b900460ff16600681111561228257634e487b7160e01b600052602160045260246000fd5b14156122dc57600d546122989062093a8061217a565b4211156122dc576003805460ff60a01b1916600160a11b1790556040517f362f189f5bf8fcf98b5a131743fc21dc5f5b13a3115367c7a6616b1e79711f7190600090a15b60038054600160a01b900460ff16600681111561230957634e487b7160e01b600052602160045260246000fd5b1415610b2b57600061232c61075362278d00600e5461216e90919063ffffffff16565b905061233b816212750061217a565b42111561189b5761235a61235362127500600261216e565b829061217a565b42116123bf576003805460ff60a01b1916600160a21b179055600061237d611900565b60065490915061238d908261217a565b6006556040517f8c9e892186e366a41c212441d4bd3cf562ccc33d8cfe6201230ab6e848102add90600090a15061189b565b6003805460ff60a01b1916600560a01b1790556040517f74808f66e345f41c571625ba19284173a379393c1422d815a03553c72d0d49a090600090a150565b60006121678284612c90565b6002600054141561242d5760405162461bcd60e51b815260040161027d90612be4565b6002600055565b6001600055565b80356001600160a01b038116811461145e57600080fd5b600060208284031215612463578081fd5b6121678261243b565b6000806040838503121561247e578081fd5b6124878361243b565b91506124956020840161243b565b90509250929050565b6000602082840312156124af578081fd5b81518015158114612167578182fd5b6000602082840312156124cf578081fd5b5035919050565b6001600160a01b0391909116815260200190565b6001600160a01b039384168152919092166020820152604081019190915260600190565b6001600160a01b03929092168252602082015260400190565b6020808252825182820181905260009190848201906040850190845b818110156125685783516001600160a01b031683529284019291840191600101612543565b50909695505050505050565b901515815260200190565b90815260200190565b9182526001600160a01b0316602082015260400190565b60208101600783106125c157634e487b7160e01b600052602160045260246000fd5b91905290565b6000602080835283518082850152825b818110156125f3578581018301518582016040015282016125d7565b818111156126045783604083870101525b50601f01601f1916929092016040019392505050565b60208082526024908201527f4c6f616e206973206e6f7420616374697665206f7220696e207072652d646566604082015263185d5b1d60e21b606082015260800190565b60208082526010908201526f4e6f7468696e6720746f20636c61696d60801b604082015260600190565b6020808252601e908201527f4f6c642061646472657373206973206e6f7420616e20696e766573746f720000604082015260600190565b6020808252601b908201527f52656769737472792061646472657373206973206e6f74207365740000000000604082015260600190565b6020808252601b908201527f5375636365737320666565207472616e73666572206661696c65640000000000604082015260600190565b60208082526021908201527f5468697320636f6e747261637420646f6573206e6f74206163636570742045546040820152600960fb1b606082015260800190565b6020808252600f908201526e2737ba1030b71034b73b32b9ba37b960891b604082015260600190565b60208082526019908201527f536574757020666565207472616e73666572206661696c656400000000000000604082015260600190565b602080825260159082015274151bdad95b881d1c985b9cd9995c8819985a5b1959605a1b604082015260600190565b6020808252601c908201527f4c6f616e206973206e6f7420616374697665206f7220636c6f73656400000000604082015260600190565b60208082526023908201527f426f72726f7765722063616e6e6f742066756e64207468656972206f776e206c60408201526237b0b760e91b606082015260800190565b60208082526021908201527f43616e6e6f742073746f702066756e64696e67206174207468697320737461676040820152606560f81b606082015260800190565b60208082526028908201527f46756e64696e6720616d6f756e74206d7573742062652067726561746572207460408201526768616e207a65726f60c01b606082015260800190565b60208082526010908201526f105b1c9958591e481c99599d5b99195960821b604082015260600190565b60208082526022908201527f4e6577206164647265737320697320616c726561647920616e20696e7665737460408201526137b960f11b606082015260800190565b6020808252602e908201527f496e766573746f7220646f6573206e6f74206d65657420636f6d706c69616e6360408201526d6520726571756972656d656e747360901b606082015260800190565b6020808252601b908201527f416464726573736573206d75737420626520646966666572656e740000000000604082015260600190565b60208082526024908201527f4f6e6c7920626f72726f7765722063616e2063616c6c20746869732066756e636040820152633a34b7b760e11b606082015260800190565b6020808252601c908201527f46756e64696e6720676f616c20616c7265616479207265616368656400000000604082015260600190565b6020808252601c908201527f4c6f616e206973206e6f7420696e2046756e6465642073746174757300000000604082015260600190565b6020808252601c908201527f526573657276652066756e64207472616e73666572206661696c656400000000604082015260600190565b602080825260139082015272496e76616c6964206c6f616e2073746174757360681b604082015260600190565b6020808252601690820152751499599d5b99081d1c985b9cd9995c8819985a5b195960521b604082015260600190565b60208082526018908201527f46756e64696e6720706572696f642068617320656e6465640000000000000000604082015260600190565b60208082526028908201527f4f6e6c7920657363726f772061646d696e2063616e2063616c6c207468697320604082015267333ab731ba34b7b760c11b606082015260800190565b602080825260149082015273119d5b991a5b99c8191a59081b9bdd0819985a5b60621b604082015260600190565b6020808252601f908201527f5265656e7472616e637947756172643a207265656e7472616e742063616c6c00604082015260600190565b6020808252601b908201527f5472616e7366657220746f20626f72726f776572206661696c65640000000000604082015260600190565b918252602082015260400190565b92835260208301919091521515604082015260600190565b60008219821115612c8b57612c8b612d3c565b500190565b600082612cab57634e487b7160e01b81526012600452602481fd5b500490565b6000816000190483118215151615612cca57612cca612d3c565b500290565b600082821015612ce157612ce1612d3c565b500390565b600281046001821680612cfa57607f821691505b60208210811415612d1b57634e487b7160e01b600052602260045260246000fd5b50919050565b6000600019821415612d3557612d35612d3c565b5060010190565b634e487b7160e01b600052601160045260246000fdfea264697066735822122002395bd521a21393beb4e298b36bbdd5400bcc75afe8ee2f49866e6ba5132e6964736f6c63430008000033",
  "linkReferences": {},
  "deployedLinkReferences": {}
}